{
  "_format": "hh-sol-artifact-1",
  "contractName": "LDonate",
  "sourceName": "contracts/LDonate.sol",
  "abi": [
    {
      "inputs": [
        {
          "internalType": "uint256",
          "name": "_withdrawFee",
          "type": "uint256"
        },
        {
          "internalType": "address",
          "name": "_feeWallet",
          "type": "address"
        },
        {
          "internalType": "address",
          "name": "_previousContract",
          "type": "address"
        }
      ],
      "stateMutability": "nonpayable",
      "type": "constructor"
    },
    {
      "anonymous": false,
      "inputs": [
        {
          "indexed": false,
          "internalType": "string",
          "name": "tournamentUid",
          "type": "string"
        },
        {
          "indexed": false,
          "internalType": "string",
          "name": "userId",
          "type": "string"
        },
        {
          "indexed": false,
          "internalType": "uint256",
          "name": "amount",
          "type": "uint256"
        }
      ],
      "name": "ClaimDonate",
      "type": "event"
    },
    {
      "anonymous": false,
      "inputs": [
        {
          "indexed": false,
          "internalType": "string",
          "name": "tournamentUid",
          "type": "string"
        },
        {
          "indexed": false,
          "internalType": "string",
          "name": "targetUid",
          "type": "string"
        },
        {
          "indexed": false,
          "internalType": "uint256",
          "name": "amount",
          "type": "uint256"
        },
        {
          "indexed": false,
          "internalType": "uint8",
          "name": "donate_type",
          "type": "uint8"
        }
      ],
      "name": "Donate",
      "type": "event"
    },
    {
      "anonymous": false,
      "inputs": [
        {
          "indexed": true,
          "internalType": "address",
          "name": "previousOwner",
          "type": "address"
        },
        {
          "indexed": true,
          "internalType": "address",
          "name": "newOwner",
          "type": "address"
        }
      ],
      "name": "OwnershipTransferred",
      "type": "event"
    },
    {
      "anonymous": false,
      "inputs": [
        {
          "indexed": true,
          "internalType": "bytes32",
          "name": "role",
          "type": "bytes32"
        },
        {
          "indexed": true,
          "internalType": "bytes32",
          "name": "previousAdminRole",
          "type": "bytes32"
        },
        {
          "indexed": true,
          "internalType": "bytes32",
          "name": "newAdminRole",
          "type": "bytes32"
        }
      ],
      "name": "RoleAdminChanged",
      "type": "event"
    },
    {
      "anonymous": false,
      "inputs": [
        {
          "indexed": true,
          "internalType": "bytes32",
          "name": "role",
          "type": "bytes32"
        },
        {
          "indexed": true,
          "internalType": "address",
          "name": "account",
          "type": "address"
        },
        {
          "indexed": true,
          "internalType": "address",
          "name": "sender",
          "type": "address"
        }
      ],
      "name": "RoleGranted",
      "type": "event"
    },
    {
      "anonymous": false,
      "inputs": [
        {
          "indexed": true,
          "internalType": "bytes32",
          "name": "role",
          "type": "bytes32"
        },
        {
          "indexed": true,
          "internalType": "address",
          "name": "account",
          "type": "address"
        },
        {
          "indexed": true,
          "internalType": "address",
          "name": "sender",
          "type": "address"
        }
      ],
      "name": "RoleRevoked",
      "type": "event"
    },
    {
      "inputs": [],
      "name": "DEFAULT_ADMIN_ROLE",
      "outputs": [
        {
          "internalType": "bytes32",
          "name": "",
          "type": "bytes32"
        }
      ],
      "stateMutability": "view",
      "type": "function"
    },
    {
      "inputs": [],
      "name": "MINTER_ROLE",
      "outputs": [
        {
          "internalType": "bytes32",
          "name": "",
          "type": "bytes32"
        }
      ],
      "stateMutability": "view",
      "type": "function"
    },
    {
      "inputs": [
        {
          "internalType": "string",
          "name": "tournamentUid",
          "type": "string"
        },
        {
          "internalType": "string",
          "name": "teamUid",
          "type": "string"
        },
        {
          "internalType": "string",
          "name": "userId",
          "type": "string"
        },
        {
          "internalType": "uint256",
          "name": "tournamentAmount",
          "type": "uint256"
        },
        {
          "internalType": "uint256",
          "name": "teamAmount",
          "type": "uint256"
        },
        {
          "internalType": "uint256",
          "name": "userAmount",
          "type": "uint256"
        },
        {
          "internalType": "address",
          "name": "receiver",
          "type": "address"
        },
        {
          "internalType": "address",
          "name": "_paymentToken",
          "type": "address"
        }
      ],
      "name": "claim",
      "outputs": [],
      "stateMutability": "nonpayable",
      "type": "function"
    },
    {
      "inputs": [
        {
          "internalType": "string",
          "name": "tournamentUid",
          "type": "string"
        },
        {
          "internalType": "string",
          "name": "teamUid",
          "type": "string"
        },
        {
          "internalType": "uint256",
          "name": "amount",
          "type": "uint256"
        },
        {
          "internalType": "address",
          "name": "_paymentToken",
          "type": "address"
        }
      ],
      "name": "donateTeam",
      "outputs": [],
      "stateMutability": "nonpayable",
      "type": "function"
    },
    {
      "inputs": [
        {
          "internalType": "string",
          "name": "tournamentUid",
          "type": "string"
        },
        {
          "internalType": "uint256",
          "name": "amount",
          "type": "uint256"
        },
        {
          "internalType": "address",
          "name": "_paymentToken",
          "type": "address"
        }
      ],
      "name": "donateTournament",
      "outputs": [],
      "stateMutability": "nonpayable",
      "type": "function"
    },
    {
      "inputs": [
        {
          "internalType": "string",
          "name": "tournamentUid",
          "type": "string"
        },
        {
          "internalType": "string",
          "name": "userId",
          "type": "string"
        },
        {
          "internalType": "uint256",
          "name": "amount",
          "type": "uint256"
        },
        {
          "internalType": "address",
          "name": "_paymentToken",
          "type": "address"
        }
      ],
      "name": "donateUser",
      "outputs": [],
      "stateMutability": "nonpayable",
      "type": "function"
    },
    {
      "inputs": [],
      "name": "getPreviousContract",
      "outputs": [
        {
          "internalType": "address",
          "name": "",
          "type": "address"
        }
      ],
      "stateMutability": "view",
      "type": "function"
    },
    {
      "inputs": [
        {
          "internalType": "bytes32",
          "name": "role",
          "type": "bytes32"
        }
      ],
      "name": "getRoleAdmin",
      "outputs": [
        {
          "internalType": "bytes32",
          "name": "",
          "type": "bytes32"
        }
      ],
      "stateMutability": "view",
      "type": "function"
    },
    {
      "inputs": [
        {
          "internalType": "string",
          "name": "tournamentUid",
          "type": "string"
        },
        {
          "internalType": "string",
          "name": "teamUid",
          "type": "string"
        }
      ],
      "name": "getTeamPoolSize",
      "outputs": [
        {
          "internalType": "uint256",
          "name": "",
          "type": "uint256"
        }
      ],
      "stateMutability": "view",
      "type": "function"
    },
    {
      "inputs": [
        {
          "internalType": "string",
          "name": "tournamentUid",
          "type": "string"
        }
      ],
      "name": "getTournamentPoolSize",
      "outputs": [
        {
          "internalType": "uint256",
          "name": "",
          "type": "uint256"
        }
      ],
      "stateMutability": "view",
      "type": "function"
    },
    {
      "inputs": [
        {
          "internalType": "string",
          "name": "tournamentUid",
          "type": "string"
        },
        {
          "internalType": "string",
          "name": "userId",
          "type": "string"
        }
      ],
      "name": "getUserPoolSize",
      "outputs": [
        {
          "internalType": "uint256",
          "name": "",
          "type": "uint256"
        }
      ],
      "stateMutability": "view",
      "type": "function"
    },
    {
      "inputs": [
        {
          "internalType": "bytes32",
          "name": "role",
          "type": "bytes32"
        },
        {
          "internalType": "address",
          "name": "account",
          "type": "address"
        }
      ],
      "name": "grantRole",
      "outputs": [],
      "stateMutability": "nonpayable",
      "type": "function"
    },
    {
      "inputs": [
        {
          "internalType": "bytes32",
          "name": "role",
          "type": "bytes32"
        },
        {
          "internalType": "address",
          "name": "account",
          "type": "address"
        }
      ],
      "name": "hasRole",
      "outputs": [
        {
          "internalType": "bool",
          "name": "",
          "type": "bool"
        }
      ],
      "stateMutability": "view",
      "type": "function"
    },
    {
      "inputs": [],
      "name": "owner",
      "outputs": [
        {
          "internalType": "address",
          "name": "",
          "type": "address"
        }
      ],
      "stateMutability": "view",
      "type": "function"
    },
    {
      "inputs": [],
      "name": "renounceOwnership",
      "outputs": [],
      "stateMutability": "nonpayable",
      "type": "function"
    },
    {
      "inputs": [
        {
          "internalType": "bytes32",
          "name": "role",
          "type": "bytes32"
        },
        {
          "internalType": "address",
          "name": "account",
          "type": "address"
        }
      ],
      "name": "renounceRole",
      "outputs": [],
      "stateMutability": "nonpayable",
      "type": "function"
    },
    {
      "inputs": [
        {
          "internalType": "bytes32",
          "name": "role",
          "type": "bytes32"
        },
        {
          "internalType": "address",
          "name": "account",
          "type": "address"
        }
      ],
      "name": "revokeRole",
      "outputs": [],
      "stateMutability": "nonpayable",
      "type": "function"
    },
    {
      "inputs": [
        {
          "internalType": "address",
          "name": "account",
          "type": "address"
        },
        {
          "internalType": "bool",
          "name": "_enable",
          "type": "bool"
        }
      ],
      "name": "setupMinterRole",
      "outputs": [],
      "stateMutability": "nonpayable",
      "type": "function"
    },
    {
      "inputs": [
        {
          "internalType": "bytes4",
          "name": "interfaceId",
          "type": "bytes4"
        }
      ],
      "name": "supportsInterface",
      "outputs": [
        {
          "internalType": "bool",
          "name": "",
          "type": "bool"
        }
      ],
      "stateMutability": "view",
      "type": "function"
    },
    {
      "inputs": [
        {
          "internalType": "address",
          "name": "newOwner",
          "type": "address"
        }
      ],
      "name": "transferOwnership",
      "outputs": [],
      "stateMutability": "nonpayable",
      "type": "function"
    },
    {
      "inputs": [
        {
          "internalType": "uint256",
          "name": "_withdrawFee",
          "type": "uint256"
        }
      ],
      "name": "updateFee",
      "outputs": [],
      "stateMutability": "nonpayable",
      "type": "function"
    }
  ],
  "bytecode": "0x60806040523480156200001157600080fd5b5060405162003f7e38038062003f7e833981810160405281019062000037919062000474565b620000576200004b6200020760201b60201c565b6200020f60201b60201c565b6200007b6000801b6200006f6200020760201b60201c565b620002d560201b60201c565b620000bc7f9f2df0fed2c77648de5860a4cc508cd0818c85b8b8a1ab4ceeef8d981c8956a6620000b06200020760201b60201c565b620002d560201b60201c565b600073ffffffffffffffffffffffffffffffffffffffff168273ffffffffffffffffffffffffffffffffffffffff1614156200012f576040517f08c379a0000000000000000000000000000000000000000000000000000000008152600401620001269062000518565b60405180910390fd5b6064831062000175576040517f08c379a00000000000000000000000000000000000000000000000000000000081526004016200016c906200053a565b60405180910390fd5b8260058190555081600660006101000a81548173ffffffffffffffffffffffffffffffffffffffff021916908373ffffffffffffffffffffffffffffffffffffffff16021790555080600760006101000a81548173ffffffffffffffffffffffffffffffffffffffff021916908373ffffffffffffffffffffffffffffffffffffffff16021790555050505062000631565b600033905090565b6000600160009054906101000a900473ffffffffffffffffffffffffffffffffffffffff16905081600160006101000a81548173ffffffffffffffffffffffffffffffffffffffff021916908373ffffffffffffffffffffffffffffffffffffffff1602179055508173ffffffffffffffffffffffffffffffffffffffff168173ffffffffffffffffffffffffffffffffffffffff167f8be0079c531659141344cd1fd0a4f28419497f9722a3daafe3b4186f6b6457e060405160405180910390a35050565b620002e78282620002eb60201b60201c565b5050565b620002fd8282620003dc60201b60201c565b620003d857600160008084815260200190815260200160002060000160008373ffffffffffffffffffffffffffffffffffffffff1673ffffffffffffffffffffffffffffffffffffffff16815260200190815260200160002060006101000a81548160ff0219169083151502179055506200037d6200020760201b60201c565b73ffffffffffffffffffffffffffffffffffffffff168173ffffffffffffffffffffffffffffffffffffffff16837f2f8788117e7eff1d82e926ec794901d17c78024a50270940304540a733656f0d60405160405180910390a45b5050565b600080600084815260200190815260200160002060000160008373ffffffffffffffffffffffffffffffffffffffff1673ffffffffffffffffffffffffffffffffffffffff16815260200190815260200160002060009054906101000a900460ff16905092915050565b6000815190506200045781620005fd565b92915050565b6000815190506200046e8162000617565b92915050565b6000806000606084860312156200048a57600080fd5b60006200049a868287016200045d565b9350506020620004ad8682870162000446565b9250506040620004c08682870162000446565b9150509250925092565b6000620004d9600f836200055c565b9150620004e682620005ab565b602082019050919050565b600062000500600b836200055c565b91506200050d82620005d4565b602082019050919050565b600060208201905081810360008301526200053381620004ca565b9050919050565b600060208201905081810360008301526200055581620004f1565b9050919050565b600082825260208201905092915050565b60006200057a8262000581565b9050919050565b600073ffffffffffffffffffffffffffffffffffffffff82169050919050565b6000819050919050565b7f494e56414c49445f414444524553530000000000000000000000000000000000600082015250565b7f4645455f494e56414c4944000000000000000000000000000000000000000000600082015250565b62000608816200056d565b81146200061457600080fd5b50565b6200062281620005a1565b81146200062e57600080fd5b50565b61393d80620006416000396000f3fe608060405234801561001057600080fd5b50600436106101375760003560e01c80637aa5c470116100b857806391d148541161007c57806391d1485414610336578063a217fddf14610366578063c56e85f114610384578063d5391393146103a0578063d547741f146103be578063f2fde38b146103da57610137565b80637aa5c4701461027e57806382e9d5c81461029c57806389b6ce31146102cc5780638da5cb5b146102fc5780639012c4a81461031a57610137565b80632f2ff15d116100ff5780632f2ff15d146101f057806336568abe1461020c57806341f494e814610228578063686a78dd14610244578063715018a61461027457610137565b806301ffc9a71461013c578063133b55ed1461016c57806323a79e4c14610188578063248a9ca3146101a45780632592d9ef146101d4575b600080fd5b61015660048036038101906101519190612715565b6103f6565b6040516101639190612e6f565b60405180910390f35b610186600480360381019061018191906128e5565b610408565b005b6101a2600480360381019061019d9190612978565b610869565b005b6101be60048036038101906101b991906126b0565b610c4b565b6040516101cb9190612e8a565b60405180910390f35b6101ee60048036038101906101e9919061264b565b610c6a565b005b61020a600480360381019061020591906126d9565b610d91565b005b610226600480360381019061022191906126d9565b610dba565b005b610242600480360381019061023d91906128e5565b610e3d565b005b61025e6004803603810190610259919061277f565b61125a565b60405161026b91906131e3565b60405180910390f35b61027c611308565b005b610286611390565b6040516102939190612dcb565b60405180910390f35b6102b660048036038101906102b1919061277f565b6113ba565b6040516102c391906131e3565b60405180910390f35b6102e660048036038101906102e1919061273e565b611468565b6040516102f391906131e3565b60405180910390f35b6103046114f9565b6040516103119190612dcb565b60405180910390f35b610334600480360381019061032f91906129df565b611523565b005b610350600480360381019061034b91906126d9565b611580565b60405161035d9190612e6f565b60405180910390f35b61036e6115ea565b60405161037b9190612e8a565b60405180910390f35b61039e600480360381019061039991906127eb565b6115f1565b005b6103a8611cca565b6040516103b59190612e8a565b60405180910390f35b6103d860048036038101906103d391906126d9565b611cee565b005b6103f460048036038101906103ef9190612622565b611d17565b005b600061040182611e0f565b9050919050565b600073ffffffffffffffffffffffffffffffffffffffff168173ffffffffffffffffffffffffffffffffffffffff161415610478576040517f08c379a000000000000000000000000000000000000000000000000000000000815260040161046f90613143565b60405180910390fd5b6000845111801561048a5750602d8451105b6104c9576040517f08c379a00000000000000000000000000000000000000000000000000000000081526004016104c0906130a3565b60405180910390fd5b602d83511061050d576040517f08c379a0000000000000000000000000000000000000000000000000000000008152600401610504906130c3565b60405180910390fd5b60008173ffffffffffffffffffffffffffffffffffffffff163b11610567576040517f08c379a000000000000000000000000000000000000000000000000000000000815260040161055e90613143565b60405180910390fd5b600081905060008173ffffffffffffffffffffffffffffffffffffffff1663dd62ed3e33306040518363ffffffff1660e01b81526004016105a9929190612de6565b60206040518083038186803b1580156105c157600080fd5b505afa1580156105d5573d6000803e3d6000fd5b505050506040513d601f19601f820116820180604052508101906105f99190612a08565b90508381101561063e576040517f08c379a000000000000000000000000000000000000000000000000000000000815260040161063590613183565b60405180910390fd5b60008273ffffffffffffffffffffffffffffffffffffffff166370a08231336040518263ffffffff1660e01b81526004016106799190612dcb565b60206040518083038186803b15801561069157600080fd5b505afa1580156106a5573d6000803e3d6000fd5b505050506040513d601f19601f820116820180604052508101906106c99190612a08565b90508481101561070e576040517f08c379a000000000000000000000000000000000000000000000000000000000815260040161070590613123565b60405180910390fd5b8273ffffffffffffffffffffffffffffffffffffffff166323b872dd3330886040518463ffffffff1660e01b815260040161074b93929190612e0f565b602060405180830381600087803b15801561076557600080fd5b505af1158015610779573d6000803e3d6000fd5b505050506040513d601f19601f8201168201806040525081019061079d9190612687565b50846003886040516107af9190612d7a565b9081526020016040518091039020876040516107cb9190612d7a565b9081526020016040518091039020546107e4919061327b565b6003886040516107f49190612d7a565b9081526020016040518091039020876040516108109190612d7a565b9081526020016040518091039020819055507fae62783bc0598246ffea3c4c7624bd837f10211526d0e9dfbffd12952bbd633887878760016040516108589493929190612f0c565b60405180910390a150505050505050565b6000835111801561087b5750602d8351105b6108ba576040517f08c379a00000000000000000000000000000000000000000000000000000000081526004016108b190613163565b60405180910390fd5b600073ffffffffffffffffffffffffffffffffffffffff168173ffffffffffffffffffffffffffffffffffffffff16141561092a576040517f08c379a000000000000000000000000000000000000000000000000000000000815260040161092190613143565b60405180910390fd5b60008173ffffffffffffffffffffffffffffffffffffffff163b11610984576040517f08c379a000000000000000000000000000000000000000000000000000000000815260040161097b90613143565b60405180910390fd5b600081905060008173ffffffffffffffffffffffffffffffffffffffff1663dd62ed3e33306040518363ffffffff1660e01b81526004016109c6929190612de6565b60206040518083038186803b1580156109de57600080fd5b505afa1580156109f2573d6000803e3d6000fd5b505050506040513d601f19601f82011682018060405250810190610a169190612a08565b905083811015610a5b576040517f08c379a0000000000000000000000000000000000000000000000000000000008152600401610a5290613183565b60405180910390fd5b60008273ffffffffffffffffffffffffffffffffffffffff166370a08231336040518263ffffffff1660e01b8152600401610a969190612dcb565b60206040518083038186803b158015610aae57600080fd5b505afa158015610ac2573d6000803e3d6000fd5b505050506040513d601f19601f82011682018060405250810190610ae69190612a08565b905084811015610b2b576040517f08c379a0000000000000000000000000000000000000000000000000000000008152600401610b2290613123565b60405180910390fd5b8273ffffffffffffffffffffffffffffffffffffffff166323b872dd3330886040518463ffffffff1660e01b8152600401610b6893929190612e0f565b602060405180830381600087803b158015610b8257600080fd5b505af1158015610b96573d6000803e3d6000fd5b505050506040513d601f19601f82011682018060405250810190610bba9190612687565b5084600287604051610bcc9190612d7a565b908152602001604051809103902054610be5919061327b565b600287604051610bf59190612d7a565b9081526020016040518091039020819055507fae62783bc0598246ffea3c4c7624bd837f10211526d0e9dfbffd12952bbd633886866000604051610c3b93929190612fb2565b60405180910390a1505050505050565b6000806000838152602001908152602001600020600101549050919050565b600073ffffffffffffffffffffffffffffffffffffffff168273ffffffffffffffffffffffffffffffffffffffff161415610cda576040517f08c379a0000000000000000000000000000000000000000000000000000000008152600401610cd190613143565b60405180910390fd5b610cee6000801b610ce9611e89565b611580565b610d2d576040517f08c379a0000000000000000000000000000000000000000000000000000000008152600401610d2490613103565b60405180910390fd5b8015610d6257610d5d7f9f2df0fed2c77648de5860a4cc508cd0818c85b8b8a1ab4ceeef8d981c8956a683611e91565b610d8d565b610d8c7f9f2df0fed2c77648de5860a4cc508cd0818c85b8b8a1ab4ceeef8d981c8956a683611e9f565b5b5050565b610d9a82610c4b565b610dab81610da6611e89565b611f80565b610db5838361201d565b505050565b610dc2611e89565b73ffffffffffffffffffffffffffffffffffffffff168173ffffffffffffffffffffffffffffffffffffffff1614610e2f576040517f08c379a0000000000000000000000000000000000000000000000000000000008152600401610e26906131c3565b60405180910390fd5b610e398282611e9f565b5050565b600073ffffffffffffffffffffffffffffffffffffffff168173ffffffffffffffffffffffffffffffffffffffff161415610ead576040517f08c379a0000000000000000000000000000000000000000000000000000000008152600401610ea490613143565b60405180910390fd5b60008451118015610ebf5750602d8451105b610efe576040517f08c379a0000000000000000000000000000000000000000000000000000000008152600401610ef590613163565b60405180910390fd5b60008173ffffffffffffffffffffffffffffffffffffffff163b11610f58576040517f08c379a0000000000000000000000000000000000000000000000000000000008152600401610f4f90613143565b60405180910390fd5b600081905060008173ffffffffffffffffffffffffffffffffffffffff1663dd62ed3e33306040518363ffffffff1660e01b8152600401610f9a929190612de6565b60206040518083038186803b158015610fb257600080fd5b505afa158015610fc6573d6000803e3d6000fd5b505050506040513d601f19601f82011682018060405250810190610fea9190612a08565b90508381101561102f576040517f08c379a000000000000000000000000000000000000000000000000000000000815260040161102690613183565b60405180910390fd5b60008273ffffffffffffffffffffffffffffffffffffffff166370a08231336040518263ffffffff1660e01b815260040161106a9190612dcb565b60206040518083038186803b15801561108257600080fd5b505afa158015611096573d6000803e3d6000fd5b505050506040513d601f19601f820116820180604052508101906110ba9190612a08565b9050848110156110ff576040517f08c379a00000000000000000000000000000000000000000000000000000000081526004016110f690613123565b60405180910390fd5b8273ffffffffffffffffffffffffffffffffffffffff166323b872dd3330886040518463ffffffff1660e01b815260040161113c93929190612e0f565b602060405180830381600087803b15801561115657600080fd5b505af115801561116a573d6000803e3d6000fd5b505050506040513d601f19601f8201168201806040525081019061118e9190612687565b50846004886040516111a09190612d7a565b9081526020016040518091039020876040516111bc9190612d7a565b9081526020016040518091039020546111d5919061327b565b6004886040516111e59190612d7a565b9081526020016040518091039020876040516112019190612d7a565b9081526020016040518091039020819055507fae62783bc0598246ffea3c4c7624bd837f10211526d0e9dfbffd12952bbd633887878760026040516112499493929190612f5f565b60405180910390a150505050505050565b60006112867f9f2df0fed2c77648de5860a4cc508cd0818c85b8b8a1ab4ceeef8d981c8956a633611580565b6112c5576040517f08c379a00000000000000000000000000000000000000000000000000000000081526004016112bc906131a3565b60405180910390fd5b6004836040516112d59190612d7a565b9081526020016040518091039020826040516112f19190612d7a565b908152602001604051809103902054905092915050565b611310611e89565b73ffffffffffffffffffffffffffffffffffffffff1661132e6114f9565b73ffffffffffffffffffffffffffffffffffffffff1614611384576040517f08c379a000000000000000000000000000000000000000000000000000000000815260040161137b90613083565b60405180910390fd5b61138e60006120fd565b565b6000600760009054906101000a900473ffffffffffffffffffffffffffffffffffffffff16905090565b60006113e67f9f2df0fed2c77648de5860a4cc508cd0818c85b8b8a1ab4ceeef8d981c8956a633611580565b611425576040517f08c379a000000000000000000000000000000000000000000000000000000000815260040161141c906131a3565b60405180910390fd5b6003836040516114359190612d7a565b9081526020016040518091039020826040516114519190612d7a565b908152602001604051809103902054905092915050565b60006114947f9f2df0fed2c77648de5860a4cc508cd0818c85b8b8a1ab4ceeef8d981c8956a633611580565b6114d3576040517f08c379a00000000000000000000000000000000000000000000000000000000081526004016114ca906131a3565b60405180910390fd5b6002826040516114e39190612d7a565b9081526020016040518091039020549050919050565b6000600160009054906101000a900473ffffffffffffffffffffffffffffffffffffffff16905090565b6115376000801b611532611e89565b611580565b611576576040517f08c379a000000000000000000000000000000000000000000000000000000000815260040161156d906131a3565b60405180910390fd5b8060058190555050565b600080600084815260200190815260200160002060000160008373ffffffffffffffffffffffffffffffffffffffff1673ffffffffffffffffffffffffffffffffffffffff16815260200190815260200160002060009054906101000a900460ff16905092915050565b6000801b81565b61161b7f9f2df0fed2c77648de5860a4cc508cd0818c85b8b8a1ab4ceeef8d981c8956a633611580565b61165a576040517f08c379a0000000000000000000000000000000000000000000000000000000008152600401611651906131a3565b60405180910390fd5b600073ffffffffffffffffffffffffffffffffffffffff168273ffffffffffffffffffffffffffffffffffffffff1614156116ca576040517f08c379a00000000000000000000000000000000000000000000000000000000081526004016116c190613143565b60405180910390fd5b600073ffffffffffffffffffffffffffffffffffffffff168173ffffffffffffffffffffffffffffffffffffffff161415801561171e575060008173ffffffffffffffffffffffffffffffffffffffff163b115b61175d576040517f08c379a000000000000000000000000000000000000000000000000000000000815260040161175490613143565b60405180910390fd5b6000851015801561176f575060008410155b801561177c575060008310155b6117bb576040517f08c379a00000000000000000000000000000000000000000000000000000000081526004016117b290613043565b60405180910390fd5b846002896040516117cc9190612d7a565b908152602001604051809103902054101580156118235750836003896040516117f59190612d7a565b9081526020016040518091039020886040516118119190612d7a565b90815260200160405180910390205410155b801561186957508260048960405161183b9190612d7a565b9081526020016040518091039020876040516118579190612d7a565b90815260200160405180910390205410155b6118a8576040517f08c379a000000000000000000000000000000000000000000000000000000000815260040161189f90613063565b60405180910390fd5b600081905060008486886118bc919061327b565b6118c6919061327b565b905060008273ffffffffffffffffffffffffffffffffffffffff166370a08231306040518263ffffffff1660e01b81526004016119039190612dcb565b60206040518083038186803b15801561191b57600080fd5b505afa15801561192f573d6000803e3d6000fd5b505050506040513d601f19601f820116820180604052508101906119539190612a08565b905081811015611998576040517f08c379a000000000000000000000000000000000000000000000000000000000815260040161198f906130e3565b60405180910390fd5b60006064836005546119aa9190613302565b6119b491906132d1565b9050600081846119c4919061335c565b90508473ffffffffffffffffffffffffffffffffffffffff1663a9059cbb88836040518363ffffffff1660e01b8152600401611a01929190612e46565b602060405180830381600087803b158015611a1b57600080fd5b505af1158015611a2f573d6000803e3d6000fd5b505050506040513d601f19601f82011682018060405250810190611a539190612687565b506000821115611b0e578473ffffffffffffffffffffffffffffffffffffffff1663a9059cbb600660009054906101000a900473ffffffffffffffffffffffffffffffffffffffff16846040518363ffffffff1660e01b8152600401611aba929190612e46565b602060405180830381600087803b158015611ad457600080fd5b505af1158015611ae8573d6000803e3d6000fd5b505050506040513d601f19601f82011682018060405250810190611b0c9190612687565b505b60008a1115611b64578960028e604051611b289190612d7a565b908152602001604051809103902054611b41919061335c565b60028e604051611b519190612d7a565b9081526020016040518091039020819055505b6000891115611bf2578860038e604051611b7e9190612d7a565b90815260200160405180910390208d604051611b9a9190612d7a565b908152602001604051809103902054611bb3919061335c565b60038e604051611bc39190612d7a565b90815260200160405180910390208d604051611bdf9190612d7a565b9081526020016040518091039020819055505b6000881115611c80578760048e604051611c0c9190612d7a565b90815260200160405180910390208c604051611c289190612d7a565b908152602001604051809103902054611c41919061335c565b60048e604051611c519190612d7a565b90815260200160405180910390208c604051611c6d9190612d7a565b9081526020016040518091039020819055505b7f136790d0ceb3e798a127a41d7a67094cdb215836914ea1277d20d5a6f00b04938d8c86604051611cb393929190612ec7565b60405180910390a150505050505050505050505050565b7f9f2df0fed2c77648de5860a4cc508cd0818c85b8b8a1ab4ceeef8d981c8956a681565b611cf782610c4b565b611d0881611d03611e89565b611f80565b611d128383611e9f565b505050565b611d1f611e89565b73ffffffffffffffffffffffffffffffffffffffff16611d3d6114f9565b73ffffffffffffffffffffffffffffffffffffffff1614611d93576040517f08c379a0000000000000000000000000000000000000000000000000000000008152600401611d8a90613083565b60405180910390fd5b600073ffffffffffffffffffffffffffffffffffffffff168173ffffffffffffffffffffffffffffffffffffffff161415611e03576040517f08c379a0000000000000000000000000000000000000000000000000000000008152600401611dfa90613023565b60405180910390fd5b611e0c816120fd565b50565b60007f7965db0b000000000000000000000000000000000000000000000000000000007bffffffffffffffffffffffffffffffffffffffffffffffffffffffff1916827bffffffffffffffffffffffffffffffffffffffffffffffffffffffff19161480611e825750611e81826121c3565b5b9050919050565b600033905090565b611e9b828261201d565b5050565b611ea98282611580565b15611f7c57600080600084815260200190815260200160002060000160008373ffffffffffffffffffffffffffffffffffffffff1673ffffffffffffffffffffffffffffffffffffffff16815260200190815260200160002060006101000a81548160ff021916908315150217905550611f21611e89565b73ffffffffffffffffffffffffffffffffffffffff168173ffffffffffffffffffffffffffffffffffffffff16837ff6391f5c32d9c69d2a47ea670b442974b53935d1edc7fd64eb21e047a839171b60405160405180910390a45b5050565b611f8a8282611580565b61201957611faf8173ffffffffffffffffffffffffffffffffffffffff16601461222d565b611fbd8360001c602061222d565b604051602001611fce929190612d91565b6040516020818303038152906040526040517f08c379a00000000000000000000000000000000000000000000000000000000081526004016120109190612ea5565b60405180910390fd5b5050565b6120278282611580565b6120f957600160008084815260200190815260200160002060000160008373ffffffffffffffffffffffffffffffffffffffff1673ffffffffffffffffffffffffffffffffffffffff16815260200190815260200160002060006101000a81548160ff02191690831515021790555061209e611e89565b73ffffffffffffffffffffffffffffffffffffffff168173ffffffffffffffffffffffffffffffffffffffff16837f2f8788117e7eff1d82e926ec794901d17c78024a50270940304540a733656f0d60405160405180910390a45b5050565b6000600160009054906101000a900473ffffffffffffffffffffffffffffffffffffffff16905081600160006101000a81548173ffffffffffffffffffffffffffffffffffffffff021916908373ffffffffffffffffffffffffffffffffffffffff1602179055508173ffffffffffffffffffffffffffffffffffffffff168173ffffffffffffffffffffffffffffffffffffffff167f8be0079c531659141344cd1fd0a4f28419497f9722a3daafe3b4186f6b6457e060405160405180910390a35050565b60007f01ffc9a7000000000000000000000000000000000000000000000000000000007bffffffffffffffffffffffffffffffffffffffffffffffffffffffff1916827bffffffffffffffffffffffffffffffffffffffffffffffffffffffff1916149050919050565b6060600060028360026122409190613302565b61224a919061327b565b67ffffffffffffffff811115612289577f4e487b7100000000000000000000000000000000000000000000000000000000600052604160045260246000fd5b6040519080825280601f01601f1916602001820160405280156122bb5781602001600182028036833780820191505090505b5090507f300000000000000000000000000000000000000000000000000000000000000081600081518110612319577f4e487b7100000000000000000000000000000000000000000000000000000000600052603260045260246000fd5b60200101907effffffffffffffffffffffffffffffffffffffffffffffffffffffffffffff1916908160001a9053507f7800000000000000000000000000000000000000000000000000000000000000816001815181106123a3577f4e487b7100000000000000000000000000000000000000000000000000000000600052603260045260246000fd5b60200101907effffffffffffffffffffffffffffffffffffffffffffffffffffffffffffff1916908160001a905350600060018460026123e39190613302565b6123ed919061327b565b90505b60018111156124d9577f3031323334353637383961626364656600000000000000000000000000000000600f861660108110612455577f4e487b7100000000000000000000000000000000000000000000000000000000600052603260045260246000fd5b1a60f81b828281518110612492577f4e487b7100000000000000000000000000000000000000000000000000000000600052603260045260246000fd5b60200101907effffffffffffffffffffffffffffffffffffffffffffffffffffffffffffff1916908160001a905350600485901c9450806124d290613493565b90506123f0565b506000841461251d576040517f08c379a000000000000000000000000000000000000000000000000000000000815260040161251490613003565b60405180910390fd5b8091505092915050565b600061253a61253584613223565b6131fe565b90508281526020810184848401111561255257600080fd5b61255d848285613451565b509392505050565b60008135905061257481613894565b92915050565b600081359050612589816138ab565b92915050565b60008151905061259e816138ab565b92915050565b6000813590506125b3816138c2565b92915050565b6000813590506125c8816138d9565b92915050565b600082601f8301126125df57600080fd5b81356125ef848260208601612527565b91505092915050565b600081359050612607816138f0565b92915050565b60008151905061261c816138f0565b92915050565b60006020828403121561263457600080fd5b600061264284828501612565565b91505092915050565b6000806040838503121561265e57600080fd5b600061266c85828601612565565b925050602061267d8582860161257a565b9150509250929050565b60006020828403121561269957600080fd5b60006126a78482850161258f565b91505092915050565b6000602082840312156126c257600080fd5b60006126d0848285016125a4565b91505092915050565b600080604083850312156126ec57600080fd5b60006126fa858286016125a4565b925050602061270b85828601612565565b9150509250929050565b60006020828403121561272757600080fd5b6000612735848285016125b9565b91505092915050565b60006020828403121561275057600080fd5b600082013567ffffffffffffffff81111561276a57600080fd5b612776848285016125ce565b91505092915050565b6000806040838503121561279257600080fd5b600083013567ffffffffffffffff8111156127ac57600080fd5b6127b8858286016125ce565b925050602083013567ffffffffffffffff8111156127d557600080fd5b6127e1858286016125ce565b9150509250929050565b600080600080600080600080610100898b03121561280857600080fd5b600089013567ffffffffffffffff81111561282257600080fd5b61282e8b828c016125ce565b985050602089013567ffffffffffffffff81111561284b57600080fd5b6128578b828c016125ce565b975050604089013567ffffffffffffffff81111561287457600080fd5b6128808b828c016125ce565b96505060606128918b828c016125f8565b95505060806128a28b828c016125f8565b94505060a06128b38b828c016125f8565b93505060c06128c48b828c01612565565b92505060e06128d58b828c01612565565b9150509295985092959890939650565b600080600080608085870312156128fb57600080fd5b600085013567ffffffffffffffff81111561291557600080fd5b612921878288016125ce565b945050602085013567ffffffffffffffff81111561293e57600080fd5b61294a878288016125ce565b935050604061295b878288016125f8565b925050606061296c87828801612565565b91505092959194509250565b60008060006060848603121561298d57600080fd5b600084013567ffffffffffffffff8111156129a757600080fd5b6129b3868287016125ce565b93505060206129c4868287016125f8565b92505060406129d586828701612565565b9150509250925092565b6000602082840312156129f157600080fd5b60006129ff848285016125f8565b91505092915050565b600060208284031215612a1a57600080fd5b6000612a288482850161260d565b91505092915050565b612a3a81613390565b82525050565b612a49816133a2565b82525050565b612a58816133ae565b82525050565b612a678161341b565b82525050565b612a768161342d565b82525050565b612a858161343f565b82525050565b6000612a9682613254565b612aa0818561325f565b9350612ab0818560208601613460565b612ab98161357b565b840191505092915050565b6000612acf82613254565b612ad98185613270565b9350612ae9818560208601613460565b80840191505092915050565b6000612b0260208361325f565b9150612b0d8261358c565b602082019050919050565b6000612b2560268361325f565b9150612b30826135b5565b604082019050919050565b6000612b48600e8361325f565b9150612b5382613604565b602082019050919050565b6000612b6b60178361325f565b9150612b768261362d565b602082019050919050565b6000612b8e60208361325f565b9150612b9982613656565b602082019050919050565b6000612bb160188361325f565b9150612bbc8261367f565b602082019050919050565b6000612bd4600c8361325f565b9150612bdf826136a8565b602082019050919050565b6000612bf7601b8361325f565b9150612c02826136d1565b602082019050919050565b6000612c1a60148361325f565b9150612c25826136fa565b602082019050919050565b6000612c3d60008361325f565b9150612c4882613723565b600082019050919050565b6000612c6060128361325f565b9150612c6b82613726565b602082019050919050565b6000612c83600f8361325f565b9150612c8e8261374f565b602082019050919050565b6000612ca6601783613270565b9150612cb182613778565b601782019050919050565b6000612cc9600b8361325f565b9150612cd4826137a1565b602082019050919050565b6000612cec600c8361325f565b9150612cf7826137ca565b602082019050919050565b6000612d0f600e8361325f565b9150612d1a826137f3565b602082019050919050565b6000612d32601183613270565b9150612d3d8261381c565b601182019050919050565b6000612d55602f8361325f565b9150612d6082613845565b604082019050919050565b612d7481613404565b82525050565b6000612d868284612ac4565b915081905092915050565b6000612d9c82612c99565b9150612da88285612ac4565b9150612db382612d25565b9150612dbf8284612ac4565b91508190509392505050565b6000602082019050612de06000830184612a31565b92915050565b6000604082019050612dfb6000830185612a31565b612e086020830184612a31565b9392505050565b6000606082019050612e246000830186612a31565b612e316020830185612a31565b612e3e6040830184612d6b565b949350505050565b6000604082019050612e5b6000830185612a31565b612e686020830184612d6b565b9392505050565b6000602082019050612e846000830184612a40565b92915050565b6000602082019050612e9f6000830184612a4f565b92915050565b60006020820190508181036000830152612ebf8184612a8b565b905092915050565b60006060820190508181036000830152612ee18186612a8b565b90508181036020830152612ef58185612a8b565b9050612f046040830184612d6b565b949350505050565b60006080820190508181036000830152612f268187612a8b565b90508181036020830152612f3a8186612a8b565b9050612f496040830185612d6b565b612f566060830184612a6d565b95945050505050565b60006080820190508181036000830152612f798187612a8b565b90508181036020830152612f8d8186612a8b565b9050612f9c6040830185612d6b565b612fa96060830184612a7c565b95945050505050565b60006080820190508181036000830152612fcc8186612a8b565b90508181036020830152612fdf81612c30565b9050612fee6040830185612d6b565b612ffb6060830184612a5e565b949350505050565b6000602082019050818103600083015261301c81612af5565b9050919050565b6000602082019050818103600083015261303c81612b18565b9050919050565b6000602082019050818103600083015261305c81612b3b565b9050919050565b6000602082019050818103600083015261307c81612b5e565b9050919050565b6000602082019050818103600083015261309c81612b81565b9050919050565b600060208201905081810360008301526130bc81612ba4565b9050919050565b600060208201905081810360008301526130dc81612bc7565b9050919050565b600060208201905081810360008301526130fc81612bea565b9050919050565b6000602082019050818103600083015261311c81612c0d565b9050919050565b6000602082019050818103600083015261313c81612c53565b9050919050565b6000602082019050818103600083015261315c81612c76565b9050919050565b6000602082019050818103600083015261317c81612cbc565b9050919050565b6000602082019050818103600083015261319c81612cdf565b9050919050565b600060208201905081810360008301526131bc81612d02565b9050919050565b600060208201905081810360008301526131dc81612d48565b9050919050565b60006020820190506131f86000830184612d6b565b92915050565b6000613208613219565b905061321482826134bd565b919050565b6000604051905090565b600067ffffffffffffffff82111561323e5761323d61354c565b5b6132478261357b565b9050602081019050919050565b600081519050919050565b600082825260208201905092915050565b600081905092915050565b600061328682613404565b915061329183613404565b9250827fffffffffffffffffffffffffffffffffffffffffffffffffffffffffffffffff038211156132c6576132c56134ee565b5b828201905092915050565b60006132dc82613404565b91506132e783613404565b9250826132f7576132f661351d565b5b828204905092915050565b600061330d82613404565b915061331883613404565b9250817fffffffffffffffffffffffffffffffffffffffffffffffffffffffffffffffff0483118215151615613351576133506134ee565b5b828202905092915050565b600061336782613404565b915061337283613404565b925082821015613385576133846134ee565b5b828203905092915050565b600061339b826133e4565b9050919050565b60008115159050919050565b6000819050919050565b60007fffffffff0000000000000000000000000000000000000000000000000000000082169050919050565b600073ffffffffffffffffffffffffffffffffffffffff82169050919050565b6000819050919050565b600060ff82169050919050565b60006134268261340e565b9050919050565b60006134388261340e565b9050919050565b600061344a8261340e565b9050919050565b82818337600083830152505050565b60005b8381101561347e578082015181840152602081019050613463565b8381111561348d576000848401525b50505050565b600061349e82613404565b915060008214156134b2576134b16134ee565b5b600182039050919050565b6134c68261357b565b810181811067ffffffffffffffff821117156134e5576134e461354c565b5b80604052505050565b7f4e487b7100000000000000000000000000000000000000000000000000000000600052601160045260246000fd5b7f4e487b7100000000000000000000000000000000000000000000000000000000600052601260045260246000fd5b7f4e487b7100000000000000000000000000000000000000000000000000000000600052604160045260246000fd5b6000601f19601f8301169050919050565b7f537472696e67733a20686578206c656e67746820696e73756666696369656e74600082015250565b7f4f776e61626c653a206e6577206f776e657220697320746865207a65726f206160008201527f6464726573730000000000000000000000000000000000000000000000000000602082015250565b7f414d4f554e545f494e56414c4944000000000000000000000000000000000000600082015250565b7f504f4f4c5f4e4f545f454e4f5547485f42414c414e4345000000000000000000600082015250565b7f4f776e61626c653a2063616c6c6572206973206e6f7420746865206f776e6572600082015250565b7f746f75726e616d656e7420756964206e6f742076616c69640000000000000000600082015250565b7f5445414d5f494e56414c49440000000000000000000000000000000000000000600082015250565b7f746f6b656e2062616c616e6365206973206e6f7420656e6f7567680000000000600082015250565b7f6d75737420686176652061646d696e20726f6c65000000000000000000000000600082015250565b50565b7f42414c414e43455f4e4f545f454e4f5547480000000000000000000000000000600082015250565b7f414444524553535f494e56414c49440000000000000000000000000000000000600082015250565b7f416363657373436f6e74726f6c3a206163636f756e7420000000000000000000600082015250565b7f5549445f494e56414c4944000000000000000000000000000000000000000000600082015250565b7f4e4545445f415050524f56450000000000000000000000000000000000000000600082015250565b7f4e4f545f5045524d495353494f4e000000000000000000000000000000000000600082015250565b7f206973206d697373696e6720726f6c6520000000000000000000000000000000600082015250565b7f416363657373436f6e74726f6c3a2063616e206f6e6c792072656e6f756e636560008201527f20726f6c657320666f722073656c660000000000000000000000000000000000602082015250565b61389d81613390565b81146138a857600080fd5b50565b6138b4816133a2565b81146138bf57600080fd5b50565b6138cb816133ae565b81146138d657600080fd5b50565b6138e2816133b8565b81146138ed57600080fd5b50565b6138f981613404565b811461390457600080fd5b5056fea26469706673582212200bf4c615cb76de0df7f1dbb0208854905e7b0ed8983b02c7ef12024518e5d58c64736f6c63430008010033",
  "linkReferences": {},
  "deployedLinkReferences": {}
}