{
  "_format": "hh-sol-artifact-1",
  "contractName": "LDonate",
  "sourceName": "contracts/LDonate.sol",
  "abi": [
    {
      "inputs": [
        {
          "internalType": "uint256",
          "name": "_withdrawFee",
          "type": "uint256"
        },
        {
          "internalType": "address",
          "name": "_feeWallet",
          "type": "address"
        }
      ],
      "stateMutability": "nonpayable",
      "type": "constructor"
    },
    {
      "anonymous": false,
      "inputs": [
        {
          "indexed": false,
          "internalType": "string",
          "name": "poolUid",
          "type": "string"
        }
      ],
      "name": "ClaimPool",
      "type": "event"
    },
    {
      "anonymous": false,
      "inputs": [
        {
          "indexed": false,
          "internalType": "string",
          "name": "poolUid",
          "type": "string"
        }
      ],
      "name": "InitPool",
      "type": "event"
    },
    {
      "anonymous": false,
      "inputs": [
        {
          "indexed": true,
          "internalType": "address",
          "name": "previousOwner",
          "type": "address"
        },
        {
          "indexed": true,
          "internalType": "address",
          "name": "newOwner",
          "type": "address"
        }
      ],
      "name": "OwnershipTransferred",
      "type": "event"
    },
    {
      "anonymous": false,
      "inputs": [
        {
          "indexed": true,
          "internalType": "bytes32",
          "name": "role",
          "type": "bytes32"
        },
        {
          "indexed": true,
          "internalType": "bytes32",
          "name": "previousAdminRole",
          "type": "bytes32"
        },
        {
          "indexed": true,
          "internalType": "bytes32",
          "name": "newAdminRole",
          "type": "bytes32"
        }
      ],
      "name": "RoleAdminChanged",
      "type": "event"
    },
    {
      "anonymous": false,
      "inputs": [
        {
          "indexed": true,
          "internalType": "bytes32",
          "name": "role",
          "type": "bytes32"
        },
        {
          "indexed": true,
          "internalType": "address",
          "name": "account",
          "type": "address"
        },
        {
          "indexed": true,
          "internalType": "address",
          "name": "sender",
          "type": "address"
        }
      ],
      "name": "RoleGranted",
      "type": "event"
    },
    {
      "anonymous": false,
      "inputs": [
        {
          "indexed": true,
          "internalType": "bytes32",
          "name": "role",
          "type": "bytes32"
        },
        {
          "indexed": true,
          "internalType": "address",
          "name": "account",
          "type": "address"
        },
        {
          "indexed": true,
          "internalType": "address",
          "name": "sender",
          "type": "address"
        }
      ],
      "name": "RoleRevoked",
      "type": "event"
    },
    {
      "inputs": [],
      "name": "DEFAULT_ADMIN_ROLE",
      "outputs": [
        {
          "internalType": "bytes32",
          "name": "",
          "type": "bytes32"
        }
      ],
      "stateMutability": "view",
      "type": "function"
    },
    {
      "inputs": [],
      "name": "MINTER_ROLE",
      "outputs": [
        {
          "internalType": "bytes32",
          "name": "",
          "type": "bytes32"
        }
      ],
      "stateMutability": "view",
      "type": "function"
    },
    {
      "inputs": [
        {
          "internalType": "string",
          "name": "tournamentUid",
          "type": "string"
        },
        {
          "internalType": "string",
          "name": "teamUid",
          "type": "string"
        },
        {
          "internalType": "string",
          "name": "userId",
          "type": "string"
        },
        {
          "internalType": "uint256",
          "name": "tournamentAmount",
          "type": "uint256"
        },
        {
          "internalType": "uint256",
          "name": "teamAmount",
          "type": "uint256"
        },
        {
          "internalType": "uint256",
          "name": "userAmount",
          "type": "uint256"
        },
        {
          "internalType": "address",
          "name": "receiver",
          "type": "address"
        },
        {
          "internalType": "address",
          "name": "_paymentToken",
          "type": "address"
        }
      ],
      "name": "claim",
      "outputs": [],
      "stateMutability": "nonpayable",
      "type": "function"
    },
    {
      "inputs": [
        {
          "internalType": "string",
          "name": "tournamentUid",
          "type": "string"
        },
        {
          "internalType": "string",
          "name": "teamUid",
          "type": "string"
        },
        {
          "internalType": "uint256",
          "name": "amount",
          "type": "uint256"
        },
        {
          "internalType": "address",
          "name": "_paymentToken",
          "type": "address"
        }
      ],
      "name": "donateTeam",
      "outputs": [],
      "stateMutability": "nonpayable",
      "type": "function"
    },
    {
      "inputs": [
        {
          "internalType": "string",
          "name": "tournamentUid",
          "type": "string"
        },
        {
          "internalType": "uint256",
          "name": "amount",
          "type": "uint256"
        },
        {
          "internalType": "address",
          "name": "_paymentToken",
          "type": "address"
        }
      ],
      "name": "donateTournament",
      "outputs": [],
      "stateMutability": "nonpayable",
      "type": "function"
    },
    {
      "inputs": [
        {
          "internalType": "string",
          "name": "tournamentUid",
          "type": "string"
        },
        {
          "internalType": "string",
          "name": "userId",
          "type": "string"
        },
        {
          "internalType": "uint256",
          "name": "amount",
          "type": "uint256"
        },
        {
          "internalType": "address",
          "name": "_paymentToken",
          "type": "address"
        }
      ],
      "name": "donateUser",
      "outputs": [],
      "stateMutability": "nonpayable",
      "type": "function"
    },
    {
      "inputs": [
        {
          "internalType": "bytes32",
          "name": "role",
          "type": "bytes32"
        }
      ],
      "name": "getRoleAdmin",
      "outputs": [
        {
          "internalType": "bytes32",
          "name": "",
          "type": "bytes32"
        }
      ],
      "stateMutability": "view",
      "type": "function"
    },
    {
      "inputs": [
        {
          "internalType": "string",
          "name": "tournamentUid",
          "type": "string"
        },
        {
          "internalType": "string",
          "name": "teamUid",
          "type": "string"
        }
      ],
      "name": "getTeamPoolSize",
      "outputs": [
        {
          "internalType": "uint256",
          "name": "",
          "type": "uint256"
        }
      ],
      "stateMutability": "view",
      "type": "function"
    },
    {
      "inputs": [
        {
          "internalType": "string",
          "name": "tournamentUid",
          "type": "string"
        }
      ],
      "name": "getTournamentPoolSize",
      "outputs": [
        {
          "internalType": "uint256",
          "name": "",
          "type": "uint256"
        }
      ],
      "stateMutability": "view",
      "type": "function"
    },
    {
      "inputs": [
        {
          "internalType": "string",
          "name": "tournamentUid",
          "type": "string"
        },
        {
          "internalType": "string",
          "name": "userId",
          "type": "string"
        }
      ],
      "name": "getUserPoolSize",
      "outputs": [
        {
          "internalType": "uint256",
          "name": "",
          "type": "uint256"
        }
      ],
      "stateMutability": "view",
      "type": "function"
    },
    {
      "inputs": [
        {
          "internalType": "bytes32",
          "name": "role",
          "type": "bytes32"
        },
        {
          "internalType": "address",
          "name": "account",
          "type": "address"
        }
      ],
      "name": "grantRole",
      "outputs": [],
      "stateMutability": "nonpayable",
      "type": "function"
    },
    {
      "inputs": [
        {
          "internalType": "bytes32",
          "name": "role",
          "type": "bytes32"
        },
        {
          "internalType": "address",
          "name": "account",
          "type": "address"
        }
      ],
      "name": "hasRole",
      "outputs": [
        {
          "internalType": "bool",
          "name": "",
          "type": "bool"
        }
      ],
      "stateMutability": "view",
      "type": "function"
    },
    {
      "inputs": [],
      "name": "owner",
      "outputs": [
        {
          "internalType": "address",
          "name": "",
          "type": "address"
        }
      ],
      "stateMutability": "view",
      "type": "function"
    },
    {
      "inputs": [
        {
          "internalType": "address",
          "name": "receiver",
          "type": "address"
        },
        {
          "internalType": "uint256",
          "name": "amount",
          "type": "uint256"
        },
        {
          "internalType": "address",
          "name": "_paymentToken",
          "type": "address"
        }
      ],
      "name": "receiverClaim",
      "outputs": [],
      "stateMutability": "nonpayable",
      "type": "function"
    },
    {
      "inputs": [],
      "name": "renounceOwnership",
      "outputs": [],
      "stateMutability": "nonpayable",
      "type": "function"
    },
    {
      "inputs": [
        {
          "internalType": "bytes32",
          "name": "role",
          "type": "bytes32"
        },
        {
          "internalType": "address",
          "name": "account",
          "type": "address"
        }
      ],
      "name": "renounceRole",
      "outputs": [],
      "stateMutability": "nonpayable",
      "type": "function"
    },
    {
      "inputs": [
        {
          "internalType": "bytes32",
          "name": "role",
          "type": "bytes32"
        },
        {
          "internalType": "address",
          "name": "account",
          "type": "address"
        }
      ],
      "name": "revokeRole",
      "outputs": [],
      "stateMutability": "nonpayable",
      "type": "function"
    },
    {
      "inputs": [
        {
          "internalType": "bytes4",
          "name": "interfaceId",
          "type": "bytes4"
        }
      ],
      "name": "supportsInterface",
      "outputs": [
        {
          "internalType": "bool",
          "name": "",
          "type": "bool"
        }
      ],
      "stateMutability": "view",
      "type": "function"
    },
    {
      "inputs": [
        {
          "internalType": "address",
          "name": "newOwner",
          "type": "address"
        }
      ],
      "name": "transferOwnership",
      "outputs": [],
      "stateMutability": "nonpayable",
      "type": "function"
    }
  ],
  "bytecode": "0x60806040523480156200001157600080fd5b50604051620038c2380380620038c2833981810160405281019062000037919062000379565b620000576200004b6200010c60201b60201c565b6200011460201b60201c565b6200007b6000801b6200006f6200010c60201b60201c565b620001da60201b60201c565b620000bc7f9f2df0fed2c77648de5860a4cc508cd0818c85b8b8a1ab4ceeef8d981c8956a6620000b06200010c60201b60201c565b620001da60201b60201c565b8160058190555080600660006101000a81548173ffffffffffffffffffffffffffffffffffffffff021916908373ffffffffffffffffffffffffffffffffffffffff16021790555050506200042c565b600033905090565b6000600160009054906101000a900473ffffffffffffffffffffffffffffffffffffffff16905081600160006101000a81548173ffffffffffffffffffffffffffffffffffffffff021916908373ffffffffffffffffffffffffffffffffffffffff1602179055508173ffffffffffffffffffffffffffffffffffffffff168173ffffffffffffffffffffffffffffffffffffffff167f8be0079c531659141344cd1fd0a4f28419497f9722a3daafe3b4186f6b6457e060405160405180910390a35050565b620001ec8282620001f060201b60201c565b5050565b620002028282620002e160201b60201c565b620002dd57600160008084815260200190815260200160002060000160008373ffffffffffffffffffffffffffffffffffffffff1673ffffffffffffffffffffffffffffffffffffffff16815260200190815260200160002060006101000a81548160ff021916908315150217905550620002826200010c60201b60201c565b73ffffffffffffffffffffffffffffffffffffffff168173ffffffffffffffffffffffffffffffffffffffff16837f2f8788117e7eff1d82e926ec794901d17c78024a50270940304540a733656f0d60405160405180910390a45b5050565b600080600084815260200190815260200160002060000160008373ffffffffffffffffffffffffffffffffffffffff1673ffffffffffffffffffffffffffffffffffffffff16815260200190815260200160002060009054906101000a900460ff16905092915050565b6000815190506200035c81620003f8565b92915050565b600081519050620003738162000412565b92915050565b600080604083850312156200038d57600080fd5b60006200039d8582860162000362565b9250506020620003b0858286016200034b565b9150509250929050565b6000620003c782620003ce565b9050919050565b600073ffffffffffffffffffffffffffffffffffffffff82169050919050565b6000819050919050565b6200040381620003ba565b81146200040f57600080fd5b50565b6200041d81620003ee565b81146200042957600080fd5b50565b613486806200043c6000396000f3fe608060405234801561001057600080fd5b50600436106101215760003560e01c8063715018a6116100ad578063a217fddf11610071578063a217fddf14610316578063c56e85f114610334578063d539139314610350578063d547741f1461036e578063f2fde38b1461038a57610121565b8063715018a61461025e57806382e9d5c81461026857806389b6ce31146102985780638da5cb5b146102c857806391d14854146102e657610121565b8063248a9ca3116100f4578063248a9ca3146101aa5780632f2ff15d146101da57806336568abe146101f657806341f494e814610212578063686a78dd1461022e57610121565b806301fb7b741461012657806301ffc9a714610142578063133b55ed1461017257806323a79e4c1461018e575b600080fd5b610140600480360381019061013b919061237c565b6103a6565b005b61015c60048036038101906101579190612459565b610512565b6040516101699190612b3a565b60405180910390f35b61018c60048036038101906101879190612629565b610524565b005b6101a860048036038101906101a391906126bc565b6108d7565b005b6101c460048036038101906101bf91906123f4565b610c0d565b6040516101d19190612b55565b60405180910390f35b6101f460048036038101906101ef919061241d565b610c2c565b005b610210600480360381019061020b919061241d565b610c55565b005b61022c60048036038101906102279190612629565b610cd8565b005b610248600480360381019061024391906124c3565b611047565b6040516102559190612d72565b60405180910390f35b6102666110f5565b005b610282600480360381019061027d91906124c3565b61117d565b60405161028f9190612d72565b60405180910390f35b6102b260048036038101906102ad9190612482565b61122b565b6040516102bf9190612d72565b60405180910390f35b6102d06112bc565b6040516102dd9190612a96565b60405180910390f35b61030060048036038101906102fb919061241d565b6112e6565b60405161030d9190612b3a565b60405180910390f35b61031e611350565b60405161032b9190612b55565b60405180910390f35b61034e6004803603810190610349919061252f565b611357565b005b610358611a1e565b6040516103659190612b55565b60405180910390f35b6103886004803603810190610383919061241d565b611a42565b005b6103a4600480360381019061039f9190612353565b611a6b565b005b600081905060008173ffffffffffffffffffffffffffffffffffffffff166370a08231306040518263ffffffff1660e01b81526004016103e69190612a96565b60206040518083038186803b1580156103fe57600080fd5b505afa158015610412573d6000803e3d6000fd5b505050506040513d601f19601f820116820180604052508101906104369190612723565b90508381101561047b576040517f08c379a000000000000000000000000000000000000000000000000000000000815260040161047290612bd2565b60405180910390fd5b8173ffffffffffffffffffffffffffffffffffffffff166323b872dd3087876040518463ffffffff1660e01b81526004016104b893929190612ada565b602060405180830381600087803b1580156104d257600080fd5b505af11580156104e6573d6000803e3d6000fd5b505050506040513d601f19601f8201168201806040525081019061050a91906123cb565b505050505050565b600061051d82611b63565b9050919050565b600084511180156105365750602d8451105b610575576040517f08c379a000000000000000000000000000000000000000000000000000000000815260040161056c90612cd2565b60405180910390fd5b602d8351106105b9576040517f08c379a00000000000000000000000000000000000000000000000000000000081526004016105b090612d12565b60405180910390fd5b60008173ffffffffffffffffffffffffffffffffffffffff163b11610613576040517f08c379a000000000000000000000000000000000000000000000000000000000815260040161060a90612c72565b60405180910390fd5b600081905060008173ffffffffffffffffffffffffffffffffffffffff1663dd62ed3e33306040518363ffffffff1660e01b8152600401610655929190612ab1565b60206040518083038186803b15801561066d57600080fd5b505afa158015610681573d6000803e3d6000fd5b505050506040513d601f19601f820116820180604052508101906106a59190612723565b9050838110156106ea576040517f08c379a00000000000000000000000000000000000000000000000000000000081526004016106e190612c92565b60405180910390fd5b60008273ffffffffffffffffffffffffffffffffffffffff166370a08231336040518263ffffffff1660e01b81526004016107259190612a96565b60206040518083038186803b15801561073d57600080fd5b505afa158015610751573d6000803e3d6000fd5b505050506040513d601f19601f820116820180604052508101906107759190612723565b9050848110156107ba576040517f08c379a00000000000000000000000000000000000000000000000000000000081526004016107b190612cf2565b60405180910390fd5b8273ffffffffffffffffffffffffffffffffffffffff166323b872dd3330886040518463ffffffff1660e01b81526004016107f793929190612ada565b602060405180830381600087803b15801561081157600080fd5b505af1158015610825573d6000803e3d6000fd5b505050506040513d601f19601f8201168201806040525081019061084991906123cb565b508460038860405161085b9190612a45565b9081526020016040518091039020876040516108779190612a45565b9081526020016040518091039020546108909190612e0a565b6003886040516108a09190612a45565b9081526020016040518091039020876040516108bc9190612a45565b90815260200160405180910390208190555050505050505050565b600083511180156108e95750602d8351105b610928576040517f08c379a000000000000000000000000000000000000000000000000000000000815260040161091f90612cd2565b60405180910390fd5b60008173ffffffffffffffffffffffffffffffffffffffff163b11610982576040517f08c379a000000000000000000000000000000000000000000000000000000000815260040161097990612c72565b60405180910390fd5b600081905060008173ffffffffffffffffffffffffffffffffffffffff1663dd62ed3e33306040518363ffffffff1660e01b81526004016109c4929190612ab1565b60206040518083038186803b1580156109dc57600080fd5b505afa1580156109f0573d6000803e3d6000fd5b505050506040513d601f19601f82011682018060405250810190610a149190612723565b905083811015610a59576040517f08c379a0000000000000000000000000000000000000000000000000000000008152600401610a5090612c92565b60405180910390fd5b60008273ffffffffffffffffffffffffffffffffffffffff166370a08231336040518263ffffffff1660e01b8152600401610a949190612a96565b60206040518083038186803b158015610aac57600080fd5b505afa158015610ac0573d6000803e3d6000fd5b505050506040513d601f19601f82011682018060405250810190610ae49190612723565b905084811015610b29576040517f08c379a0000000000000000000000000000000000000000000000000000000008152600401610b2090612cf2565b60405180910390fd5b8273ffffffffffffffffffffffffffffffffffffffff166323b872dd3330886040518463ffffffff1660e01b8152600401610b6693929190612ada565b602060405180830381600087803b158015610b8057600080fd5b505af1158015610b94573d6000803e3d6000fd5b505050506040513d601f19601f82011682018060405250810190610bb891906123cb565b5084600287604051610bca9190612a45565b908152602001604051809103902054610be39190612e0a565b600287604051610bf39190612a45565b908152602001604051809103902081905550505050505050565b6000806000838152602001908152602001600020600101549050919050565b610c3582610c0d565b610c4681610c41611bdd565b611be5565b610c508383611c82565b505050565b610c5d611bdd565b73ffffffffffffffffffffffffffffffffffffffff168173ffffffffffffffffffffffffffffffffffffffff1614610cca576040517f08c379a0000000000000000000000000000000000000000000000000000000008152600401610cc190612d52565b60405180910390fd5b610cd48282611d62565b5050565b60008451118015610cea5750602d8451105b610d29576040517f08c379a0000000000000000000000000000000000000000000000000000000008152600401610d2090612cd2565b60405180910390fd5b60008173ffffffffffffffffffffffffffffffffffffffff163b11610d83576040517f08c379a0000000000000000000000000000000000000000000000000000000008152600401610d7a90612c72565b60405180910390fd5b600081905060008173ffffffffffffffffffffffffffffffffffffffff1663dd62ed3e33306040518363ffffffff1660e01b8152600401610dc5929190612ab1565b60206040518083038186803b158015610ddd57600080fd5b505afa158015610df1573d6000803e3d6000fd5b505050506040513d601f19601f82011682018060405250810190610e159190612723565b905083811015610e5a576040517f08c379a0000000000000000000000000000000000000000000000000000000008152600401610e5190612c92565b60405180910390fd5b60008273ffffffffffffffffffffffffffffffffffffffff166370a08231336040518263ffffffff1660e01b8152600401610e959190612a96565b60206040518083038186803b158015610ead57600080fd5b505afa158015610ec1573d6000803e3d6000fd5b505050506040513d601f19601f82011682018060405250810190610ee59190612723565b905084811015610f2a576040517f08c379a0000000000000000000000000000000000000000000000000000000008152600401610f2190612cf2565b60405180910390fd5b8273ffffffffffffffffffffffffffffffffffffffff166323b872dd3330886040518463ffffffff1660e01b8152600401610f6793929190612ada565b602060405180830381600087803b158015610f8157600080fd5b505af1158015610f95573d6000803e3d6000fd5b505050506040513d601f19601f82011682018060405250810190610fb991906123cb565b5084600488604051610fcb9190612a45565b908152602001604051809103902087604051610fe79190612a45565b9081526020016040518091039020546110009190612e0a565b6004886040516110109190612a45565b90815260200160405180910390208760405161102c9190612a45565b90815260200160405180910390208190555050505050505050565b60006110737f9f2df0fed2c77648de5860a4cc508cd0818c85b8b8a1ab4ceeef8d981c8956a6336112e6565b6110b2576040517f08c379a00000000000000000000000000000000000000000000000000000000081526004016110a990612c32565b60405180910390fd5b6004836040516110c29190612a45565b9081526020016040518091039020826040516110de9190612a45565b908152602001604051809103902054905092915050565b6110fd611bdd565b73ffffffffffffffffffffffffffffffffffffffff1661111b6112bc565b73ffffffffffffffffffffffffffffffffffffffff1614611171576040517f08c379a000000000000000000000000000000000000000000000000000000000815260040161116890612cb2565b60405180910390fd5b61117b6000611e43565b565b60006111a97f9f2df0fed2c77648de5860a4cc508cd0818c85b8b8a1ab4ceeef8d981c8956a6336112e6565b6111e8576040517f08c379a00000000000000000000000000000000000000000000000000000000081526004016111df90612c32565b60405180910390fd5b6003836040516111f89190612a45565b9081526020016040518091039020826040516112149190612a45565b908152602001604051809103902054905092915050565b60006112577f9f2df0fed2c77648de5860a4cc508cd0818c85b8b8a1ab4ceeef8d981c8956a6336112e6565b611296576040517f08c379a000000000000000000000000000000000000000000000000000000000815260040161128d90612c32565b60405180910390fd5b6002826040516112a69190612a45565b9081526020016040518091039020549050919050565b6000600160009054906101000a900473ffffffffffffffffffffffffffffffffffffffff16905090565b600080600084815260200190815260200160002060000160008373ffffffffffffffffffffffffffffffffffffffff1673ffffffffffffffffffffffffffffffffffffffff16815260200190815260200160002060009054906101000a900460ff16905092915050565b6000801b81565b6113817f9f2df0fed2c77648de5860a4cc508cd0818c85b8b8a1ab4ceeef8d981c8956a6336112e6565b6113c0576040517f08c379a00000000000000000000000000000000000000000000000000000000081526004016113b790612c32565b60405180910390fd5b6000851015611404576040517f08c379a00000000000000000000000000000000000000000000000000000000081526004016113fb90612b92565b60405180910390fd5b6000841015611448576040517f08c379a000000000000000000000000000000000000000000000000000000000815260040161143f90612bf2565b60405180910390fd5b600083101561148c576040517f08c379a000000000000000000000000000000000000000000000000000000000815260040161148390612c12565b60405180910390fd5b8460028960405161149d9190612a45565b90815260200160405180910390205410156114ed576040517f08c379a00000000000000000000000000000000000000000000000000000000081526004016114e490612d32565b60405180910390fd5b836003896040516114fe9190612a45565b90815260200160405180910390208860405161151a9190612a45565b908152602001604051809103902054101561156a576040517f08c379a000000000000000000000000000000000000000000000000000000000815260040161156190612d32565b60405180910390fd5b8260048960405161157b9190612a45565b9081526020016040518091039020876040516115979190612a45565b90815260200160405180910390205410156115e7576040517f08c379a00000000000000000000000000000000000000000000000000000000081526004016115de90612d32565b60405180910390fd5b60008385876115f69190612e0a565b6116009190612e0a565b905060008273ffffffffffffffffffffffffffffffffffffffff163b1161165c576040517f08c379a000000000000000000000000000000000000000000000000000000000815260040161165390612c72565b60405180910390fd5b600082905060008173ffffffffffffffffffffffffffffffffffffffff166370a08231306040518263ffffffff1660e01b815260040161169c9190612a96565b60206040518083038186803b1580156116b457600080fd5b505afa1580156116c8573d6000803e3d6000fd5b505050506040513d601f19601f820116820180604052508101906116ec9190612723565b905082811015611731576040517f08c379a000000000000000000000000000000000000000000000000000000000815260040161172890612cf2565b60405180910390fd5b60006064846005546117439190612e91565b61174d9190612e60565b90506000818561175d9190612eeb565b90508373ffffffffffffffffffffffffffffffffffffffff1663a9059cbb88836040518363ffffffff1660e01b815260040161179a929190612b11565b602060405180830381600087803b1580156117b457600080fd5b505af11580156117c8573d6000803e3d6000fd5b505050506040513d601f19601f820116820180604052508101906117ec91906123cb565b508373ffffffffffffffffffffffffffffffffffffffff1663a9059cbb600660009054906101000a900473ffffffffffffffffffffffffffffffffffffffff16846040518363ffffffff1660e01b815260040161184a929190612b11565b602060405180830381600087803b15801561186457600080fd5b505af1158015611878573d6000803e3d6000fd5b505050506040513d601f19601f8201168201806040525081019061189c91906123cb565b5060008a11156118f3578960028e6040516118b79190612a45565b9081526020016040518091039020546118d09190612eeb565b60028e6040516118e09190612a45565b9081526020016040518091039020819055505b6000891115611981578860038e60405161190d9190612a45565b90815260200160405180910390208d6040516119299190612a45565b9081526020016040518091039020546119429190612eeb565b60038e6040516119529190612a45565b90815260200160405180910390208d60405161196e9190612a45565b9081526020016040518091039020819055505b6000881115611a0f578760048e60405161199b9190612a45565b90815260200160405180910390208c6040516119b79190612a45565b9081526020016040518091039020546119d09190612eeb565b60048e6040516119e09190612a45565b90815260200160405180910390208c6040516119fc9190612a45565b9081526020016040518091039020819055505b50505050505050505050505050565b7f9f2df0fed2c77648de5860a4cc508cd0818c85b8b8a1ab4ceeef8d981c8956a681565b611a4b82610c0d565b611a5c81611a57611bdd565b611be5565b611a668383611d62565b505050565b611a73611bdd565b73ffffffffffffffffffffffffffffffffffffffff16611a916112bc565b73ffffffffffffffffffffffffffffffffffffffff1614611ae7576040517f08c379a0000000000000000000000000000000000000000000000000000000008152600401611ade90612cb2565b60405180910390fd5b600073ffffffffffffffffffffffffffffffffffffffff168173ffffffffffffffffffffffffffffffffffffffff161415611b57576040517f08c379a0000000000000000000000000000000000000000000000000000000008152600401611b4e90612c52565b60405180910390fd5b611b6081611e43565b50565b60007f7965db0b000000000000000000000000000000000000000000000000000000007bffffffffffffffffffffffffffffffffffffffffffffffffffffffff1916827bffffffffffffffffffffffffffffffffffffffffffffffffffffffff19161480611bd65750611bd582611f09565b5b9050919050565b600033905090565b611bef82826112e6565b611c7e57611c148173ffffffffffffffffffffffffffffffffffffffff166014611f73565b611c228360001c6020611f73565b604051602001611c33929190612a5c565b6040516020818303038152906040526040517f08c379a0000000000000000000000000000000000000000000000000000000008152600401611c759190612b70565b60405180910390fd5b5050565b611c8c82826112e6565b611d5e57600160008084815260200190815260200160002060000160008373ffffffffffffffffffffffffffffffffffffffff1673ffffffffffffffffffffffffffffffffffffffff16815260200190815260200160002060006101000a81548160ff021916908315150217905550611d03611bdd565b73ffffffffffffffffffffffffffffffffffffffff168173ffffffffffffffffffffffffffffffffffffffff16837f2f8788117e7eff1d82e926ec794901d17c78024a50270940304540a733656f0d60405160405180910390a45b5050565b611d6c82826112e6565b15611e3f57600080600084815260200190815260200160002060000160008373ffffffffffffffffffffffffffffffffffffffff1673ffffffffffffffffffffffffffffffffffffffff16815260200190815260200160002060006101000a81548160ff021916908315150217905550611de4611bdd565b73ffffffffffffffffffffffffffffffffffffffff168173ffffffffffffffffffffffffffffffffffffffff16837ff6391f5c32d9c69d2a47ea670b442974b53935d1edc7fd64eb21e047a839171b60405160405180910390a45b5050565b6000600160009054906101000a900473ffffffffffffffffffffffffffffffffffffffff16905081600160006101000a81548173ffffffffffffffffffffffffffffffffffffffff021916908373ffffffffffffffffffffffffffffffffffffffff1602179055508173ffffffffffffffffffffffffffffffffffffffff168173ffffffffffffffffffffffffffffffffffffffff167f8be0079c531659141344cd1fd0a4f28419497f9722a3daafe3b4186f6b6457e060405160405180910390a35050565b60007f01ffc9a7000000000000000000000000000000000000000000000000000000007bffffffffffffffffffffffffffffffffffffffffffffffffffffffff1916827bffffffffffffffffffffffffffffffffffffffffffffffffffffffff1916149050919050565b606060006002836002611f869190612e91565b611f909190612e0a565b67ffffffffffffffff811115611fcf577f4e487b7100000000000000000000000000000000000000000000000000000000600052604160045260246000fd5b6040519080825280601f01601f1916602001820160405280156120015781602001600182028036833780820191505090505b5090507f30000000000000000000000000000000000000000000000000000000000000008160008151811061205f577f4e487b7100000000000000000000000000000000000000000000000000000000600052603260045260246000fd5b60200101907effffffffffffffffffffffffffffffffffffffffffffffffffffffffffffff1916908160001a9053507f7800000000000000000000000000000000000000000000000000000000000000816001815181106120e9577f4e487b7100000000000000000000000000000000000000000000000000000000600052603260045260246000fd5b60200101907effffffffffffffffffffffffffffffffffffffffffffffffffffffffffffff1916908160001a905350600060018460026121299190612e91565b6121339190612e0a565b90505b600181111561221f577f3031323334353637383961626364656600000000000000000000000000000000600f86166010811061219b577f4e487b7100000000000000000000000000000000000000000000000000000000600052603260045260246000fd5b1a60f81b8282815181106121d8577f4e487b7100000000000000000000000000000000000000000000000000000000600052603260045260246000fd5b60200101907effffffffffffffffffffffffffffffffffffffffffffffffffffffffffffff1916908160001a905350600485901c94508061221890612fdf565b9050612136565b5060008414612263576040517f08c379a000000000000000000000000000000000000000000000000000000000815260040161225a90612bb2565b60405180910390fd5b8091505092915050565b600061228061227b84612db2565b612d8d565b90508281526020810184848401111561229857600080fd5b6122a3848285612f9d565b509392505050565b6000813590506122ba816133dd565b92915050565b6000815190506122cf816133f4565b92915050565b6000813590506122e48161340b565b92915050565b6000813590506122f981613422565b92915050565b600082601f83011261231057600080fd5b813561232084826020860161226d565b91505092915050565b60008135905061233881613439565b92915050565b60008151905061234d81613439565b92915050565b60006020828403121561236557600080fd5b6000612373848285016122ab565b91505092915050565b60008060006060848603121561239157600080fd5b600061239f868287016122ab565b93505060206123b086828701612329565b92505060406123c1868287016122ab565b9150509250925092565b6000602082840312156123dd57600080fd5b60006123eb848285016122c0565b91505092915050565b60006020828403121561240657600080fd5b6000612414848285016122d5565b91505092915050565b6000806040838503121561243057600080fd5b600061243e858286016122d5565b925050602061244f858286016122ab565b9150509250929050565b60006020828403121561246b57600080fd5b6000612479848285016122ea565b91505092915050565b60006020828403121561249457600080fd5b600082013567ffffffffffffffff8111156124ae57600080fd5b6124ba848285016122ff565b91505092915050565b600080604083850312156124d657600080fd5b600083013567ffffffffffffffff8111156124f057600080fd5b6124fc858286016122ff565b925050602083013567ffffffffffffffff81111561251957600080fd5b612525858286016122ff565b9150509250929050565b600080600080600080600080610100898b03121561254c57600080fd5b600089013567ffffffffffffffff81111561256657600080fd5b6125728b828c016122ff565b985050602089013567ffffffffffffffff81111561258f57600080fd5b61259b8b828c016122ff565b975050604089013567ffffffffffffffff8111156125b857600080fd5b6125c48b828c016122ff565b96505060606125d58b828c01612329565b95505060806125e68b828c01612329565b94505060a06125f78b828c01612329565b93505060c06126088b828c016122ab565b92505060e06126198b828c016122ab565b9150509295985092959890939650565b6000806000806080858703121561263f57600080fd5b600085013567ffffffffffffffff81111561265957600080fd5b612665878288016122ff565b945050602085013567ffffffffffffffff81111561268257600080fd5b61268e878288016122ff565b935050604061269f87828801612329565b92505060606126b0878288016122ab565b91505092959194509250565b6000806000606084860312156126d157600080fd5b600084013567ffffffffffffffff8111156126eb57600080fd5b6126f7868287016122ff565b935050602061270886828701612329565b9250506040612719868287016122ab565b9150509250925092565b60006020828403121561273557600080fd5b60006127438482850161233e565b91505092915050565b61275581612f1f565b82525050565b61276481612f31565b82525050565b61277381612f3d565b82525050565b600061278482612de3565b61278e8185612dee565b935061279e818560208601612fac565b6127a7816130c7565b840191505092915050565b60006127bd82612de3565b6127c78185612dff565b93506127d7818560208601612fac565b80840191505092915050565b60006127f0601b83612dee565b91506127fb826130d8565b602082019050919050565b6000612813602083612dee565b915061281e82613101565b602082019050919050565b6000612836601283612dee565b91506128418261312a565b602082019050919050565b6000612859601583612dee565b915061286482613153565b602082019050919050565b600061287c601583612dee565b91506128878261317c565b602082019050919050565b600061289f601583612dee565b91506128aa826131a5565b602082019050919050565b60006128c2602683612dee565b91506128cd826131ce565b604082019050919050565b60006128e5601d83612dee565b91506128f08261321d565b602082019050919050565b6000612908601783612dee565b915061291382613246565b602082019050919050565b600061292b602083612dee565b91506129368261326f565b602082019050919050565b600061294e601883612dee565b915061295982613298565b602082019050919050565b6000612971601b83612dee565b915061297c826132c1565b602082019050919050565b6000612994600c83612dee565b915061299f826132ea565b602082019050919050565b60006129b7601783612dff565b91506129c282613313565b601782019050919050565b60006129da601783612dee565b91506129e58261333c565b602082019050919050565b60006129fd601183612dff565b9150612a0882613365565b601182019050919050565b6000612a20602f83612dee565b9150612a2b8261338e565b604082019050919050565b612a3f81612f93565b82525050565b6000612a5182846127b2565b915081905092915050565b6000612a67826129aa565b9150612a7382856127b2565b9150612a7e826129f0565b9150612a8a82846127b2565b91508190509392505050565b6000602082019050612aab600083018461274c565b92915050565b6000604082019050612ac6600083018561274c565b612ad3602083018461274c565b9392505050565b6000606082019050612aef600083018661274c565b612afc602083018561274c565b612b096040830184612a36565b949350505050565b6000604082019050612b26600083018561274c565b612b336020830184612a36565b9392505050565b6000602082019050612b4f600083018461275b565b92915050565b6000602082019050612b6a600083018461276a565b92915050565b60006020820190508181036000830152612b8a8184612779565b905092915050565b60006020820190508181036000830152612bab816127e3565b9050919050565b60006020820190508181036000830152612bcb81612806565b9050919050565b60006020820190508181036000830152612beb81612829565b9050919050565b60006020820190508181036000830152612c0b8161284c565b9050919050565b60006020820190508181036000830152612c2b8161286f565b9050919050565b60006020820190508181036000830152612c4b81612892565b9050919050565b60006020820190508181036000830152612c6b816128b5565b9050919050565b60006020820190508181036000830152612c8b816128d8565b9050919050565b60006020820190508181036000830152612cab816128fb565b9050919050565b60006020820190508181036000830152612ccb8161291e565b9050919050565b60006020820190508181036000830152612ceb81612941565b9050919050565b60006020820190508181036000830152612d0b81612964565b9050919050565b60006020820190508181036000830152612d2b81612987565b9050919050565b60006020820190508181036000830152612d4b816129cd565b9050919050565b60006020820190508181036000830152612d6b81612a13565b9050919050565b6000602082019050612d876000830184612a36565b92915050565b6000612d97612da8565b9050612da38282613009565b919050565b6000604051905090565b600067ffffffffffffffff821115612dcd57612dcc613098565b5b612dd6826130c7565b9050602081019050919050565b600081519050919050565b600082825260208201905092915050565b600081905092915050565b6000612e1582612f93565b9150612e2083612f93565b9250827fffffffffffffffffffffffffffffffffffffffffffffffffffffffffffffffff03821115612e5557612e5461303a565b5b828201905092915050565b6000612e6b82612f93565b9150612e7683612f93565b925082612e8657612e85613069565b5b828204905092915050565b6000612e9c82612f93565b9150612ea783612f93565b9250817fffffffffffffffffffffffffffffffffffffffffffffffffffffffffffffffff0483118215151615612ee057612edf61303a565b5b828202905092915050565b6000612ef682612f93565b9150612f0183612f93565b925082821015612f1457612f1361303a565b5b828203905092915050565b6000612f2a82612f73565b9050919050565b60008115159050919050565b6000819050919050565b60007fffffffff0000000000000000000000000000000000000000000000000000000082169050919050565b600073ffffffffffffffffffffffffffffffffffffffff82169050919050565b6000819050919050565b82818337600083830152505050565b60005b83811015612fca578082015181840152602081019050612faf565b83811115612fd9576000848401525b50505050565b6000612fea82612f93565b91506000821415612ffe57612ffd61303a565b5b600182039050919050565b613012826130c7565b810181811067ffffffffffffffff8211171561303157613030613098565b5b80604052505050565b7f4e487b7100000000000000000000000000000000000000000000000000000000600052601160045260246000fd5b7f4e487b7100000000000000000000000000000000000000000000000000000000600052601260045260246000fd5b7f4e487b7100000000000000000000000000000000000000000000000000000000600052604160045260246000fd5b6000601f19601f8301169050919050565b7f746f75726e616d656e7420616d6f756e74206e6f742076616c69640000000000600082015250565b7f537472696e67733a20686578206c656e67746820696e73756666696369656e74600082015250565b7f62616c616e6365206e6f7420656e6f7567680000000000000000000000000000600082015250565b7f7465616d20616d6f756e74206e6f742076616c69640000000000000000000000600082015250565b7f7573657220616d6f756e74206e6f742076616c69640000000000000000000000600082015250565b7f6d7573742068617665206d696e74657220726f6c650000000000000000000000600082015250565b7f4f776e61626c653a206e6577206f776e657220697320746865207a65726f206160008201527f6464726573730000000000000000000000000000000000000000000000000000602082015250565b7f7061796d656e7420746f6b656e206164647265737320696e76616c6964000000600082015250565b7f616c6c6f77616e6365206973206e6f7420656e6f756768000000000000000000600082015250565b7f4f776e61626c653a2063616c6c6572206973206e6f7420746865206f776e6572600082015250565b7f746f75726e616d656e7420756964206e6f742076616c69640000000000000000600082015250565b7f746f6b656e2062616c616e6365206973206e6f7420656e6f7567680000000000600082015250565b7f7465616d20696e76616c69640000000000000000000000000000000000000000600082015250565b7f416363657373436f6e74726f6c3a206163636f756e7420000000000000000000600082015250565b7f706f6f6c206e6f7420656e6f7567682062616c616e6365000000000000000000600082015250565b7f206973206d697373696e6720726f6c6520000000000000000000000000000000600082015250565b7f416363657373436f6e74726f6c3a2063616e206f6e6c792072656e6f756e636560008201527f20726f6c657320666f722073656c660000000000000000000000000000000000602082015250565b6133e681612f1f565b81146133f157600080fd5b50565b6133fd81612f31565b811461340857600080fd5b50565b61341481612f3d565b811461341f57600080fd5b50565b61342b81612f47565b811461343657600080fd5b50565b61344281612f93565b811461344d57600080fd5b5056fea2646970667358221220a146c920d65fd9a75d49b3c0af5f159d1e9991e124bff48f27c83eeeb0d2c37964736f6c63430008010033",
  "linkReferences": {},
  "deployedLinkReferences": {}
}