{
  "_format": "hh-sol-artifact-1",
  "contractName": "LDonate",
  "sourceName": "contracts/LDonate.sol",
  "abi": [
    {
      "inputs": [
        {
          "internalType": "uint256",
          "name": "_withdrawFee",
          "type": "uint256"
        },
        {
          "internalType": "address",
          "name": "_feeWallet",
          "type": "address"
        }
      ],
      "stateMutability": "nonpayable",
      "type": "constructor"
    },
    {
      "anonymous": false,
      "inputs": [
        {
          "indexed": false,
          "internalType": "string",
          "name": "tournamentUid",
          "type": "string"
        },
        {
          "indexed": false,
          "internalType": "string",
          "name": "userId",
          "type": "string"
        },
        {
          "indexed": false,
          "internalType": "uint256",
          "name": "amount",
          "type": "uint256"
        }
      ],
      "name": "ClaimDonate",
      "type": "event"
    },
    {
      "anonymous": false,
      "inputs": [
        {
          "indexed": false,
          "internalType": "string",
          "name": "tournamentUid",
          "type": "string"
        },
        {
          "indexed": false,
          "internalType": "string",
          "name": "targetUid",
          "type": "string"
        },
        {
          "indexed": false,
          "internalType": "uint256",
          "name": "amount",
          "type": "uint256"
        },
        {
          "indexed": false,
          "internalType": "uint8",
          "name": "donate_type",
          "type": "uint8"
        }
      ],
      "name": "Donate",
      "type": "event"
    },
    {
      "anonymous": false,
      "inputs": [
        {
          "indexed": true,
          "internalType": "address",
          "name": "previousOwner",
          "type": "address"
        },
        {
          "indexed": true,
          "internalType": "address",
          "name": "newOwner",
          "type": "address"
        }
      ],
      "name": "OwnershipTransferred",
      "type": "event"
    },
    {
      "anonymous": false,
      "inputs": [
        {
          "indexed": true,
          "internalType": "bytes32",
          "name": "role",
          "type": "bytes32"
        },
        {
          "indexed": true,
          "internalType": "bytes32",
          "name": "previousAdminRole",
          "type": "bytes32"
        },
        {
          "indexed": true,
          "internalType": "bytes32",
          "name": "newAdminRole",
          "type": "bytes32"
        }
      ],
      "name": "RoleAdminChanged",
      "type": "event"
    },
    {
      "anonymous": false,
      "inputs": [
        {
          "indexed": true,
          "internalType": "bytes32",
          "name": "role",
          "type": "bytes32"
        },
        {
          "indexed": true,
          "internalType": "address",
          "name": "account",
          "type": "address"
        },
        {
          "indexed": true,
          "internalType": "address",
          "name": "sender",
          "type": "address"
        }
      ],
      "name": "RoleGranted",
      "type": "event"
    },
    {
      "anonymous": false,
      "inputs": [
        {
          "indexed": true,
          "internalType": "bytes32",
          "name": "role",
          "type": "bytes32"
        },
        {
          "indexed": true,
          "internalType": "address",
          "name": "account",
          "type": "address"
        },
        {
          "indexed": true,
          "internalType": "address",
          "name": "sender",
          "type": "address"
        }
      ],
      "name": "RoleRevoked",
      "type": "event"
    },
    {
      "inputs": [],
      "name": "DEFAULT_ADMIN_ROLE",
      "outputs": [
        {
          "internalType": "bytes32",
          "name": "",
          "type": "bytes32"
        }
      ],
      "stateMutability": "view",
      "type": "function"
    },
    {
      "inputs": [],
      "name": "MINTER_ROLE",
      "outputs": [
        {
          "internalType": "bytes32",
          "name": "",
          "type": "bytes32"
        }
      ],
      "stateMutability": "view",
      "type": "function"
    },
    {
      "inputs": [
        {
          "internalType": "string",
          "name": "tournamentUid",
          "type": "string"
        },
        {
          "internalType": "string",
          "name": "teamUid",
          "type": "string"
        },
        {
          "internalType": "string",
          "name": "userId",
          "type": "string"
        },
        {
          "internalType": "uint256",
          "name": "tournamentAmount",
          "type": "uint256"
        },
        {
          "internalType": "uint256",
          "name": "teamAmount",
          "type": "uint256"
        },
        {
          "internalType": "uint256",
          "name": "userAmount",
          "type": "uint256"
        },
        {
          "internalType": "address",
          "name": "receiver",
          "type": "address"
        },
        {
          "internalType": "address",
          "name": "_paymentToken",
          "type": "address"
        }
      ],
      "name": "claim",
      "outputs": [],
      "stateMutability": "nonpayable",
      "type": "function"
    },
    {
      "inputs": [
        {
          "internalType": "string",
          "name": "tournamentUid",
          "type": "string"
        },
        {
          "internalType": "string",
          "name": "teamUid",
          "type": "string"
        },
        {
          "internalType": "uint256",
          "name": "amount",
          "type": "uint256"
        },
        {
          "internalType": "address",
          "name": "_paymentToken",
          "type": "address"
        }
      ],
      "name": "donateTeam",
      "outputs": [],
      "stateMutability": "nonpayable",
      "type": "function"
    },
    {
      "inputs": [
        {
          "internalType": "string",
          "name": "tournamentUid",
          "type": "string"
        },
        {
          "internalType": "uint256",
          "name": "amount",
          "type": "uint256"
        },
        {
          "internalType": "address",
          "name": "_paymentToken",
          "type": "address"
        }
      ],
      "name": "donateTournament",
      "outputs": [],
      "stateMutability": "nonpayable",
      "type": "function"
    },
    {
      "inputs": [
        {
          "internalType": "string",
          "name": "tournamentUid",
          "type": "string"
        },
        {
          "internalType": "string",
          "name": "userId",
          "type": "string"
        },
        {
          "internalType": "uint256",
          "name": "amount",
          "type": "uint256"
        },
        {
          "internalType": "address",
          "name": "_paymentToken",
          "type": "address"
        }
      ],
      "name": "donateUser",
      "outputs": [],
      "stateMutability": "nonpayable",
      "type": "function"
    },
    {
      "inputs": [
        {
          "internalType": "bytes32",
          "name": "role",
          "type": "bytes32"
        }
      ],
      "name": "getRoleAdmin",
      "outputs": [
        {
          "internalType": "bytes32",
          "name": "",
          "type": "bytes32"
        }
      ],
      "stateMutability": "view",
      "type": "function"
    },
    {
      "inputs": [
        {
          "internalType": "string",
          "name": "tournamentUid",
          "type": "string"
        },
        {
          "internalType": "string",
          "name": "teamUid",
          "type": "string"
        }
      ],
      "name": "getTeamPoolSize",
      "outputs": [
        {
          "internalType": "uint256",
          "name": "",
          "type": "uint256"
        }
      ],
      "stateMutability": "view",
      "type": "function"
    },
    {
      "inputs": [
        {
          "internalType": "string",
          "name": "tournamentUid",
          "type": "string"
        }
      ],
      "name": "getTournamentPoolSize",
      "outputs": [
        {
          "internalType": "uint256",
          "name": "",
          "type": "uint256"
        }
      ],
      "stateMutability": "view",
      "type": "function"
    },
    {
      "inputs": [
        {
          "internalType": "string",
          "name": "tournamentUid",
          "type": "string"
        },
        {
          "internalType": "string",
          "name": "userId",
          "type": "string"
        }
      ],
      "name": "getUserPoolSize",
      "outputs": [
        {
          "internalType": "uint256",
          "name": "",
          "type": "uint256"
        }
      ],
      "stateMutability": "view",
      "type": "function"
    },
    {
      "inputs": [
        {
          "internalType": "bytes32",
          "name": "role",
          "type": "bytes32"
        },
        {
          "internalType": "address",
          "name": "account",
          "type": "address"
        }
      ],
      "name": "grantRole",
      "outputs": [],
      "stateMutability": "nonpayable",
      "type": "function"
    },
    {
      "inputs": [
        {
          "internalType": "bytes32",
          "name": "role",
          "type": "bytes32"
        },
        {
          "internalType": "address",
          "name": "account",
          "type": "address"
        }
      ],
      "name": "hasRole",
      "outputs": [
        {
          "internalType": "bool",
          "name": "",
          "type": "bool"
        }
      ],
      "stateMutability": "view",
      "type": "function"
    },
    {
      "inputs": [],
      "name": "owner",
      "outputs": [
        {
          "internalType": "address",
          "name": "",
          "type": "address"
        }
      ],
      "stateMutability": "view",
      "type": "function"
    },
    {
      "inputs": [
        {
          "internalType": "address",
          "name": "receiver",
          "type": "address"
        },
        {
          "internalType": "uint256",
          "name": "amount",
          "type": "uint256"
        },
        {
          "internalType": "address",
          "name": "_paymentToken",
          "type": "address"
        }
      ],
      "name": "receiverClaim",
      "outputs": [],
      "stateMutability": "nonpayable",
      "type": "function"
    },
    {
      "inputs": [],
      "name": "renounceOwnership",
      "outputs": [],
      "stateMutability": "nonpayable",
      "type": "function"
    },
    {
      "inputs": [
        {
          "internalType": "bytes32",
          "name": "role",
          "type": "bytes32"
        },
        {
          "internalType": "address",
          "name": "account",
          "type": "address"
        }
      ],
      "name": "renounceRole",
      "outputs": [],
      "stateMutability": "nonpayable",
      "type": "function"
    },
    {
      "inputs": [
        {
          "internalType": "bytes32",
          "name": "role",
          "type": "bytes32"
        },
        {
          "internalType": "address",
          "name": "account",
          "type": "address"
        }
      ],
      "name": "revokeRole",
      "outputs": [],
      "stateMutability": "nonpayable",
      "type": "function"
    },
    {
      "inputs": [
        {
          "internalType": "address",
          "name": "account",
          "type": "address"
        },
        {
          "internalType": "bool",
          "name": "_enable",
          "type": "bool"
        }
      ],
      "name": "setupMinterRole",
      "outputs": [],
      "stateMutability": "nonpayable",
      "type": "function"
    },
    {
      "inputs": [
        {
          "internalType": "bytes4",
          "name": "interfaceId",
          "type": "bytes4"
        }
      ],
      "name": "supportsInterface",
      "outputs": [
        {
          "internalType": "bool",
          "name": "",
          "type": "bool"
        }
      ],
      "stateMutability": "view",
      "type": "function"
    },
    {
      "inputs": [
        {
          "internalType": "address",
          "name": "newOwner",
          "type": "address"
        }
      ],
      "name": "transferOwnership",
      "outputs": [],
      "stateMutability": "nonpayable",
      "type": "function"
    },
    {
      "inputs": [
        {
          "internalType": "uint256",
          "name": "_withdrawFee",
          "type": "uint256"
        }
      ],
      "name": "updateFee",
      "outputs": [],
      "stateMutability": "nonpayable",
      "type": "function"
    }
  ],
  "bytecode": "0x60806040523480156200001157600080fd5b506040516200437338038062004373833981810160405281019062000037919062000432565b620000576200004b620001c560201b60201c565b620001cd60201b60201c565b6200007b6000801b6200006f620001c560201b60201c565b6200029360201b60201c565b620000bc7f9f2df0fed2c77648de5860a4cc508cd0818c85b8b8a1ab4ceeef8d981c8956a6620000b0620001c560201b60201c565b6200029360201b60201c565b600073ffffffffffffffffffffffffffffffffffffffff168173ffffffffffffffffffffffffffffffffffffffff1614156200012f576040517f08c379a00000000000000000000000000000000000000000000000000000000081526004016200012690620004e3565b60405180910390fd5b6064821062000175576040517f08c379a00000000000000000000000000000000000000000000000000000000081526004016200016c90620004c1565b60405180910390fd5b8160058190555080600660006101000a81548173ffffffffffffffffffffffffffffffffffffffff021916908373ffffffffffffffffffffffffffffffffffffffff1602179055505050620005da565b600033905090565b6000600160009054906101000a900473ffffffffffffffffffffffffffffffffffffffff16905081600160006101000a81548173ffffffffffffffffffffffffffffffffffffffff021916908373ffffffffffffffffffffffffffffffffffffffff1602179055508173ffffffffffffffffffffffffffffffffffffffff168173ffffffffffffffffffffffffffffffffffffffff167f8be0079c531659141344cd1fd0a4f28419497f9722a3daafe3b4186f6b6457e060405160405180910390a35050565b620002a58282620002a960201b60201c565b5050565b620002bb82826200039a60201b60201c565b6200039657600160008084815260200190815260200160002060000160008373ffffffffffffffffffffffffffffffffffffffff1673ffffffffffffffffffffffffffffffffffffffff16815260200190815260200160002060006101000a81548160ff0219169083151502179055506200033b620001c560201b60201c565b73ffffffffffffffffffffffffffffffffffffffff168173ffffffffffffffffffffffffffffffffffffffff16837f2f8788117e7eff1d82e926ec794901d17c78024a50270940304540a733656f0d60405160405180910390a45b5050565b600080600084815260200190815260200160002060000160008373ffffffffffffffffffffffffffffffffffffffff1673ffffffffffffffffffffffffffffffffffffffff16815260200190815260200160002060009054906101000a900460ff16905092915050565b6000815190506200041581620005a6565b92915050565b6000815190506200042c81620005c0565b92915050565b600080604083850312156200044657600080fd5b600062000456858286016200041b565b9250506020620004698582860162000404565b9150509250929050565b60006200048260148362000505565b91506200048f8262000554565b602082019050919050565b6000620004a960168362000505565b9150620004b6826200057d565b602082019050919050565b60006020820190508181036000830152620004dc8162000473565b9050919050565b60006020820190508181036000830152620004fe816200049a565b9050919050565b600082825260208201905092915050565b600062000523826200052a565b9050919050565b600073ffffffffffffffffffffffffffffffffffffffff82169050919050565b6000819050919050565b7f46656520636f6e666967206e6f742076616c6964000000000000000000000000600082015250565b7f63616e277420757365207a65726f206164647265737300000000000000000000600082015250565b620005b18162000516565b8114620005bd57600080fd5b50565b620005cb816200054a565b8114620005d757600080fd5b50565b613d8980620005ea6000396000f3fe608060405234801561001057600080fd5b50600436106101375760003560e01c8063715018a6116100b857806391d148541161007c57806391d1485414610334578063a217fddf14610364578063c56e85f114610382578063d53913931461039e578063d547741f146103bc578063f2fde38b146103d857610137565b8063715018a61461029057806382e9d5c81461029a57806389b6ce31146102ca5780638da5cb5b146102fa5780639012c4a81461031857610137565b80632592d9ef116100ff5780632592d9ef146101f05780632f2ff15d1461020c57806336568abe1461022857806341f494e814610244578063686a78dd1461026057610137565b806301fb7b741461013c57806301ffc9a714610158578063133b55ed1461018857806323a79e4c146101a4578063248a9ca3146101c0575b600080fd5b61015660048036038101906101519190612940565b6103f4565b005b610172600480360381019061016d9190612a1d565b6105d0565b60405161017f91906131e0565b60405180910390f35b6101a2600480360381019061019d9190612bed565b6105e2565b005b6101be60048036038101906101b99190612c80565b610a43565b005b6101da60048036038101906101d591906129b8565b610e25565b6040516101e791906131fb565b60405180910390f35b61020a60048036038101906102059190612904565b610e44565b005b610226600480360381019061022191906129e1565b610f6b565b005b610242600480360381019061023d91906129e1565b610f94565b005b61025e60048036038101906102599190612bed565b611017565b005b61027a60048036038101906102759190612a87565b611434565b60405161028791906135b4565b60405180910390f35b6102986114e2565b005b6102b460048036038101906102af9190612a87565b61156a565b6040516102c191906135b4565b60405180910390f35b6102e460048036038101906102df9190612a46565b611618565b6040516102f191906135b4565b60405180910390f35b6103026116a9565b60405161030f919061313c565b60405180910390f35b610332600480360381019061032d9190612ce7565b6116d3565b005b61034e600480360381019061034991906129e1565b611730565b60405161035b91906131e0565b60405180910390f35b61036c61179a565b60405161037991906131fb565b60405180910390f35b61039c60048036038101906103979190612af3565b6117a1565b005b6103a6611f83565b6040516103b391906131fb565b60405180910390f35b6103d660048036038101906103d191906129e1565b611fa7565b005b6103f260048036038101906103ed91906128db565b611fd0565b005b600073ffffffffffffffffffffffffffffffffffffffff168173ffffffffffffffffffffffffffffffffffffffff161415610464576040517f08c379a000000000000000000000000000000000000000000000000000000000815260040161045b90613534565b60405180910390fd5b600081905060008173ffffffffffffffffffffffffffffffffffffffff166370a08231306040518263ffffffff1660e01b81526004016104a4919061313c565b60206040518083038186803b1580156104bc57600080fd5b505afa1580156104d0573d6000803e3d6000fd5b505050506040513d601f19601f820116820180604052508101906104f49190612d10565b905083811015610539576040517f08c379a0000000000000000000000000000000000000000000000000000000008152600401610530906133b4565b60405180910390fd5b8173ffffffffffffffffffffffffffffffffffffffff166323b872dd3087876040518463ffffffff1660e01b815260040161057693929190613180565b602060405180830381600087803b15801561059057600080fd5b505af11580156105a4573d6000803e3d6000fd5b505050506040513d601f19601f820116820180604052508101906105c8919061298f565b505050505050565b60006105db826120c8565b9050919050565b600073ffffffffffffffffffffffffffffffffffffffff168173ffffffffffffffffffffffffffffffffffffffff161415610652576040517f08c379a000000000000000000000000000000000000000000000000000000000815260040161064990613534565b60405180910390fd5b600084511180156106645750602d8451105b6106a3576040517f08c379a000000000000000000000000000000000000000000000000000000000815260040161069a906134d4565b60405180910390fd5b602d8351106106e7576040517f08c379a00000000000000000000000000000000000000000000000000000000081526004016106de90613554565b60405180910390fd5b60008173ffffffffffffffffffffffffffffffffffffffff163b11610741576040517f08c379a000000000000000000000000000000000000000000000000000000000815260040161073890613454565b60405180910390fd5b600081905060008173ffffffffffffffffffffffffffffffffffffffff1663dd62ed3e33306040518363ffffffff1660e01b8152600401610783929190613157565b60206040518083038186803b15801561079b57600080fd5b505afa1580156107af573d6000803e3d6000fd5b505050506040513d601f19601f820116820180604052508101906107d39190612d10565b905083811015610818576040517f08c379a000000000000000000000000000000000000000000000000000000000815260040161080f90613474565b60405180910390fd5b60008273ffffffffffffffffffffffffffffffffffffffff166370a08231336040518263ffffffff1660e01b8152600401610853919061313c565b60206040518083038186803b15801561086b57600080fd5b505afa15801561087f573d6000803e3d6000fd5b505050506040513d601f19601f820116820180604052508101906108a39190612d10565b9050848110156108e8576040517f08c379a00000000000000000000000000000000000000000000000000000000081526004016108df906134f4565b60405180910390fd5b8273ffffffffffffffffffffffffffffffffffffffff166323b872dd3330886040518463ffffffff1660e01b815260040161092593929190613180565b602060405180830381600087803b15801561093f57600080fd5b505af1158015610953573d6000803e3d6000fd5b505050506040513d601f19601f82011682018060405250810190610977919061298f565b508460038860405161098991906130eb565b9081526020016040518091039020876040516109a591906130eb565b9081526020016040518091039020546109be919061364c565b6003886040516109ce91906130eb565b9081526020016040518091039020876040516109ea91906130eb565b9081526020016040518091039020819055507fae62783bc0598246ffea3c4c7624bd837f10211526d0e9dfbffd12952bbd63388787876001604051610a32949392919061327d565b60405180910390a150505050505050565b60008351118015610a555750602d8351105b610a94576040517f08c379a0000000000000000000000000000000000000000000000000000000008152600401610a8b906134d4565b60405180910390fd5b600073ffffffffffffffffffffffffffffffffffffffff168173ffffffffffffffffffffffffffffffffffffffff161415610b04576040517f08c379a0000000000000000000000000000000000000000000000000000000008152600401610afb90613534565b60405180910390fd5b60008173ffffffffffffffffffffffffffffffffffffffff163b11610b5e576040517f08c379a0000000000000000000000000000000000000000000000000000000008152600401610b5590613454565b60405180910390fd5b600081905060008173ffffffffffffffffffffffffffffffffffffffff1663dd62ed3e33306040518363ffffffff1660e01b8152600401610ba0929190613157565b60206040518083038186803b158015610bb857600080fd5b505afa158015610bcc573d6000803e3d6000fd5b505050506040513d601f19601f82011682018060405250810190610bf09190612d10565b905083811015610c35576040517f08c379a0000000000000000000000000000000000000000000000000000000008152600401610c2c90613474565b60405180910390fd5b60008273ffffffffffffffffffffffffffffffffffffffff166370a08231336040518263ffffffff1660e01b8152600401610c70919061313c565b60206040518083038186803b158015610c8857600080fd5b505afa158015610c9c573d6000803e3d6000fd5b505050506040513d601f19601f82011682018060405250810190610cc09190612d10565b905084811015610d05576040517f08c379a0000000000000000000000000000000000000000000000000000000008152600401610cfc906134f4565b60405180910390fd5b8273ffffffffffffffffffffffffffffffffffffffff166323b872dd3330886040518463ffffffff1660e01b8152600401610d4293929190613180565b602060405180830381600087803b158015610d5c57600080fd5b505af1158015610d70573d6000803e3d6000fd5b505050506040513d601f19601f82011682018060405250810190610d94919061298f565b5084600287604051610da691906130eb565b908152602001604051809103902054610dbf919061364c565b600287604051610dcf91906130eb565b9081526020016040518091039020819055507fae62783bc0598246ffea3c4c7624bd837f10211526d0e9dfbffd12952bbd633886866000604051610e1593929190613323565b60405180910390a1505050505050565b6000806000838152602001908152602001600020600101549050919050565b600073ffffffffffffffffffffffffffffffffffffffff168273ffffffffffffffffffffffffffffffffffffffff161415610eb4576040517f08c379a0000000000000000000000000000000000000000000000000000000008152600401610eab90613494565b60405180910390fd5b610ec86000801b610ec3612142565b611730565b610f07576040517f08c379a0000000000000000000000000000000000000000000000000000000008152600401610efe90613514565b60405180910390fd5b8015610f3c57610f377f9f2df0fed2c77648de5860a4cc508cd0818c85b8b8a1ab4ceeef8d981c8956a68361214a565b610f67565b610f667f9f2df0fed2c77648de5860a4cc508cd0818c85b8b8a1ab4ceeef8d981c8956a683612158565b5b5050565b610f7482610e25565b610f8581610f80612142565b612239565b610f8f83836122d6565b505050565b610f9c612142565b73ffffffffffffffffffffffffffffffffffffffff168173ffffffffffffffffffffffffffffffffffffffff1614611009576040517f08c379a000000000000000000000000000000000000000000000000000000000815260040161100090613594565b60405180910390fd5b6110138282612158565b5050565b600073ffffffffffffffffffffffffffffffffffffffff168173ffffffffffffffffffffffffffffffffffffffff161415611087576040517f08c379a000000000000000000000000000000000000000000000000000000000815260040161107e90613534565b60405180910390fd5b600084511180156110995750602d8451105b6110d8576040517f08c379a00000000000000000000000000000000000000000000000000000000081526004016110cf906134d4565b60405180910390fd5b60008173ffffffffffffffffffffffffffffffffffffffff163b11611132576040517f08c379a000000000000000000000000000000000000000000000000000000000815260040161112990613454565b60405180910390fd5b600081905060008173ffffffffffffffffffffffffffffffffffffffff1663dd62ed3e33306040518363ffffffff1660e01b8152600401611174929190613157565b60206040518083038186803b15801561118c57600080fd5b505afa1580156111a0573d6000803e3d6000fd5b505050506040513d601f19601f820116820180604052508101906111c49190612d10565b905083811015611209576040517f08c379a000000000000000000000000000000000000000000000000000000000815260040161120090613474565b60405180910390fd5b60008273ffffffffffffffffffffffffffffffffffffffff166370a08231336040518263ffffffff1660e01b8152600401611244919061313c565b60206040518083038186803b15801561125c57600080fd5b505afa158015611270573d6000803e3d6000fd5b505050506040513d601f19601f820116820180604052508101906112949190612d10565b9050848110156112d9576040517f08c379a00000000000000000000000000000000000000000000000000000000081526004016112d0906134f4565b60405180910390fd5b8273ffffffffffffffffffffffffffffffffffffffff166323b872dd3330886040518463ffffffff1660e01b815260040161131693929190613180565b602060405180830381600087803b15801561133057600080fd5b505af1158015611344573d6000803e3d6000fd5b505050506040513d601f19601f82011682018060405250810190611368919061298f565b508460048860405161137a91906130eb565b90815260200160405180910390208760405161139691906130eb565b9081526020016040518091039020546113af919061364c565b6004886040516113bf91906130eb565b9081526020016040518091039020876040516113db91906130eb565b9081526020016040518091039020819055507fae62783bc0598246ffea3c4c7624bd837f10211526d0e9dfbffd12952bbd6338878787600260405161142394939291906132d0565b60405180910390a150505050505050565b60006114607f9f2df0fed2c77648de5860a4cc508cd0818c85b8b8a1ab4ceeef8d981c8956a633611730565b61149f576040517f08c379a000000000000000000000000000000000000000000000000000000000815260040161149690613414565b60405180910390fd5b6004836040516114af91906130eb565b9081526020016040518091039020826040516114cb91906130eb565b908152602001604051809103902054905092915050565b6114ea612142565b73ffffffffffffffffffffffffffffffffffffffff166115086116a9565b73ffffffffffffffffffffffffffffffffffffffff161461155e576040517f08c379a0000000000000000000000000000000000000000000000000000000008152600401611555906134b4565b60405180910390fd5b61156860006123b6565b565b60006115967f9f2df0fed2c77648de5860a4cc508cd0818c85b8b8a1ab4ceeef8d981c8956a633611730565b6115d5576040517f08c379a00000000000000000000000000000000000000000000000000000000081526004016115cc90613414565b60405180910390fd5b6003836040516115e591906130eb565b90815260200160405180910390208260405161160191906130eb565b908152602001604051809103902054905092915050565b60006116447f9f2df0fed2c77648de5860a4cc508cd0818c85b8b8a1ab4ceeef8d981c8956a633611730565b611683576040517f08c379a000000000000000000000000000000000000000000000000000000000815260040161167a90613414565b60405180910390fd5b60028260405161169391906130eb565b9081526020016040518091039020549050919050565b6000600160009054906101000a900473ffffffffffffffffffffffffffffffffffffffff16905090565b6116e76000801b6116e2612142565b611730565b611726576040517f08c379a000000000000000000000000000000000000000000000000000000000815260040161171d90613514565b60405180910390fd5b8060058190555050565b600080600084815260200190815260200160002060000160008373ffffffffffffffffffffffffffffffffffffffff1673ffffffffffffffffffffffffffffffffffffffff16815260200190815260200160002060009054906101000a900460ff16905092915050565b6000801b81565b6117cb7f9f2df0fed2c77648de5860a4cc508cd0818c85b8b8a1ab4ceeef8d981c8956a633611730565b61180a576040517f08c379a000000000000000000000000000000000000000000000000000000000815260040161180190613414565b60405180910390fd5b600073ffffffffffffffffffffffffffffffffffffffff168273ffffffffffffffffffffffffffffffffffffffff16141561187a576040517f08c379a000000000000000000000000000000000000000000000000000000000815260040161187190613534565b60405180910390fd5b600073ffffffffffffffffffffffffffffffffffffffff168173ffffffffffffffffffffffffffffffffffffffff1614156118ea576040517f08c379a00000000000000000000000000000000000000000000000000000000081526004016118e190613534565b60405180910390fd5b600085101561192e576040517f08c379a000000000000000000000000000000000000000000000000000000000815260040161192590613374565b60405180910390fd5b6000841015611972576040517f08c379a0000000000000000000000000000000000000000000000000000000008152600401611969906133d4565b60405180910390fd5b60008310156119b6576040517f08c379a00000000000000000000000000000000000000000000000000000000081526004016119ad906133f4565b60405180910390fd5b846002896040516119c791906130eb565b9081526020016040518091039020541015611a17576040517f08c379a0000000000000000000000000000000000000000000000000000000008152600401611a0e90613574565b60405180910390fd5b83600389604051611a2891906130eb565b908152602001604051809103902088604051611a4491906130eb565b9081526020016040518091039020541015611a94576040517f08c379a0000000000000000000000000000000000000000000000000000000008152600401611a8b90613574565b60405180910390fd5b82600489604051611aa591906130eb565b908152602001604051809103902087604051611ac191906130eb565b9081526020016040518091039020541015611b11576040517f08c379a0000000000000000000000000000000000000000000000000000000008152600401611b0890613574565b60405180910390fd5b6000838587611b20919061364c565b611b2a919061364c565b905060008273ffffffffffffffffffffffffffffffffffffffff163b11611b86576040517f08c379a0000000000000000000000000000000000000000000000000000000008152600401611b7d90613454565b60405180910390fd5b600082905060008173ffffffffffffffffffffffffffffffffffffffff166370a08231306040518263ffffffff1660e01b8152600401611bc6919061313c565b60206040518083038186803b158015611bde57600080fd5b505afa158015611bf2573d6000803e3d6000fd5b505050506040513d601f19601f82011682018060405250810190611c169190612d10565b905082811015611c5b576040517f08c379a0000000000000000000000000000000000000000000000000000000008152600401611c52906134f4565b60405180910390fd5b6000606484600554611c6d91906136d3565b611c7791906136a2565b905060008185611c87919061372d565b90508373ffffffffffffffffffffffffffffffffffffffff1663a9059cbb88836040518363ffffffff1660e01b8152600401611cc49291906131b7565b602060405180830381600087803b158015611cde57600080fd5b505af1158015611cf2573d6000803e3d6000fd5b505050506040513d601f19601f82011682018060405250810190611d16919061298f565b508373ffffffffffffffffffffffffffffffffffffffff1663a9059cbb600660009054906101000a900473ffffffffffffffffffffffffffffffffffffffff16846040518363ffffffff1660e01b8152600401611d749291906131b7565b602060405180830381600087803b158015611d8e57600080fd5b505af1158015611da2573d6000803e3d6000fd5b505050506040513d601f19601f82011682018060405250810190611dc6919061298f565b5060008a1115611e1d578960028e604051611de191906130eb565b908152602001604051809103902054611dfa919061372d565b60028e604051611e0a91906130eb565b9081526020016040518091039020819055505b6000891115611eab578860038e604051611e3791906130eb565b90815260200160405180910390208d604051611e5391906130eb565b908152602001604051809103902054611e6c919061372d565b60038e604051611e7c91906130eb565b90815260200160405180910390208d604051611e9891906130eb565b9081526020016040518091039020819055505b6000881115611f39578760048e604051611ec591906130eb565b90815260200160405180910390208c604051611ee191906130eb565b908152602001604051809103902054611efa919061372d565b60048e604051611f0a91906130eb565b90815260200160405180910390208c604051611f2691906130eb565b9081526020016040518091039020819055505b7f136790d0ceb3e798a127a41d7a67094cdb215836914ea1277d20d5a6f00b04938d8c87604051611f6c93929190613238565b60405180910390a150505050505050505050505050565b7f9f2df0fed2c77648de5860a4cc508cd0818c85b8b8a1ab4ceeef8d981c8956a681565b611fb082610e25565b611fc181611fbc612142565b612239565b611fcb8383612158565b505050565b611fd8612142565b73ffffffffffffffffffffffffffffffffffffffff16611ff66116a9565b73ffffffffffffffffffffffffffffffffffffffff161461204c576040517f08c379a0000000000000000000000000000000000000000000000000000000008152600401612043906134b4565b60405180910390fd5b600073ffffffffffffffffffffffffffffffffffffffff168173ffffffffffffffffffffffffffffffffffffffff1614156120bc576040517f08c379a00000000000000000000000000000000000000000000000000000000081526004016120b390613434565b60405180910390fd5b6120c5816123b6565b50565b60007f7965db0b000000000000000000000000000000000000000000000000000000007bffffffffffffffffffffffffffffffffffffffffffffffffffffffff1916827bffffffffffffffffffffffffffffffffffffffffffffffffffffffff1916148061213b575061213a8261247c565b5b9050919050565b600033905090565b61215482826122d6565b5050565b6121628282611730565b1561223557600080600084815260200190815260200160002060000160008373ffffffffffffffffffffffffffffffffffffffff1673ffffffffffffffffffffffffffffffffffffffff16815260200190815260200160002060006101000a81548160ff0219169083151502179055506121da612142565b73ffffffffffffffffffffffffffffffffffffffff168173ffffffffffffffffffffffffffffffffffffffff16837ff6391f5c32d9c69d2a47ea670b442974b53935d1edc7fd64eb21e047a839171b60405160405180910390a45b5050565b6122438282611730565b6122d2576122688173ffffffffffffffffffffffffffffffffffffffff1660146124e6565b6122768360001c60206124e6565b604051602001612287929190613102565b6040516020818303038152906040526040517f08c379a00000000000000000000000000000000000000000000000000000000081526004016122c99190613216565b60405180910390fd5b5050565b6122e08282611730565b6123b257600160008084815260200190815260200160002060000160008373ffffffffffffffffffffffffffffffffffffffff1673ffffffffffffffffffffffffffffffffffffffff16815260200190815260200160002060006101000a81548160ff021916908315150217905550612357612142565b73ffffffffffffffffffffffffffffffffffffffff168173ffffffffffffffffffffffffffffffffffffffff16837f2f8788117e7eff1d82e926ec794901d17c78024a50270940304540a733656f0d60405160405180910390a45b5050565b6000600160009054906101000a900473ffffffffffffffffffffffffffffffffffffffff16905081600160006101000a81548173ffffffffffffffffffffffffffffffffffffffff021916908373ffffffffffffffffffffffffffffffffffffffff1602179055508173ffffffffffffffffffffffffffffffffffffffff168173ffffffffffffffffffffffffffffffffffffffff167f8be0079c531659141344cd1fd0a4f28419497f9722a3daafe3b4186f6b6457e060405160405180910390a35050565b60007f01ffc9a7000000000000000000000000000000000000000000000000000000007bffffffffffffffffffffffffffffffffffffffffffffffffffffffff1916827bffffffffffffffffffffffffffffffffffffffffffffffffffffffff1916149050919050565b6060600060028360026124f991906136d3565b612503919061364c565b67ffffffffffffffff811115612542577f4e487b7100000000000000000000000000000000000000000000000000000000600052604160045260246000fd5b6040519080825280601f01601f1916602001820160405280156125745781602001600182028036833780820191505090505b5090507f3000000000000000000000000000000000000000000000000000000000000000816000815181106125d2577f4e487b7100000000000000000000000000000000000000000000000000000000600052603260045260246000fd5b60200101907effffffffffffffffffffffffffffffffffffffffffffffffffffffffffffff1916908160001a9053507f78000000000000000000000000000000000000000000000000000000000000008160018151811061265c577f4e487b7100000000000000000000000000000000000000000000000000000000600052603260045260246000fd5b60200101907effffffffffffffffffffffffffffffffffffffffffffffffffffffffffffff1916908160001a9053506000600184600261269c91906136d3565b6126a6919061364c565b90505b6001811115612792577f3031323334353637383961626364656600000000000000000000000000000000600f86166010811061270e577f4e487b7100000000000000000000000000000000000000000000000000000000600052603260045260246000fd5b1a60f81b82828151811061274b577f4e487b7100000000000000000000000000000000000000000000000000000000600052603260045260246000fd5b60200101907effffffffffffffffffffffffffffffffffffffffffffffffffffffffffffff1916908160001a905350600485901c94508061278b90613864565b90506126a9565b50600084146127d6576040517f08c379a00000000000000000000000000000000000000000000000000000000081526004016127cd90613394565b60405180910390fd5b8091505092915050565b60006127f36127ee846135f4565b6135cf565b90508281526020810184848401111561280b57600080fd5b612816848285613822565b509392505050565b60008135905061282d81613ce0565b92915050565b60008135905061284281613cf7565b92915050565b60008151905061285781613cf7565b92915050565b60008135905061286c81613d0e565b92915050565b60008135905061288181613d25565b92915050565b600082601f83011261289857600080fd5b81356128a88482602086016127e0565b91505092915050565b6000813590506128c081613d3c565b92915050565b6000815190506128d581613d3c565b92915050565b6000602082840312156128ed57600080fd5b60006128fb8482850161281e565b91505092915050565b6000806040838503121561291757600080fd5b60006129258582860161281e565b925050602061293685828601612833565b9150509250929050565b60008060006060848603121561295557600080fd5b60006129638682870161281e565b9350506020612974868287016128b1565b92505060406129858682870161281e565b9150509250925092565b6000602082840312156129a157600080fd5b60006129af84828501612848565b91505092915050565b6000602082840312156129ca57600080fd5b60006129d88482850161285d565b91505092915050565b600080604083850312156129f457600080fd5b6000612a028582860161285d565b9250506020612a138582860161281e565b9150509250929050565b600060208284031215612a2f57600080fd5b6000612a3d84828501612872565b91505092915050565b600060208284031215612a5857600080fd5b600082013567ffffffffffffffff811115612a7257600080fd5b612a7e84828501612887565b91505092915050565b60008060408385031215612a9a57600080fd5b600083013567ffffffffffffffff811115612ab457600080fd5b612ac085828601612887565b925050602083013567ffffffffffffffff811115612add57600080fd5b612ae985828601612887565b9150509250929050565b600080600080600080600080610100898b031215612b1057600080fd5b600089013567ffffffffffffffff811115612b2a57600080fd5b612b368b828c01612887565b985050602089013567ffffffffffffffff811115612b5357600080fd5b612b5f8b828c01612887565b975050604089013567ffffffffffffffff811115612b7c57600080fd5b612b888b828c01612887565b9650506060612b998b828c016128b1565b9550506080612baa8b828c016128b1565b94505060a0612bbb8b828c016128b1565b93505060c0612bcc8b828c0161281e565b92505060e0612bdd8b828c0161281e565b9150509295985092959890939650565b60008060008060808587031215612c0357600080fd5b600085013567ffffffffffffffff811115612c1d57600080fd5b612c2987828801612887565b945050602085013567ffffffffffffffff811115612c4657600080fd5b612c5287828801612887565b9350506040612c63878288016128b1565b9250506060612c748782880161281e565b91505092959194509250565b600080600060608486031215612c9557600080fd5b600084013567ffffffffffffffff811115612caf57600080fd5b612cbb86828701612887565b9350506020612ccc868287016128b1565b9250506040612cdd8682870161281e565b9150509250925092565b600060208284031215612cf957600080fd5b6000612d07848285016128b1565b91505092915050565b600060208284031215612d2257600080fd5b6000612d30848285016128c6565b91505092915050565b612d4281613761565b82525050565b612d5181613773565b82525050565b612d608161377f565b82525050565b612d6f816137ec565b82525050565b612d7e816137fe565b82525050565b612d8d81613810565b82525050565b6000612d9e82613625565b612da88185613630565b9350612db8818560208601613831565b612dc18161394c565b840191505092915050565b6000612dd782613625565b612de18185613641565b9350612df1818560208601613831565b80840191505092915050565b6000612e0a601b83613630565b9150612e158261395d565b602082019050919050565b6000612e2d602083613630565b9150612e3882613986565b602082019050919050565b6000612e50601283613630565b9150612e5b826139af565b602082019050919050565b6000612e73601583613630565b9150612e7e826139d8565b602082019050919050565b6000612e96601583613630565b9150612ea182613a01565b602082019050919050565b6000612eb9601583613630565b9150612ec482613a2a565b602082019050919050565b6000612edc602683613630565b9150612ee782613a53565b604082019050919050565b6000612eff601d83613630565b9150612f0a82613aa2565b602082019050919050565b6000612f22601783613630565b9150612f2d82613acb565b602082019050919050565b6000612f45601283613630565b9150612f5082613af4565b602082019050919050565b6000612f68602083613630565b9150612f7382613b1d565b602082019050919050565b6000612f8b601883613630565b9150612f9682613b46565b602082019050919050565b6000612fae601b83613630565b9150612fb982613b6f565b602082019050919050565b6000612fd1601483613630565b9150612fdc82613b98565b602082019050919050565b6000612ff4601683613630565b9150612fff82613bc1565b602082019050919050565b6000613017600083613630565b915061302282613bea565b600082019050919050565b600061303a600c83613630565b915061304582613bed565b602082019050919050565b600061305d601783613641565b915061306882613c16565b601782019050919050565b6000613080601783613630565b915061308b82613c3f565b602082019050919050565b60006130a3601183613641565b91506130ae82613c68565b601182019050919050565b60006130c6602f83613630565b91506130d182613c91565b604082019050919050565b6130e5816137d5565b82525050565b60006130f78284612dcc565b915081905092915050565b600061310d82613050565b91506131198285612dcc565b915061312482613096565b91506131308284612dcc565b91508190509392505050565b60006020820190506131516000830184612d39565b92915050565b600060408201905061316c6000830185612d39565b6131796020830184612d39565b9392505050565b60006060820190506131956000830186612d39565b6131a26020830185612d39565b6131af60408301846130dc565b949350505050565b60006040820190506131cc6000830185612d39565b6131d960208301846130dc565b9392505050565b60006020820190506131f56000830184612d48565b92915050565b60006020820190506132106000830184612d57565b92915050565b600060208201905081810360008301526132308184612d93565b905092915050565b600060608201905081810360008301526132528186612d93565b905081810360208301526132668185612d93565b905061327560408301846130dc565b949350505050565b600060808201905081810360008301526132978187612d93565b905081810360208301526132ab8186612d93565b90506132ba60408301856130dc565b6132c76060830184612d75565b95945050505050565b600060808201905081810360008301526132ea8187612d93565b905081810360208301526132fe8186612d93565b905061330d60408301856130dc565b61331a6060830184612d84565b95945050505050565b6000608082019050818103600083015261333d8186612d93565b905081810360208301526133508161300a565b905061335f60408301856130dc565b61336c6060830184612d66565b949350505050565b6000602082019050818103600083015261338d81612dfd565b9050919050565b600060208201905081810360008301526133ad81612e20565b9050919050565b600060208201905081810360008301526133cd81612e43565b9050919050565b600060208201905081810360008301526133ed81612e66565b9050919050565b6000602082019050818103600083015261340d81612e89565b9050919050565b6000602082019050818103600083015261342d81612eac565b9050919050565b6000602082019050818103600083015261344d81612ecf565b9050919050565b6000602082019050818103600083015261346d81612ef2565b9050919050565b6000602082019050818103600083015261348d81612f15565b9050919050565b600060208201905081810360008301526134ad81612f38565b9050919050565b600060208201905081810360008301526134cd81612f5b565b9050919050565b600060208201905081810360008301526134ed81612f7e565b9050919050565b6000602082019050818103600083015261350d81612fa1565b9050919050565b6000602082019050818103600083015261352d81612fc4565b9050919050565b6000602082019050818103600083015261354d81612fe7565b9050919050565b6000602082019050818103600083015261356d8161302d565b9050919050565b6000602082019050818103600083015261358d81613073565b9050919050565b600060208201905081810360008301526135ad816130b9565b9050919050565b60006020820190506135c960008301846130dc565b92915050565b60006135d96135ea565b90506135e5828261388e565b919050565b6000604051905090565b600067ffffffffffffffff82111561360f5761360e61391d565b5b6136188261394c565b9050602081019050919050565b600081519050919050565b600082825260208201905092915050565b600081905092915050565b6000613657826137d5565b9150613662836137d5565b9250827fffffffffffffffffffffffffffffffffffffffffffffffffffffffffffffffff03821115613697576136966138bf565b5b828201905092915050565b60006136ad826137d5565b91506136b8836137d5565b9250826136c8576136c76138ee565b5b828204905092915050565b60006136de826137d5565b91506136e9836137d5565b9250817fffffffffffffffffffffffffffffffffffffffffffffffffffffffffffffffff0483118215151615613722576137216138bf565b5b828202905092915050565b6000613738826137d5565b9150613743836137d5565b925082821015613756576137556138bf565b5b828203905092915050565b600061376c826137b5565b9050919050565b60008115159050919050565b6000819050919050565b60007fffffffff0000000000000000000000000000000000000000000000000000000082169050919050565b600073ffffffffffffffffffffffffffffffffffffffff82169050919050565b6000819050919050565b600060ff82169050919050565b60006137f7826137df565b9050919050565b6000613809826137df565b9050919050565b600061381b826137df565b9050919050565b82818337600083830152505050565b60005b8381101561384f578082015181840152602081019050613834565b8381111561385e576000848401525b50505050565b600061386f826137d5565b91506000821415613883576138826138bf565b5b600182039050919050565b6138978261394c565b810181811067ffffffffffffffff821117156138b6576138b561391d565b5b80604052505050565b7f4e487b7100000000000000000000000000000000000000000000000000000000600052601160045260246000fd5b7f4e487b7100000000000000000000000000000000000000000000000000000000600052601260045260246000fd5b7f4e487b7100000000000000000000000000000000000000000000000000000000600052604160045260246000fd5b6000601f19601f8301169050919050565b7f746f75726e616d656e7420616d6f756e74206e6f742076616c69640000000000600082015250565b7f537472696e67733a20686578206c656e67746820696e73756666696369656e74600082015250565b7f62616c616e6365206e6f7420656e6f7567680000000000000000000000000000600082015250565b7f7465616d20616d6f756e74206e6f742076616c69640000000000000000000000600082015250565b7f7573657220616d6f756e74206e6f742076616c69640000000000000000000000600082015250565b7f6d7573742068617665206d696e74657220726f6c650000000000000000000000600082015250565b7f4f776e61626c653a206e6577206f776e657220697320746865207a65726f206160008201527f6464726573730000000000000000000000000000000000000000000000000000602082015250565b7f7061796d656e7420746f6b656e206164647265737320696e76616c6964000000600082015250565b7f616c6c6f77616e6365206973206e6f7420656e6f756768000000000000000000600082015250565b7f6163636f756e74206d75737420213d2030780000000000000000000000000000600082015250565b7f4f776e61626c653a2063616c6c6572206973206e6f7420746865206f776e6572600082015250565b7f746f75726e616d656e7420756964206e6f742076616c69640000000000000000600082015250565b7f746f6b656e2062616c616e6365206973206e6f7420656e6f7567680000000000600082015250565b7f6d75737420686176652061646d696e20726f6c65000000000000000000000000600082015250565b7f63616e277420757365207a65726f206164647265737300000000000000000000600082015250565b50565b7f7465616d20696e76616c69640000000000000000000000000000000000000000600082015250565b7f416363657373436f6e74726f6c3a206163636f756e7420000000000000000000600082015250565b7f706f6f6c206e6f7420656e6f7567682062616c616e6365000000000000000000600082015250565b7f206973206d697373696e6720726f6c6520000000000000000000000000000000600082015250565b7f416363657373436f6e74726f6c3a2063616e206f6e6c792072656e6f756e636560008201527f20726f6c657320666f722073656c660000000000000000000000000000000000602082015250565b613ce981613761565b8114613cf457600080fd5b50565b613d0081613773565b8114613d0b57600080fd5b50565b613d178161377f565b8114613d2257600080fd5b50565b613d2e81613789565b8114613d3957600080fd5b50565b613d45816137d5565b8114613d5057600080fd5b5056fea2646970667358221220394d563372a57309c13321a80285cf161b51172c35793744121c688f406b6ab764736f6c63430008010033",
  "linkReferences": {},
  "deployedLinkReferences": {}
}