{
  "_format": "hh-sol-artifact-1",
  "contractName": "LPrize",
  "sourceName": "contracts/LPrize.sol",
  "abi": [
    {
      "inputs": [
        {
          "internalType": "uint256",
          "name": "_lucisFee",
          "type": "uint256"
        },
        {
          "internalType": "uint256",
          "name": "_refereeFee",
          "type": "uint256"
        },
        {
          "internalType": "uint256",
          "name": "_claimFee",
          "type": "uint256"
        },
        {
          "internalType": "address",
          "name": "_feeWallet",
          "type": "address"
        },
        {
          "internalType": "address",
          "name": "_previousContract",
          "type": "address"
        }
      ],
      "stateMutability": "nonpayable",
      "type": "constructor"
    },
    {
      "anonymous": false,
      "inputs": [
        {
          "indexed": false,
          "internalType": "string",
          "name": "userId",
          "type": "string"
        },
        {
          "indexed": false,
          "internalType": "string",
          "name": "tournamentUid",
          "type": "string"
        },
        {
          "indexed": false,
          "internalType": "uint256",
          "name": "amount",
          "type": "uint256"
        },
        {
          "indexed": false,
          "internalType": "address",
          "name": "paymentToken",
          "type": "address"
        }
      ],
      "name": "BecomeSponsor",
      "type": "event"
    },
    {
      "anonymous": false,
      "inputs": [
        {
          "indexed": false,
          "internalType": "address",
          "name": "receiver",
          "type": "address"
        },
        {
          "indexed": false,
          "internalType": "string",
          "name": "tournamentUid",
          "type": "string"
        },
        {
          "indexed": false,
          "internalType": "uint256",
          "name": "amount",
          "type": "uint256"
        }
      ],
      "name": "ClaimPrize",
      "type": "event"
    },
    {
      "anonymous": false,
      "inputs": [
        {
          "indexed": false,
          "internalType": "string",
          "name": "userId",
          "type": "string"
        },
        {
          "indexed": false,
          "internalType": "string",
          "name": "tournamentUid",
          "type": "string"
        },
        {
          "indexed": false,
          "internalType": "uint256",
          "name": "amount",
          "type": "uint256"
        }
      ],
      "name": "InitPool",
      "type": "event"
    },
    {
      "anonymous": false,
      "inputs": [
        {
          "indexed": true,
          "internalType": "address",
          "name": "previousOwner",
          "type": "address"
        },
        {
          "indexed": true,
          "internalType": "address",
          "name": "newOwner",
          "type": "address"
        }
      ],
      "name": "OwnershipTransferred",
      "type": "event"
    },
    {
      "anonymous": false,
      "inputs": [
        {
          "indexed": true,
          "internalType": "bytes32",
          "name": "role",
          "type": "bytes32"
        },
        {
          "indexed": true,
          "internalType": "bytes32",
          "name": "previousAdminRole",
          "type": "bytes32"
        },
        {
          "indexed": true,
          "internalType": "bytes32",
          "name": "newAdminRole",
          "type": "bytes32"
        }
      ],
      "name": "RoleAdminChanged",
      "type": "event"
    },
    {
      "anonymous": false,
      "inputs": [
        {
          "indexed": true,
          "internalType": "bytes32",
          "name": "role",
          "type": "bytes32"
        },
        {
          "indexed": true,
          "internalType": "address",
          "name": "account",
          "type": "address"
        },
        {
          "indexed": true,
          "internalType": "address",
          "name": "sender",
          "type": "address"
        }
      ],
      "name": "RoleGranted",
      "type": "event"
    },
    {
      "anonymous": false,
      "inputs": [
        {
          "indexed": true,
          "internalType": "bytes32",
          "name": "role",
          "type": "bytes32"
        },
        {
          "indexed": true,
          "internalType": "address",
          "name": "account",
          "type": "address"
        },
        {
          "indexed": true,
          "internalType": "address",
          "name": "sender",
          "type": "address"
        }
      ],
      "name": "RoleRevoked",
      "type": "event"
    },
    {
      "inputs": [],
      "name": "DEFAULT_ADMIN_ROLE",
      "outputs": [
        {
          "internalType": "bytes32",
          "name": "",
          "type": "bytes32"
        }
      ],
      "stateMutability": "view",
      "type": "function"
    },
    {
      "inputs": [],
      "name": "MINTER_ROLE",
      "outputs": [
        {
          "internalType": "bytes32",
          "name": "",
          "type": "bytes32"
        }
      ],
      "stateMutability": "view",
      "type": "function"
    },
    {
      "inputs": [
        {
          "internalType": "string",
          "name": "userId",
          "type": "string"
        },
        {
          "internalType": "string",
          "name": "tournamentUid",
          "type": "string"
        },
        {
          "internalType": "uint256",
          "name": "amount",
          "type": "uint256"
        },
        {
          "internalType": "address",
          "name": "_paymentToken",
          "type": "address"
        }
      ],
      "name": "becomeSponsor",
      "outputs": [],
      "stateMutability": "nonpayable",
      "type": "function"
    },
    {
      "inputs": [
        {
          "internalType": "string",
          "name": "tournamentUid",
          "type": "string"
        },
        {
          "internalType": "address",
          "name": "receiver",
          "type": "address"
        },
        {
          "internalType": "uint256",
          "name": "amount",
          "type": "uint256"
        },
        {
          "internalType": "address",
          "name": "_paymentToken",
          "type": "address"
        }
      ],
      "name": "claimPrize",
      "outputs": [],
      "stateMutability": "nonpayable",
      "type": "function"
    },
    {
      "inputs": [
        {
          "internalType": "string",
          "name": "tournamentUid",
          "type": "string"
        },
        {
          "internalType": "address",
          "name": "_paymentToken",
          "type": "address"
        }
      ],
      "name": "getPoolSize",
      "outputs": [
        {
          "internalType": "uint256",
          "name": "",
          "type": "uint256"
        }
      ],
      "stateMutability": "view",
      "type": "function"
    },
    {
      "inputs": [],
      "name": "getPreviousContract",
      "outputs": [
        {
          "internalType": "address",
          "name": "",
          "type": "address"
        }
      ],
      "stateMutability": "view",
      "type": "function"
    },
    {
      "inputs": [
        {
          "internalType": "bytes32",
          "name": "role",
          "type": "bytes32"
        }
      ],
      "name": "getRoleAdmin",
      "outputs": [
        {
          "internalType": "bytes32",
          "name": "",
          "type": "bytes32"
        }
      ],
      "stateMutability": "view",
      "type": "function"
    },
    {
      "inputs": [
        {
          "internalType": "bytes32",
          "name": "role",
          "type": "bytes32"
        },
        {
          "internalType": "address",
          "name": "account",
          "type": "address"
        }
      ],
      "name": "grantRole",
      "outputs": [],
      "stateMutability": "nonpayable",
      "type": "function"
    },
    {
      "inputs": [
        {
          "internalType": "bytes32",
          "name": "role",
          "type": "bytes32"
        },
        {
          "internalType": "address",
          "name": "account",
          "type": "address"
        }
      ],
      "name": "hasRole",
      "outputs": [
        {
          "internalType": "bool",
          "name": "",
          "type": "bool"
        }
      ],
      "stateMutability": "view",
      "type": "function"
    },
    {
      "inputs": [
        {
          "internalType": "string",
          "name": "userId",
          "type": "string"
        },
        {
          "internalType": "string",
          "name": "tournamentUid",
          "type": "string"
        },
        {
          "internalType": "uint256",
          "name": "amount",
          "type": "uint256"
        },
        {
          "internalType": "address",
          "name": "_paymentToken",
          "type": "address"
        }
      ],
      "name": "initTournament",
      "outputs": [],
      "stateMutability": "nonpayable",
      "type": "function"
    },
    {
      "inputs": [],
      "name": "owner",
      "outputs": [
        {
          "internalType": "address",
          "name": "",
          "type": "address"
        }
      ],
      "stateMutability": "view",
      "type": "function"
    },
    {
      "inputs": [],
      "name": "renounceOwnership",
      "outputs": [],
      "stateMutability": "nonpayable",
      "type": "function"
    },
    {
      "inputs": [
        {
          "internalType": "bytes32",
          "name": "role",
          "type": "bytes32"
        },
        {
          "internalType": "address",
          "name": "account",
          "type": "address"
        }
      ],
      "name": "renounceRole",
      "outputs": [],
      "stateMutability": "nonpayable",
      "type": "function"
    },
    {
      "inputs": [
        {
          "internalType": "bytes32",
          "name": "role",
          "type": "bytes32"
        },
        {
          "internalType": "address",
          "name": "account",
          "type": "address"
        }
      ],
      "name": "revokeRole",
      "outputs": [],
      "stateMutability": "nonpayable",
      "type": "function"
    },
    {
      "inputs": [
        {
          "internalType": "address",
          "name": "account",
          "type": "address"
        },
        {
          "internalType": "bool",
          "name": "_enable",
          "type": "bool"
        }
      ],
      "name": "setupMinterRole",
      "outputs": [],
      "stateMutability": "nonpayable",
      "type": "function"
    },
    {
      "inputs": [
        {
          "internalType": "bytes4",
          "name": "interfaceId",
          "type": "bytes4"
        }
      ],
      "name": "supportsInterface",
      "outputs": [
        {
          "internalType": "bool",
          "name": "",
          "type": "bool"
        }
      ],
      "stateMutability": "view",
      "type": "function"
    },
    {
      "inputs": [
        {
          "internalType": "address",
          "name": "newOwner",
          "type": "address"
        }
      ],
      "name": "transferOwnership",
      "outputs": [],
      "stateMutability": "nonpayable",
      "type": "function"
    },
    {
      "inputs": [
        {
          "internalType": "uint256",
          "name": "_lucisFee",
          "type": "uint256"
        },
        {
          "internalType": "uint256",
          "name": "_refereeFee",
          "type": "uint256"
        },
        {
          "internalType": "uint256",
          "name": "_claimFee",
          "type": "uint256"
        }
      ],
      "name": "updateFee",
      "outputs": [],
      "stateMutability": "nonpayable",
      "type": "function"
    }
  ],
  "bytecode": "0x60806040523480156200001157600080fd5b50604051620037483803806200374883398181016040528101906200003791906200041e565b620000576200004b620001b160201b60201c565b620001b960201b60201c565b6200007b6000801b6200006f620001b160201b60201c565b6200027f60201b60201c565b620000bc7f9f2df0fed2c77648de5860a4cc508cd0818c85b8b8a1ab4ceeef8d981c8956a6620000b0620001b160201b60201c565b6200027f60201b60201c565b60648486620000cc9190620004fa565b106200010f576040517f08c379a00000000000000000000000000000000000000000000000000000000081526004016200010690620004c7565b60405180910390fd5b84600781905550836008819055508260098190555081600a60006101000a81548173ffffffffffffffffffffffffffffffffffffffff021916908373ffffffffffffffffffffffffffffffffffffffff16021790555080600b60006101000a81548173ffffffffffffffffffffffffffffffffffffffff021916908373ffffffffffffffffffffffffffffffffffffffff160217905550505050505062000621565b600033905090565b6000600160009054906101000a900473ffffffffffffffffffffffffffffffffffffffff16905081600160006101000a81548173ffffffffffffffffffffffffffffffffffffffff021916908373ffffffffffffffffffffffffffffffffffffffff1602179055508173ffffffffffffffffffffffffffffffffffffffff168173ffffffffffffffffffffffffffffffffffffffff167f8be0079c531659141344cd1fd0a4f28419497f9722a3daafe3b4186f6b6457e060405160405180910390a35050565b6200029182826200029560201b60201c565b5050565b620002a782826200038660201b60201c565b6200038257600160008084815260200190815260200160002060000160008373ffffffffffffffffffffffffffffffffffffffff1673ffffffffffffffffffffffffffffffffffffffff16815260200190815260200160002060006101000a81548160ff02191690831515021790555062000327620001b160201b60201c565b73ffffffffffffffffffffffffffffffffffffffff168173ffffffffffffffffffffffffffffffffffffffff16837f2f8788117e7eff1d82e926ec794901d17c78024a50270940304540a733656f0d60405160405180910390a45b5050565b600080600084815260200190815260200160002060000160008373ffffffffffffffffffffffffffffffffffffffff1673ffffffffffffffffffffffffffffffffffffffff16815260200190815260200160002060009054906101000a900460ff16905092915050565b6000815190506200040181620005ed565b92915050565b600081519050620004188162000607565b92915050565b600080600080600060a086880312156200043757600080fd5b6000620004478882890162000407565b95505060206200045a8882890162000407565b94505060406200046d8882890162000407565b93505060606200048088828901620003f0565b92505060806200049388828901620003f0565b9150509295509295909350565b6000620004af600b83620004e9565b9150620004bc82620005c4565b602082019050919050565b60006020820190508181036000830152620004e281620004a0565b9050919050565b600082825260208201905092915050565b600062000507826200058b565b915062000514836200058b565b9250827fffffffffffffffffffffffffffffffffffffffffffffffffffffffffffffffff038211156200054c576200054b62000595565b5b828201905092915050565b600062000564826200056b565b9050919050565b600073ffffffffffffffffffffffffffffffffffffffff82169050919050565b6000819050919050565b7f4e487b7100000000000000000000000000000000000000000000000000000000600052601160045260246000fd5b7f4645455f494e56414c4944000000000000000000000000000000000000000000600082015250565b620005f88162000557565b81146200060457600080fd5b50565b62000612816200058b565b81146200061e57600080fd5b50565b61311780620006316000396000f3fe608060405234801561001057600080fd5b50600436106101165760003560e01c80638da5cb5b116100a2578063cd38124511610071578063cd381245146102b7578063d5391393146102e7578063d547741f14610305578063f2fde38b14610321578063fc061a4f1461033d57610116565b80638da5cb5b1461022f57806391d148541461024d578063a217fddf1461027d578063a54373401461029b57610116565b80632f2ff15d116100e95780632f2ff15d146101b357806336568abe146101cf5780635c05d35d146101eb578063715018a6146102075780637aa5c4701461021157610116565b806301ffc9a71461011b5780630ed53b7a1461014b578063248a9ca3146101675780632592d9ef14610197575b600080fd5b61013560048036038101906101309190612117565b610359565b604051610142919061274b565b60405180910390f35b61016560048036038101906101609190612194565b61036b565b005b610181600480360381019061017c91906120b2565b610805565b60405161018e9190612766565b60405180910390f35b6101b160048036038101906101ac919061204d565b610824565b005b6101cd60048036038101906101c891906120db565b61094b565b005b6101e960048036038101906101e491906120db565b610974565b005b6102056004803603810190610200919061220f565b6109f7565b005b61020f610f4f565b005b610219610fd7565b6040516102269190612669565b60405180910390f35b610237611001565b6040516102449190612669565b60405180910390f35b610267600480360381019061026291906120db565b61102b565b604051610274919061274b565b60405180910390f35b610285611095565b6040516102929190612766565b60405180910390f35b6102b560048036038101906102b0919061220f565b61109c565b005b6102d160048036038101906102cc9190612140565b611614565b6040516102de91906129fb565b60405180910390f35b6102ef61165f565b6040516102fc9190612766565b60405180910390f35b61031f600480360381019061031a91906120db565b611683565b005b61033b60048036038101906103369190612024565b6116ac565b005b610357600480360381019061035291906122cb565b6117a4565b005b600061036482611811565b9050919050565b6103957f9f2df0fed2c77648de5860a4cc508cd0818c85b8b8a1ab4ceeef8d981c8956a63361102b565b6103d4576040517f08c379a00000000000000000000000000000000000000000000000000000000081526004016103cb9061287b565b60405180910390fd5b60008211610417576040517f08c379a000000000000000000000000000000000000000000000000000000000815260040161040e906128bb565b60405180910390fd5b602d84511061045b576040517f08c379a00000000000000000000000000000000000000000000000000000000081526004016104529061291b565b60405180910390fd5b60008482604051602001610470929190612607565b604051602081830303815290604052805190602001209050600060026000838152602001908152602001600020549050838110156104e3576040517f08c379a00000000000000000000000000000000000000000000000000000000081526004016104da906128db565b60405180910390fd5b60008373ffffffffffffffffffffffffffffffffffffffff163b1161053d576040517f08c379a00000000000000000000000000000000000000000000000000000000081526004016105349061297b565b60405180910390fd5b600083905060008173ffffffffffffffffffffffffffffffffffffffff166370a08231306040518263ffffffff1660e01b815260040161057d9190612669565b60206040518083038186803b15801561059557600080fd5b505afa1580156105a9573d6000803e3d6000fd5b505050506040513d601f19601f820116820180604052508101906105cd91906122a2565b905085811015610612576040517f08c379a00000000000000000000000000000000000000000000000000000000081526004016106099061295b565b60405180910390fd5b60006064876009546106249190612b1a565b61062e9190612ae9565b90506000818861063e9190612b74565b90508373ffffffffffffffffffffffffffffffffffffffff1663a9059cbb8a836040518363ffffffff1660e01b815260040161067b929190612722565b602060405180830381600087803b15801561069557600080fd5b505af11580156106a9573d6000803e3d6000fd5b505050506040513d601f19601f820116820180604052508101906106cd9190612089565b506000821115610788578373ffffffffffffffffffffffffffffffffffffffff1663a9059cbb600a60009054906101000a900473ffffffffffffffffffffffffffffffffffffffff16846040518363ffffffff1660e01b8152600401610734929190612722565b602060405180830381600087803b15801561074e57600080fd5b505af1158015610762573d6000803e3d6000fd5b505050506040513d601f19601f820116820180604052508101906107869190612089565b505b8760026000888152602001908152602001600020546107a79190612b74565b60026000888152602001908152602001600020819055507f929657749431e11c18106618599c6b58321292d73a037a087dc805548bc1d617898b8a6040516107f1939291906126e4565b60405180910390a150505050505050505050565b6000806000838152602001908152602001600020600101549050919050565b600073ffffffffffffffffffffffffffffffffffffffff168273ffffffffffffffffffffffffffffffffffffffff161415610894576040517f08c379a000000000000000000000000000000000000000000000000000000000815260040161088b9061297b565b60405180910390fd5b6108a86000801b6108a361188b565b61102b565b6108e7576040517f08c379a00000000000000000000000000000000000000000000000000000000081526004016108de906129bb565b60405180910390fd5b801561091c576109177f9f2df0fed2c77648de5860a4cc508cd0818c85b8b8a1ab4ceeef8d981c8956a683611893565b610947565b6109467f9f2df0fed2c77648de5860a4cc508cd0818c85b8b8a1ab4ceeef8d981c8956a6836118a1565b5b5050565b61095482610805565b6109658161096061188b565b611982565b61096f8383611a1f565b505050565b61097c61188b565b73ffffffffffffffffffffffffffffffffffffffff168173ffffffffffffffffffffffffffffffffffffffff16146109e9576040517f08c379a00000000000000000000000000000000000000000000000000000000081526004016109e0906129db565b60405180910390fd5b6109f382826118a1565b5050565b602d835110610a3b576040517f08c379a0000000000000000000000000000000000000000000000000000000008152600401610a329061291b565b60405180910390fd5b60008382604051602001610a50929190612607565b6040516020818303038152906040528051906020012090506000600260008381526020019081526020016000205414610abe576040517f08c379a0000000000000000000000000000000000000000000000000000000008152600401610ab59061289b565b60405180910390fd5b60008311610b01576040517f08c379a0000000000000000000000000000000000000000000000000000000008152600401610af8906128bb565b60405180910390fd5b600073ffffffffffffffffffffffffffffffffffffffff168273ffffffffffffffffffffffffffffffffffffffff1614158015610b55575060008273ffffffffffffffffffffffffffffffffffffffff163b115b610b94576040517f08c379a0000000000000000000000000000000000000000000000000000000008152600401610b8b9061297b565b60405180910390fd5b600082905060008173ffffffffffffffffffffffffffffffffffffffff1663dd62ed3e33306040518363ffffffff1660e01b8152600401610bd6929190612684565b60206040518083038186803b158015610bee57600080fd5b505afa158015610c02573d6000803e3d6000fd5b505050506040513d601f19601f82011682018060405250810190610c2691906122a2565b90506000606486600754610c3a9190612b1a565b610c449190612ae9565b90506000606487600854610c589190612b1a565b610c629190612ae9565b90506000818389610c739190612a93565b610c7d9190612a93565b905080841015610cc2576040517f08c379a0000000000000000000000000000000000000000000000000000000008152600401610cb99061299b565b60405180910390fd5b60008573ffffffffffffffffffffffffffffffffffffffff166370a08231336040518263ffffffff1660e01b8152600401610cfd9190612669565b60206040518083038186803b158015610d1557600080fd5b505afa158015610d29573d6000803e3d6000fd5b505050506040513d601f19601f82011682018060405250810190610d4d91906122a2565b905081811015610d92576040517f08c379a0000000000000000000000000000000000000000000000000000000008152600401610d899061295b565b60405180910390fd5b6000838a610da09190612a93565b90508673ffffffffffffffffffffffffffffffffffffffff166323b872dd3330846040518463ffffffff1660e01b8152600401610ddf939291906126ad565b602060405180830381600087803b158015610df957600080fd5b505af1158015610e0d573d6000803e3d6000fd5b505050506040513d601f19601f82011682018060405250810190610e319190612089565b506000851115610eee578673ffffffffffffffffffffffffffffffffffffffff166323b872dd33600a60009054906101000a900473ffffffffffffffffffffffffffffffffffffffff16886040518463ffffffff1660e01b8152600401610e9a939291906126ad565b602060405180830381600087803b158015610eb457600080fd5b505af1158015610ec8573d6000803e3d6000fd5b505050506040513d601f19601f82011682018060405250810190610eec9190612089565b505b80600260008a8152602001908152602001600020819055507f9fe84b51e7406e0e949ed3f3c1b8af8496bc9ecc0185c5d12220eb8eed02e02a8c8c8c604051610f39939291906127a3565b60405180910390a1505050505050505050505050565b610f5761188b565b73ffffffffffffffffffffffffffffffffffffffff16610f75611001565b73ffffffffffffffffffffffffffffffffffffffff1614610fcb576040517f08c379a0000000000000000000000000000000000000000000000000000000008152600401610fc2906128fb565b60405180910390fd5b610fd56000611aff565b565b6000600b60009054906101000a900473ffffffffffffffffffffffffffffffffffffffff16905090565b6000600160009054906101000a900473ffffffffffffffffffffffffffffffffffffffff16905090565b600080600084815260200190815260200160002060000160008373ffffffffffffffffffffffffffffffffffffffff1673ffffffffffffffffffffffffffffffffffffffff16815260200190815260200160002060009054906101000a900460ff16905092915050565b6000801b81565b602d8351106110e0576040517f08c379a00000000000000000000000000000000000000000000000000000000081526004016110d79061291b565b60405180910390fd5b600073ffffffffffffffffffffffffffffffffffffffff168173ffffffffffffffffffffffffffffffffffffffff1614158015611134575060008173ffffffffffffffffffffffffffffffffffffffff163b115b611173576040517f08c379a000000000000000000000000000000000000000000000000000000000815260040161116a9061297b565b60405180910390fd5b60008382604051602001611188929190612607565b60405160208183030381529060405280519060200120905060006002600083815260200190815260200160002054116111f6576040517f08c379a00000000000000000000000000000000000000000000000000000000081526004016111ed9061293b565b60405180910390fd5b60008311611239576040517f08c379a0000000000000000000000000000000000000000000000000000000008152600401611230906128bb565b60405180910390fd5b600082905060008173ffffffffffffffffffffffffffffffffffffffff1663dd62ed3e33306040518363ffffffff1660e01b815260040161127b929190612684565b60206040518083038186803b15801561129357600080fd5b505afa1580156112a7573d6000803e3d6000fd5b505050506040513d601f19601f820116820180604052508101906112cb91906122a2565b905060006064866007546112df9190612b1a565b6112e99190612ae9565b905060006064876008546112fd9190612b1a565b6113079190612ae9565b905060008183896113189190612a93565b6113229190612a93565b905080841015611367576040517f08c379a000000000000000000000000000000000000000000000000000000000815260040161135e9061299b565b60405180910390fd5b60008573ffffffffffffffffffffffffffffffffffffffff166370a08231336040518263ffffffff1660e01b81526004016113a29190612669565b60206040518083038186803b1580156113ba57600080fd5b505afa1580156113ce573d6000803e3d6000fd5b505050506040513d601f19601f820116820180604052508101906113f291906122a2565b905081811015611437576040517f08c379a000000000000000000000000000000000000000000000000000000000815260040161142e9061295b565b60405180910390fd5b6000838a6114459190612a93565b90508673ffffffffffffffffffffffffffffffffffffffff166323b872dd3330846040518463ffffffff1660e01b8152600401611484939291906126ad565b602060405180830381600087803b15801561149e57600080fd5b505af11580156114b2573d6000803e3d6000fd5b505050506040513d601f19601f820116820180604052508101906114d69190612089565b506000851115611593578673ffffffffffffffffffffffffffffffffffffffff166323b872dd33600a60009054906101000a900473ffffffffffffffffffffffffffffffffffffffff16886040518463ffffffff1660e01b815260040161153f939291906126ad565b602060405180830381600087803b15801561155957600080fd5b505af115801561156d573d6000803e3d6000fd5b505050506040513d601f19601f820116820180604052508101906115919190612089565b505b80600260008a8152602001908152602001600020546115b29190612a93565b600260008a8152602001908152602001600020819055507fa5b93b8925f126a803ab67f057a0b645557df281f69b624b07e118a6b26915368c8c8c8c6040516115fe94939291906127e8565b60405180910390a1505050505050505050505050565b600080838360405160200161162a929190612607565b604051602081830303815290604052805190602001209050600260008281526020019081526020016000205491505092915050565b7f9f2df0fed2c77648de5860a4cc508cd0818c85b8b8a1ab4ceeef8d981c8956a681565b61168c82610805565b61169d8161169861188b565b611982565b6116a783836118a1565b505050565b6116b461188b565b73ffffffffffffffffffffffffffffffffffffffff166116d2611001565b73ffffffffffffffffffffffffffffffffffffffff1614611728576040517f08c379a000000000000000000000000000000000000000000000000000000000815260040161171f906128fb565b60405180910390fd5b600073ffffffffffffffffffffffffffffffffffffffff168173ffffffffffffffffffffffffffffffffffffffff161415611798576040517f08c379a000000000000000000000000000000000000000000000000000000000815260040161178f9061285b565b60405180910390fd5b6117a181611aff565b50565b6117b86000801b6117b361188b565b61102b565b6117f7576040517f08c379a00000000000000000000000000000000000000000000000000000000081526004016117ee906129bb565b60405180910390fd5b826007819055508160088190555080600981905550505050565b60007f7965db0b000000000000000000000000000000000000000000000000000000007bffffffffffffffffffffffffffffffffffffffffffffffffffffffff1916827bffffffffffffffffffffffffffffffffffffffffffffffffffffffff19161480611884575061188382611bc5565b5b9050919050565b600033905090565b61189d8282611a1f565b5050565b6118ab828261102b565b1561197e57600080600084815260200190815260200160002060000160008373ffffffffffffffffffffffffffffffffffffffff1673ffffffffffffffffffffffffffffffffffffffff16815260200190815260200160002060006101000a81548160ff02191690831515021790555061192361188b565b73ffffffffffffffffffffffffffffffffffffffff168173ffffffffffffffffffffffffffffffffffffffff16837ff6391f5c32d9c69d2a47ea670b442974b53935d1edc7fd64eb21e047a839171b60405160405180910390a45b5050565b61198c828261102b565b611a1b576119b18173ffffffffffffffffffffffffffffffffffffffff166014611c2f565b6119bf8360001c6020611c2f565b6040516020016119d092919061262f565b6040516020818303038152906040526040517f08c379a0000000000000000000000000000000000000000000000000000000008152600401611a129190612781565b60405180910390fd5b5050565b611a29828261102b565b611afb57600160008084815260200190815260200160002060000160008373ffffffffffffffffffffffffffffffffffffffff1673ffffffffffffffffffffffffffffffffffffffff16815260200190815260200160002060006101000a81548160ff021916908315150217905550611aa061188b565b73ffffffffffffffffffffffffffffffffffffffff168173ffffffffffffffffffffffffffffffffffffffff16837f2f8788117e7eff1d82e926ec794901d17c78024a50270940304540a733656f0d60405160405180910390a45b5050565b6000600160009054906101000a900473ffffffffffffffffffffffffffffffffffffffff16905081600160006101000a81548173ffffffffffffffffffffffffffffffffffffffff021916908373ffffffffffffffffffffffffffffffffffffffff1602179055508173ffffffffffffffffffffffffffffffffffffffff168173ffffffffffffffffffffffffffffffffffffffff167f8be0079c531659141344cd1fd0a4f28419497f9722a3daafe3b4186f6b6457e060405160405180910390a35050565b60007f01ffc9a7000000000000000000000000000000000000000000000000000000007bffffffffffffffffffffffffffffffffffffffffffffffffffffffff1916827bffffffffffffffffffffffffffffffffffffffffffffffffffffffff1916149050919050565b606060006002836002611c429190612b1a565b611c4c9190612a93565b67ffffffffffffffff811115611c8b577f4e487b7100000000000000000000000000000000000000000000000000000000600052604160045260246000fd5b6040519080825280601f01601f191660200182016040528015611cbd5781602001600182028036833780820191505090505b5090507f300000000000000000000000000000000000000000000000000000000000000081600081518110611d1b577f4e487b7100000000000000000000000000000000000000000000000000000000600052603260045260246000fd5b60200101907effffffffffffffffffffffffffffffffffffffffffffffffffffffffffffff1916908160001a9053507f780000000000000000000000000000000000000000000000000000000000000081600181518110611da5577f4e487b7100000000000000000000000000000000000000000000000000000000600052603260045260246000fd5b60200101907effffffffffffffffffffffffffffffffffffffffffffffffffffffffffffff1916908160001a90535060006001846002611de59190612b1a565b611def9190612a93565b90505b6001811115611edb577f3031323334353637383961626364656600000000000000000000000000000000600f861660108110611e57577f4e487b7100000000000000000000000000000000000000000000000000000000600052603260045260246000fd5b1a60f81b828281518110611e94577f4e487b7100000000000000000000000000000000000000000000000000000000600052603260045260246000fd5b60200101907effffffffffffffffffffffffffffffffffffffffffffffffffffffffffffff1916908160001a905350600485901c945080611ed490612c68565b9050611df2565b5060008414611f1f576040517f08c379a0000000000000000000000000000000000000000000000000000000008152600401611f169061283b565b60405180910390fd5b8091505092915050565b6000611f3c611f3784612a3b565b612a16565b905082815260208101848484011115611f5457600080fd5b611f5f848285612c26565b509392505050565b600081359050611f768161306e565b92915050565b600081359050611f8b81613085565b92915050565b600081519050611fa081613085565b92915050565b600081359050611fb58161309c565b92915050565b600081359050611fca816130b3565b92915050565b600082601f830112611fe157600080fd5b8135611ff1848260208601611f29565b91505092915050565b600081359050612009816130ca565b92915050565b60008151905061201e816130ca565b92915050565b60006020828403121561203657600080fd5b600061204484828501611f67565b91505092915050565b6000806040838503121561206057600080fd5b600061206e85828601611f67565b925050602061207f85828601611f7c565b9150509250929050565b60006020828403121561209b57600080fd5b60006120a984828501611f91565b91505092915050565b6000602082840312156120c457600080fd5b60006120d284828501611fa6565b91505092915050565b600080604083850312156120ee57600080fd5b60006120fc85828601611fa6565b925050602061210d85828601611f67565b9150509250929050565b60006020828403121561212957600080fd5b600061213784828501611fbb565b91505092915050565b6000806040838503121561215357600080fd5b600083013567ffffffffffffffff81111561216d57600080fd5b61217985828601611fd0565b925050602061218a85828601611f67565b9150509250929050565b600080600080608085870312156121aa57600080fd5b600085013567ffffffffffffffff8111156121c457600080fd5b6121d087828801611fd0565b94505060206121e187828801611f67565b93505060406121f287828801611ffa565b925050606061220387828801611f67565b91505092959194509250565b6000806000806080858703121561222557600080fd5b600085013567ffffffffffffffff81111561223f57600080fd5b61224b87828801611fd0565b945050602085013567ffffffffffffffff81111561226857600080fd5b61227487828801611fd0565b935050604061228587828801611ffa565b925050606061229687828801611f67565b91505092959194509250565b6000602082840312156122b457600080fd5b60006122c28482850161200f565b91505092915050565b6000806000606084860312156122e057600080fd5b60006122ee86828701611ffa565b93505060206122ff86828701611ffa565b925050604061231086828701611ffa565b9150509250925092565b61232381612ba8565b82525050565b61233a61233582612ba8565b612cc3565b82525050565b61234981612bba565b82525050565b61235881612bc6565b82525050565b600061236982612a6c565b6123738185612a77565b9350612383818560208601612c35565b61238c81612d74565b840191505092915050565b60006123a282612a6c565b6123ac8185612a88565b93506123bc818560208601612c35565b80840191505092915050565b60006123d5602083612a77565b91506123e082612d92565b602082019050919050565b60006123f8602683612a77565b915061240382612dbb565b604082019050919050565b600061241b600f83612a77565b915061242682612e0a565b602082019050919050565b600061243e601183612a77565b915061244982612e33565b602082019050919050565b6000612461600e83612a77565b915061246c82612e5c565b602082019050919050565b6000612484601783612a77565b915061248f82612e85565b602082019050919050565b60006124a7602083612a77565b91506124b282612eae565b602082019050919050565b60006124ca601683612a77565b91506124d582612ed7565b602082019050919050565b60006124ed600f83612a77565b91506124f882612f00565b602082019050919050565b6000612510601283612a77565b915061251b82612f29565b602082019050919050565b6000612533600f83612a77565b915061253e82612f52565b602082019050919050565b6000612556601783612a88565b915061256182612f7b565b601782019050919050565b6000612579600c83612a77565b915061258482612fa4565b602082019050919050565b600061259c600e83612a77565b91506125a782612fcd565b602082019050919050565b60006125bf601183612a88565b91506125ca82612ff6565b601182019050919050565b60006125e2602f83612a77565b91506125ed8261301f565b604082019050919050565b61260181612c1c565b82525050565b60006126138285612397565b915061261f8284612329565b6014820191508190509392505050565b600061263a82612549565b91506126468285612397565b9150612651826125b2565b915061265d8284612397565b91508190509392505050565b600060208201905061267e600083018461231a565b92915050565b6000604082019050612699600083018561231a565b6126a6602083018461231a565b9392505050565b60006060820190506126c2600083018661231a565b6126cf602083018561231a565b6126dc60408301846125f8565b949350505050565b60006060820190506126f9600083018661231a565b818103602083015261270b818561235e565b905061271a60408301846125f8565b949350505050565b6000604082019050612737600083018561231a565b61274460208301846125f8565b9392505050565b60006020820190506127606000830184612340565b92915050565b600060208201905061277b600083018461234f565b92915050565b6000602082019050818103600083015261279b818461235e565b905092915050565b600060608201905081810360008301526127bd818661235e565b905081810360208301526127d1818561235e565b90506127e060408301846125f8565b949350505050565b60006080820190508181036000830152612802818761235e565b90508181036020830152612816818661235e565b905061282560408301856125f8565b612832606083018461231a565b95945050505050565b60006020820190508181036000830152612854816123c8565b9050919050565b60006020820190508181036000830152612874816123eb565b9050919050565b600060208201905081810360008301526128948161240e565b9050919050565b600060208201905081810360008301526128b481612431565b9050919050565b600060208201905081810360008301526128d481612454565b9050919050565b600060208201905081810360008301526128f481612477565b9050919050565b600060208201905081810360008301526129148161249a565b9050919050565b60006020820190508181036000830152612934816124bd565b9050919050565b60006020820190508181036000830152612954816124e0565b9050919050565b6000602082019050818103600083015261297481612503565b9050919050565b6000602082019050818103600083015261299481612526565b9050919050565b600060208201905081810360008301526129b48161256c565b9050919050565b600060208201905081810360008301526129d48161258f565b9050919050565b600060208201905081810360008301526129f4816125d5565b9050919050565b6000602082019050612a1060008301846125f8565b92915050565b6000612a20612a31565b9050612a2c8282612c92565b919050565b6000604051905090565b600067ffffffffffffffff821115612a5657612a55612d45565b5b612a5f82612d74565b9050602081019050919050565b600081519050919050565b600082825260208201905092915050565b600081905092915050565b6000612a9e82612c1c565b9150612aa983612c1c565b9250827fffffffffffffffffffffffffffffffffffffffffffffffffffffffffffffffff03821115612ade57612add612ce7565b5b828201905092915050565b6000612af482612c1c565b9150612aff83612c1c565b925082612b0f57612b0e612d16565b5b828204905092915050565b6000612b2582612c1c565b9150612b3083612c1c565b9250817fffffffffffffffffffffffffffffffffffffffffffffffffffffffffffffffff0483118215151615612b6957612b68612ce7565b5b828202905092915050565b6000612b7f82612c1c565b9150612b8a83612c1c565b925082821015612b9d57612b9c612ce7565b5b828203905092915050565b6000612bb382612bfc565b9050919050565b60008115159050919050565b6000819050919050565b60007fffffffff0000000000000000000000000000000000000000000000000000000082169050919050565b600073ffffffffffffffffffffffffffffffffffffffff82169050919050565b6000819050919050565b82818337600083830152505050565b60005b83811015612c53578082015181840152602081019050612c38565b83811115612c62576000848401525b50505050565b6000612c7382612c1c565b91506000821415612c8757612c86612ce7565b5b600182039050919050565b612c9b82612d74565b810181811067ffffffffffffffff82111715612cba57612cb9612d45565b5b80604052505050565b6000612cce82612cd5565b9050919050565b6000612ce082612d85565b9050919050565b7f4e487b7100000000000000000000000000000000000000000000000000000000600052601160045260246000fd5b7f4e487b7100000000000000000000000000000000000000000000000000000000600052601260045260246000fd5b7f4e487b7100000000000000000000000000000000000000000000000000000000600052604160045260246000fd5b6000601f19601f8301169050919050565b60008160601b9050919050565b7f537472696e67733a20686578206c656e67746820696e73756666696369656e74600082015250565b7f4f776e61626c653a206e6577206f776e657220697320746865207a65726f206160008201527f6464726573730000000000000000000000000000000000000000000000000000602082015250565b7f4e4545445f5045524d495353494f4e0000000000000000000000000000000000600082015250565b7f544f55524e414d454e545f494e49544544000000000000000000000000000000600082015250565b7f414d4f554e545f494e56414c4944000000000000000000000000000000000000600082015250565b7f504f4f4c5f4e4f545f454e4f5547485f42414c414e4345000000000000000000600082015250565b7f4f776e61626c653a2063616c6c6572206973206e6f7420746865206f776e6572600082015250565b7f544f55524e414d454e545f5549445f494e56414c494400000000000000000000600082015250565b7f504f4f4c5f4e4f545f494e495445440000000000000000000000000000000000600082015250565b7f42414c414e43455f4e4f545f454e4f5547480000000000000000000000000000600082015250565b7f414444524553535f494e56414c49440000000000000000000000000000000000600082015250565b7f416363657373436f6e74726f6c3a206163636f756e7420000000000000000000600082015250565b7f4e4545445f415050524f56450000000000000000000000000000000000000000600082015250565b7f4e4f545f5045524d495353494f4e000000000000000000000000000000000000600082015250565b7f206973206d697373696e6720726f6c6520000000000000000000000000000000600082015250565b7f416363657373436f6e74726f6c3a2063616e206f6e6c792072656e6f756e636560008201527f20726f6c657320666f722073656c660000000000000000000000000000000000602082015250565b61307781612ba8565b811461308257600080fd5b50565b61308e81612bba565b811461309957600080fd5b50565b6130a581612bc6565b81146130b057600080fd5b50565b6130bc81612bd0565b81146130c757600080fd5b50565b6130d381612c1c565b81146130de57600080fd5b5056fea264697066735822122036324a5ee1642f134303191e2df60db0ea897c64efa271b134907d5eeb87115364736f6c63430008010033",
  "linkReferences": {},
  "deployedLinkReferences": {}
}