{
  "_format": "hh-sol-artifact-1",
  "contractName": "LPrize",
  "sourceName": "contracts/LPrize.sol",
  "abi": [
    {
      "inputs": [
        {
          "internalType": "uint256",
          "name": "_lucisFee",
          "type": "uint256"
        },
        {
          "internalType": "uint256",
          "name": "_refereeFee",
          "type": "uint256"
        },
        {
          "internalType": "address",
          "name": "_feeWallet",
          "type": "address"
        }
      ],
      "stateMutability": "nonpayable",
      "type": "constructor"
    },
    {
      "anonymous": false,
      "inputs": [
        {
          "indexed": false,
          "internalType": "string",
          "name": "poolUid",
          "type": "string"
        }
      ],
      "name": "BecomeSponsor",
      "type": "event"
    },
    {
      "anonymous": false,
      "inputs": [
        {
          "indexed": false,
          "internalType": "string",
          "name": "poolUid",
          "type": "string"
        }
      ],
      "name": "ClaimPool",
      "type": "event"
    },
    {
      "anonymous": false,
      "inputs": [
        {
          "indexed": false,
          "internalType": "string",
          "name": "poolUid",
          "type": "string"
        }
      ],
      "name": "InitPool",
      "type": "event"
    },
    {
      "anonymous": false,
      "inputs": [
        {
          "indexed": true,
          "internalType": "address",
          "name": "previousOwner",
          "type": "address"
        },
        {
          "indexed": true,
          "internalType": "address",
          "name": "newOwner",
          "type": "address"
        }
      ],
      "name": "OwnershipTransferred",
      "type": "event"
    },
    {
      "anonymous": false,
      "inputs": [
        {
          "indexed": true,
          "internalType": "bytes32",
          "name": "role",
          "type": "bytes32"
        },
        {
          "indexed": true,
          "internalType": "bytes32",
          "name": "previousAdminRole",
          "type": "bytes32"
        },
        {
          "indexed": true,
          "internalType": "bytes32",
          "name": "newAdminRole",
          "type": "bytes32"
        }
      ],
      "name": "RoleAdminChanged",
      "type": "event"
    },
    {
      "anonymous": false,
      "inputs": [
        {
          "indexed": true,
          "internalType": "bytes32",
          "name": "role",
          "type": "bytes32"
        },
        {
          "indexed": true,
          "internalType": "address",
          "name": "account",
          "type": "address"
        },
        {
          "indexed": true,
          "internalType": "address",
          "name": "sender",
          "type": "address"
        }
      ],
      "name": "RoleGranted",
      "type": "event"
    },
    {
      "anonymous": false,
      "inputs": [
        {
          "indexed": true,
          "internalType": "bytes32",
          "name": "role",
          "type": "bytes32"
        },
        {
          "indexed": true,
          "internalType": "address",
          "name": "account",
          "type": "address"
        },
        {
          "indexed": true,
          "internalType": "address",
          "name": "sender",
          "type": "address"
        }
      ],
      "name": "RoleRevoked",
      "type": "event"
    },
    {
      "inputs": [],
      "name": "DEFAULT_ADMIN_ROLE",
      "outputs": [
        {
          "internalType": "bytes32",
          "name": "",
          "type": "bytes32"
        }
      ],
      "stateMutability": "view",
      "type": "function"
    },
    {
      "inputs": [],
      "name": "MINTER_ROLE",
      "outputs": [
        {
          "internalType": "bytes32",
          "name": "",
          "type": "bytes32"
        }
      ],
      "stateMutability": "view",
      "type": "function"
    },
    {
      "inputs": [
        {
          "internalType": "string",
          "name": "tournamentUid",
          "type": "string"
        },
        {
          "internalType": "uint256",
          "name": "prize",
          "type": "uint256"
        },
        {
          "internalType": "address",
          "name": "_paymentToken",
          "type": "address"
        }
      ],
      "name": "becomeSponsor",
      "outputs": [],
      "stateMutability": "nonpayable",
      "type": "function"
    },
    {
      "inputs": [
        {
          "internalType": "string",
          "name": "tournamentUid",
          "type": "string"
        },
        {
          "internalType": "address",
          "name": "receiver",
          "type": "address"
        },
        {
          "internalType": "uint256",
          "name": "amount",
          "type": "uint256"
        },
        {
          "internalType": "address",
          "name": "_paymentToken",
          "type": "address"
        }
      ],
      "name": "claimPrize",
      "outputs": [],
      "stateMutability": "nonpayable",
      "type": "function"
    },
    {
      "inputs": [
        {
          "internalType": "string",
          "name": "tournamentUid",
          "type": "string"
        }
      ],
      "name": "getPoolSize",
      "outputs": [
        {
          "internalType": "uint256",
          "name": "",
          "type": "uint256"
        }
      ],
      "stateMutability": "view",
      "type": "function"
    },
    {
      "inputs": [
        {
          "internalType": "bytes32",
          "name": "role",
          "type": "bytes32"
        }
      ],
      "name": "getRoleAdmin",
      "outputs": [
        {
          "internalType": "bytes32",
          "name": "",
          "type": "bytes32"
        }
      ],
      "stateMutability": "view",
      "type": "function"
    },
    {
      "inputs": [
        {
          "internalType": "bytes32",
          "name": "role",
          "type": "bytes32"
        },
        {
          "internalType": "address",
          "name": "account",
          "type": "address"
        }
      ],
      "name": "grantRole",
      "outputs": [],
      "stateMutability": "nonpayable",
      "type": "function"
    },
    {
      "inputs": [
        {
          "internalType": "bytes32",
          "name": "role",
          "type": "bytes32"
        },
        {
          "internalType": "address",
          "name": "account",
          "type": "address"
        }
      ],
      "name": "hasRole",
      "outputs": [
        {
          "internalType": "bool",
          "name": "",
          "type": "bool"
        }
      ],
      "stateMutability": "view",
      "type": "function"
    },
    {
      "inputs": [
        {
          "internalType": "string",
          "name": "tournamentUid",
          "type": "string"
        },
        {
          "internalType": "uint256",
          "name": "prize",
          "type": "uint256"
        },
        {
          "internalType": "address",
          "name": "_paymentToken",
          "type": "address"
        }
      ],
      "name": "initTournament",
      "outputs": [],
      "stateMutability": "nonpayable",
      "type": "function"
    },
    {
      "inputs": [],
      "name": "owner",
      "outputs": [
        {
          "internalType": "address",
          "name": "",
          "type": "address"
        }
      ],
      "stateMutability": "view",
      "type": "function"
    },
    {
      "inputs": [
        {
          "internalType": "address",
          "name": "receiver",
          "type": "address"
        },
        {
          "internalType": "uint256",
          "name": "amount",
          "type": "uint256"
        },
        {
          "internalType": "address",
          "name": "_paymentToken",
          "type": "address"
        }
      ],
      "name": "receiverClaim",
      "outputs": [],
      "stateMutability": "nonpayable",
      "type": "function"
    },
    {
      "inputs": [],
      "name": "renounceOwnership",
      "outputs": [],
      "stateMutability": "nonpayable",
      "type": "function"
    },
    {
      "inputs": [
        {
          "internalType": "bytes32",
          "name": "role",
          "type": "bytes32"
        },
        {
          "internalType": "address",
          "name": "account",
          "type": "address"
        }
      ],
      "name": "renounceRole",
      "outputs": [],
      "stateMutability": "nonpayable",
      "type": "function"
    },
    {
      "inputs": [
        {
          "internalType": "bytes32",
          "name": "role",
          "type": "bytes32"
        },
        {
          "internalType": "address",
          "name": "account",
          "type": "address"
        }
      ],
      "name": "revokeRole",
      "outputs": [],
      "stateMutability": "nonpayable",
      "type": "function"
    },
    {
      "inputs": [
        {
          "internalType": "bytes4",
          "name": "interfaceId",
          "type": "bytes4"
        }
      ],
      "name": "supportsInterface",
      "outputs": [
        {
          "internalType": "bool",
          "name": "",
          "type": "bool"
        }
      ],
      "stateMutability": "view",
      "type": "function"
    },
    {
      "inputs": [
        {
          "internalType": "address",
          "name": "newOwner",
          "type": "address"
        }
      ],
      "name": "transferOwnership",
      "outputs": [],
      "stateMutability": "nonpayable",
      "type": "function"
    }
  ],
  "bytecode": "0x60806040523480156200001157600080fd5b50604051620031ca380380620031ca833981810160405281019062000037919062000381565b620000576200004b6200011460201b60201c565b6200011c60201b60201c565b6200007b6000801b6200006f6200011460201b60201c565b620001e260201b60201c565b620000bc7f9f2df0fed2c77648de5860a4cc508cd0818c85b8b8a1ab4ceeef8d981c8956a6620000b06200011460201b60201c565b620001e260201b60201c565b826007819055508160088190555080600960006101000a81548173ffffffffffffffffffffffffffffffffffffffff021916908373ffffffffffffffffffffffffffffffffffffffff16021790555050505062000449565b600033905090565b6000600160009054906101000a900473ffffffffffffffffffffffffffffffffffffffff16905081600160006101000a81548173ffffffffffffffffffffffffffffffffffffffff021916908373ffffffffffffffffffffffffffffffffffffffff1602179055508173ffffffffffffffffffffffffffffffffffffffff168173ffffffffffffffffffffffffffffffffffffffff167f8be0079c531659141344cd1fd0a4f28419497f9722a3daafe3b4186f6b6457e060405160405180910390a35050565b620001f48282620001f860201b60201c565b5050565b6200020a8282620002e960201b60201c565b620002e557600160008084815260200190815260200160002060000160008373ffffffffffffffffffffffffffffffffffffffff1673ffffffffffffffffffffffffffffffffffffffff16815260200190815260200160002060006101000a81548160ff0219169083151502179055506200028a6200011460201b60201c565b73ffffffffffffffffffffffffffffffffffffffff168173ffffffffffffffffffffffffffffffffffffffff16837f2f8788117e7eff1d82e926ec794901d17c78024a50270940304540a733656f0d60405160405180910390a45b5050565b600080600084815260200190815260200160002060000160008373ffffffffffffffffffffffffffffffffffffffff1673ffffffffffffffffffffffffffffffffffffffff16815260200190815260200160002060009054906101000a900460ff16905092915050565b600081519050620003648162000415565b92915050565b6000815190506200037b816200042f565b92915050565b6000806000606084860312156200039757600080fd5b6000620003a7868287016200036a565b9350506020620003ba868287016200036a565b9250506040620003cd8682870162000353565b9150509250925092565b6000620003e482620003eb565b9050919050565b600073ffffffffffffffffffffffffffffffffffffffff82169050919050565b6000819050919050565b6200042081620003d7565b81146200042c57600080fd5b50565b6200043a816200040b565b81146200044657600080fd5b50565b612d7180620004596000396000f3fe608060405234801561001057600080fd5b50600436106101005760003560e01c80638da5cb5b11610097578063b7e2020811610066578063b7e2020814610283578063d5391393146102b3578063d547741f146102d1578063f2fde38b146102ed57610100565b80638da5cb5b146101fb57806391d1485414610219578063a217fddf14610249578063aeaad3ab1461026757610100565b80632f2ff15d116100d35780632f2ff15d1461019d57806336568abe146101b9578063715018a6146101d557806377da07a3146101df57610100565b806301fb7b741461010557806301ffc9a7146101215780630ed53b7a14610151578063248a9ca31461016d575b600080fd5b61011f600480360381019061011a9190611de5565b610309565b005b61013b60048036038101906101369190611ec2565b610475565b6040516101489190612425565b60405180910390f35b61016b60048036038101906101669190611f2c565b610487565b005b61018760048036038101906101829190611e5d565b6107ef565b6040516101949190612440565b60405180910390f35b6101b760048036038101906101b29190611e86565b61080e565b005b6101d360048036038101906101ce9190611e86565b610837565b005b6101dd6108ba565b005b6101f960048036038101906101f49190611fa7565b610942565b005b610203610e63565b6040516102109190612381565b60405180910390f35b610233600480360381019061022e9190611e86565b610e8d565b6040516102409190612425565b60405180910390f35b610251610ef7565b60405161025e9190612440565b60405180910390f35b610281600480360381019061027c9190611fa7565b610efe565b005b61029d60048036038101906102989190611eeb565b6113f6565b6040516102aa919061265d565b60405180910390f35b6102bb611487565b6040516102c89190612440565b60405180910390f35b6102eb60048036038101906102e69190611e86565b6114ab565b005b61030760048036038101906103029190611dbc565b6114d4565b005b600081905060008173ffffffffffffffffffffffffffffffffffffffff166370a08231306040518263ffffffff1660e01b81526004016103499190612381565b60206040518083038186803b15801561036157600080fd5b505afa158015610375573d6000803e3d6000fd5b505050506040513d601f19601f82011682018060405250810190610399919061200e565b9050838110156103de576040517f08c379a00000000000000000000000000000000000000000000000000000000081526004016103d59061249d565b60405180910390fd5b8173ffffffffffffffffffffffffffffffffffffffff166323b872dd3087876040518463ffffffff1660e01b815260040161041b939291906123c5565b602060405180830381600087803b15801561043557600080fd5b505af1158015610449573d6000803e3d6000fd5b505050506040513d601f19601f8201168201806040525081019061046d9190611e34565b505050505050565b6000610480826115cc565b9050919050565b6104b17f9f2df0fed2c77648de5860a4cc508cd0818c85b8b8a1ab4ceeef8d981c8956a633610e8d565b6104f0576040517f08c379a00000000000000000000000000000000000000000000000000000000081526004016104e7906124bd565b60405180910390fd5b60008211610533576040517f08c379a000000000000000000000000000000000000000000000000000000000815260040161052a9061261d565b60405180910390fd5b602d845110610577576040517f08c379a000000000000000000000000000000000000000000000000000000000815260040161056e906125dd565b60405180910390fd5b60006002856040516105899190612330565b9081526020016040518091039020549050828110156105dd576040517f08c379a00000000000000000000000000000000000000000000000000000000081526004016105d49061257d565b60405180910390fd5b60008273ffffffffffffffffffffffffffffffffffffffff163b11610637576040517f08c379a000000000000000000000000000000000000000000000000000000000815260040161062e9061253d565b60405180910390fd5b600082905060008173ffffffffffffffffffffffffffffffffffffffff166370a08231306040518263ffffffff1660e01b81526004016106779190612381565b60206040518083038186803b15801561068f57600080fd5b505afa1580156106a3573d6000803e3d6000fd5b505050506040513d601f19601f820116820180604052508101906106c7919061200e565b90508481101561070c576040517f08c379a0000000000000000000000000000000000000000000000000000000008152600401610703906125fd565b60405180910390fd5b8173ffffffffffffffffffffffffffffffffffffffff1663a9059cbb87876040518363ffffffff1660e01b81526004016107479291906123fc565b602060405180830381600087803b15801561076157600080fd5b505af1158015610775573d6000803e3d6000fd5b505050506040513d601f19601f820116820180604052508101906107999190611e34565b50846002886040516107ab9190612330565b9081526020016040518091039020546107c491906127d6565b6002886040516107d49190612330565b90815260200160405180910390208190555050505050505050565b6000806000838152602001908152602001600020600101549050919050565b610817826107ef565b61082881610823611646565b61164e565b61083283836116eb565b505050565b61083f611646565b73ffffffffffffffffffffffffffffffffffffffff168173ffffffffffffffffffffffffffffffffffffffff16146108ac576040517f08c379a00000000000000000000000000000000000000000000000000000000081526004016108a39061263d565b60405180910390fd5b6108b682826117cb565b5050565b6108c2611646565b73ffffffffffffffffffffffffffffffffffffffff166108e0610e63565b73ffffffffffffffffffffffffffffffffffffffff1614610936576040517f08c379a000000000000000000000000000000000000000000000000000000000815260040161092d906125bd565b60405180910390fd5b61094060006118ac565b565b602d835110610986576040517f08c379a000000000000000000000000000000000000000000000000000000000815260040161097d906125dd565b60405180910390fd5b60006002846040516109989190612330565b908152602001604051809103902054116109e7576040517f08c379a00000000000000000000000000000000000000000000000000000000081526004016109de9061257d565b60405180910390fd5b60008211610a2a576040517f08c379a0000000000000000000000000000000000000000000000000000000008152600401610a219061259d565b60405180910390fd5b60008173ffffffffffffffffffffffffffffffffffffffff163b11610a84576040517f08c379a0000000000000000000000000000000000000000000000000000000008152600401610a7b9061253d565b60405180910390fd5b600081905060008173ffffffffffffffffffffffffffffffffffffffff1663dd62ed3e33306040518363ffffffff1660e01b8152600401610ac692919061239c565b60206040518083038186803b158015610ade57600080fd5b505afa158015610af2573d6000803e3d6000fd5b505050506040513d601f19601f82011682018060405250810190610b16919061200e565b90506000606485600754610b2a919061277c565b610b34919061274b565b90506000606486600854610b48919061277c565b610b52919061274b565b90506000818388610b6391906126f5565b610b6d91906126f5565b905080841015610bb2576040517f08c379a0000000000000000000000000000000000000000000000000000000008152600401610ba99061255d565b60405180910390fd5b60008573ffffffffffffffffffffffffffffffffffffffff166370a08231336040518263ffffffff1660e01b8152600401610bed9190612381565b60206040518083038186803b158015610c0557600080fd5b505afa158015610c19573d6000803e3d6000fd5b505050506040513d601f19601f82011682018060405250810190610c3d919061200e565b905081811015610c82576040517f08c379a0000000000000000000000000000000000000000000000000000000008152600401610c79906125fd565b60405180910390fd5b60008389610c9091906126f5565b90508673ffffffffffffffffffffffffffffffffffffffff166323b872dd3330846040518463ffffffff1660e01b8152600401610ccf939291906123c5565b602060405180830381600087803b158015610ce957600080fd5b505af1158015610cfd573d6000803e3d6000fd5b505050506040513d601f19601f82011682018060405250810190610d219190611e34565b508673ffffffffffffffffffffffffffffffffffffffff166323b872dd33600960009054906101000a900473ffffffffffffffffffffffffffffffffffffffff16886040518463ffffffff1660e01b8152600401610d81939291906123c5565b602060405180830381600087803b158015610d9b57600080fd5b505af1158015610daf573d6000803e3d6000fd5b505050506040513d601f19601f82011682018060405250810190610dd39190611e34565b508060028b604051610de59190612330565b908152602001604051809103902054610dfe91906126f5565b60028b604051610e0e9190612330565b9081526020016040518091039020819055507f4d5c8fa9ef9cf06c6c7ac7a79db2120570adfc7c70801c7611fb1d8ba35866858a604051610e4f919061245b565b60405180910390a150505050505050505050565b6000600160009054906101000a900473ffffffffffffffffffffffffffffffffffffffff16905090565b600080600084815260200190815260200160002060000160008373ffffffffffffffffffffffffffffffffffffffff1673ffffffffffffffffffffffffffffffffffffffff16815260200190815260200160002060009054906101000a900460ff16905092915050565b6000801b81565b602d835110610f42576040517f08c379a0000000000000000000000000000000000000000000000000000000008152600401610f39906125dd565b60405180910390fd5b6000600284604051610f549190612330565b90815260200160405180910390205414610fa3576040517f08c379a0000000000000000000000000000000000000000000000000000000008152600401610f9a906124fd565b60405180910390fd5b60008211610fe6576040517f08c379a0000000000000000000000000000000000000000000000000000000008152600401610fdd9061251d565b60405180910390fd5b60008173ffffffffffffffffffffffffffffffffffffffff163b11611040576040517f08c379a00000000000000000000000000000000000000000000000000000000081526004016110379061253d565b60405180910390fd5b600081905060008173ffffffffffffffffffffffffffffffffffffffff1663dd62ed3e33306040518363ffffffff1660e01b815260040161108292919061239c565b60206040518083038186803b15801561109a57600080fd5b505afa1580156110ae573d6000803e3d6000fd5b505050506040513d601f19601f820116820180604052508101906110d2919061200e565b905060006064856007546110e6919061277c565b6110f0919061274b565b90506000606486600854611104919061277c565b61110e919061274b565b9050600081838861111f91906126f5565b61112991906126f5565b90508084101561116e576040517f08c379a00000000000000000000000000000000000000000000000000000000081526004016111659061255d565b60405180910390fd5b60008573ffffffffffffffffffffffffffffffffffffffff166370a08231336040518263ffffffff1660e01b81526004016111a99190612381565b60206040518083038186803b1580156111c157600080fd5b505afa1580156111d5573d6000803e3d6000fd5b505050506040513d601f19601f820116820180604052508101906111f9919061200e565b90508181101561123e576040517f08c379a0000000000000000000000000000000000000000000000000000000008152600401611235906125fd565b60405180910390fd5b6000838961124c91906126f5565b90508673ffffffffffffffffffffffffffffffffffffffff166323b872dd3330846040518463ffffffff1660e01b815260040161128b939291906123c5565b602060405180830381600087803b1580156112a557600080fd5b505af11580156112b9573d6000803e3d6000fd5b505050506040513d601f19601f820116820180604052508101906112dd9190611e34565b508673ffffffffffffffffffffffffffffffffffffffff166323b872dd33600960009054906101000a900473ffffffffffffffffffffffffffffffffffffffff16886040518463ffffffff1660e01b815260040161133d939291906123c5565b602060405180830381600087803b15801561135757600080fd5b505af115801561136b573d6000803e3d6000fd5b505050506040513d601f19601f8201168201806040525081019061138f9190611e34565b508060028b6040516113a19190612330565b9081526020016040518091039020819055507fcd7aab3c1a12647c62cffba482037d331616107ee5cdd20271269d7738691c778a6040516113e2919061245b565b60405180910390a150505050505050505050565b60006114227f9f2df0fed2c77648de5860a4cc508cd0818c85b8b8a1ab4ceeef8d981c8956a633610e8d565b611461576040517f08c379a0000000000000000000000000000000000000000000000000000000008152600401611458906124bd565b60405180910390fd5b6002826040516114719190612330565b9081526020016040518091039020549050919050565b7f9f2df0fed2c77648de5860a4cc508cd0818c85b8b8a1ab4ceeef8d981c8956a681565b6114b4826107ef565b6114c5816114c0611646565b61164e565b6114cf83836117cb565b505050565b6114dc611646565b73ffffffffffffffffffffffffffffffffffffffff166114fa610e63565b73ffffffffffffffffffffffffffffffffffffffff1614611550576040517f08c379a0000000000000000000000000000000000000000000000000000000008152600401611547906125bd565b60405180910390fd5b600073ffffffffffffffffffffffffffffffffffffffff168173ffffffffffffffffffffffffffffffffffffffff1614156115c0576040517f08c379a00000000000000000000000000000000000000000000000000000000081526004016115b7906124dd565b60405180910390fd5b6115c9816118ac565b50565b60007f7965db0b000000000000000000000000000000000000000000000000000000007bffffffffffffffffffffffffffffffffffffffffffffffffffffffff1916827bffffffffffffffffffffffffffffffffffffffffffffffffffffffff1916148061163f575061163e82611972565b5b9050919050565b600033905090565b6116588282610e8d565b6116e75761167d8173ffffffffffffffffffffffffffffffffffffffff1660146119dc565b61168b8360001c60206119dc565b60405160200161169c929190612347565b6040516020818303038152906040526040517f08c379a00000000000000000000000000000000000000000000000000000000081526004016116de919061245b565b60405180910390fd5b5050565b6116f58282610e8d565b6117c757600160008084815260200190815260200160002060000160008373ffffffffffffffffffffffffffffffffffffffff1673ffffffffffffffffffffffffffffffffffffffff16815260200190815260200160002060006101000a81548160ff02191690831515021790555061176c611646565b73ffffffffffffffffffffffffffffffffffffffff168173ffffffffffffffffffffffffffffffffffffffff16837f2f8788117e7eff1d82e926ec794901d17c78024a50270940304540a733656f0d60405160405180910390a45b5050565b6117d58282610e8d565b156118a857600080600084815260200190815260200160002060000160008373ffffffffffffffffffffffffffffffffffffffff1673ffffffffffffffffffffffffffffffffffffffff16815260200190815260200160002060006101000a81548160ff02191690831515021790555061184d611646565b73ffffffffffffffffffffffffffffffffffffffff168173ffffffffffffffffffffffffffffffffffffffff16837ff6391f5c32d9c69d2a47ea670b442974b53935d1edc7fd64eb21e047a839171b60405160405180910390a45b5050565b6000600160009054906101000a900473ffffffffffffffffffffffffffffffffffffffff16905081600160006101000a81548173ffffffffffffffffffffffffffffffffffffffff021916908373ffffffffffffffffffffffffffffffffffffffff1602179055508173ffffffffffffffffffffffffffffffffffffffff168173ffffffffffffffffffffffffffffffffffffffff167f8be0079c531659141344cd1fd0a4f28419497f9722a3daafe3b4186f6b6457e060405160405180910390a35050565b60007f01ffc9a7000000000000000000000000000000000000000000000000000000007bffffffffffffffffffffffffffffffffffffffffffffffffffffffff1916827bffffffffffffffffffffffffffffffffffffffffffffffffffffffff1916149050919050565b6060600060028360026119ef919061277c565b6119f991906126f5565b67ffffffffffffffff811115611a38577f4e487b7100000000000000000000000000000000000000000000000000000000600052604160045260246000fd5b6040519080825280601f01601f191660200182016040528015611a6a5781602001600182028036833780820191505090505b5090507f300000000000000000000000000000000000000000000000000000000000000081600081518110611ac8577f4e487b7100000000000000000000000000000000000000000000000000000000600052603260045260246000fd5b60200101907effffffffffffffffffffffffffffffffffffffffffffffffffffffffffffff1916908160001a9053507f780000000000000000000000000000000000000000000000000000000000000081600181518110611b52577f4e487b7100000000000000000000000000000000000000000000000000000000600052603260045260246000fd5b60200101907effffffffffffffffffffffffffffffffffffffffffffffffffffffffffffff1916908160001a90535060006001846002611b92919061277c565b611b9c91906126f5565b90505b6001811115611c88577f3031323334353637383961626364656600000000000000000000000000000000600f861660108110611c04577f4e487b7100000000000000000000000000000000000000000000000000000000600052603260045260246000fd5b1a60f81b828281518110611c41577f4e487b7100000000000000000000000000000000000000000000000000000000600052603260045260246000fd5b60200101907effffffffffffffffffffffffffffffffffffffffffffffffffffffffffffff1916908160001a905350600485901c945080611c81906128ca565b9050611b9f565b5060008414611ccc576040517f08c379a0000000000000000000000000000000000000000000000000000000008152600401611cc39061247d565b60405180910390fd5b8091505092915050565b6000611ce9611ce48461269d565b612678565b905082815260208101848484011115611d0157600080fd5b611d0c848285612888565b509392505050565b600081359050611d2381612cc8565b92915050565b600081519050611d3881612cdf565b92915050565b600081359050611d4d81612cf6565b92915050565b600081359050611d6281612d0d565b92915050565b600082601f830112611d7957600080fd5b8135611d89848260208601611cd6565b91505092915050565b600081359050611da181612d24565b92915050565b600081519050611db681612d24565b92915050565b600060208284031215611dce57600080fd5b6000611ddc84828501611d14565b91505092915050565b600080600060608486031215611dfa57600080fd5b6000611e0886828701611d14565b9350506020611e1986828701611d92565b9250506040611e2a86828701611d14565b9150509250925092565b600060208284031215611e4657600080fd5b6000611e5484828501611d29565b91505092915050565b600060208284031215611e6f57600080fd5b6000611e7d84828501611d3e565b91505092915050565b60008060408385031215611e9957600080fd5b6000611ea785828601611d3e565b9250506020611eb885828601611d14565b9150509250929050565b600060208284031215611ed457600080fd5b6000611ee284828501611d53565b91505092915050565b600060208284031215611efd57600080fd5b600082013567ffffffffffffffff811115611f1757600080fd5b611f2384828501611d68565b91505092915050565b60008060008060808587031215611f4257600080fd5b600085013567ffffffffffffffff811115611f5c57600080fd5b611f6887828801611d68565b9450506020611f7987828801611d14565b9350506040611f8a87828801611d92565b9250506060611f9b87828801611d14565b91505092959194509250565b600080600060608486031215611fbc57600080fd5b600084013567ffffffffffffffff811115611fd657600080fd5b611fe286828701611d68565b9350506020611ff386828701611d92565b925050604061200486828701611d14565b9150509250925092565b60006020828403121561202057600080fd5b600061202e84828501611da7565b91505092915050565b6120408161280a565b82525050565b61204f8161281c565b82525050565b61205e81612828565b82525050565b600061206f826126ce565b61207981856126d9565b9350612089818560208601612897565b612092816129b2565b840191505092915050565b60006120a8826126ce565b6120b281856126ea565b93506120c2818560208601612897565b80840191505092915050565b60006120db6020836126d9565b91506120e6826129c3565b602082019050919050565b60006120fe6012836126d9565b9150612109826129ec565b602082019050919050565b60006121216015836126d9565b915061212c82612a15565b602082019050919050565b60006121446026836126d9565b915061214f82612a3e565b604082019050919050565b60006121676011836126d9565b915061217282612a8d565b602082019050919050565b600061218a601c836126d9565b915061219582612ab6565b602082019050919050565b60006121ad601d836126d9565b91506121b882612adf565b602082019050919050565b60006121d06017836126d9565b91506121db82612b08565b602082019050919050565b60006121f36014836126d9565b91506121fe82612b31565b602082019050919050565b6000612216601d836126d9565b915061222182612b5a565b602082019050919050565b60006122396020836126d9565b915061224482612b83565b602082019050919050565b600061225c6018836126d9565b915061226782612bac565b602082019050919050565b600061227f601b836126d9565b915061228a82612bd5565b602082019050919050565b60006122a26017836126ea565b91506122ad82612bfe565b601782019050919050565b60006122c56011836126ea565b91506122d082612c27565b601182019050919050565b60006122e86010836126d9565b91506122f382612c50565b602082019050919050565b600061230b602f836126d9565b915061231682612c79565b604082019050919050565b61232a8161287e565b82525050565b600061233c828461209d565b915081905092915050565b600061235282612295565b915061235e828561209d565b9150612369826122b8565b9150612375828461209d565b91508190509392505050565b60006020820190506123966000830184612037565b92915050565b60006040820190506123b16000830185612037565b6123be6020830184612037565b9392505050565b60006060820190506123da6000830186612037565b6123e76020830185612037565b6123f46040830184612321565b949350505050565b60006040820190506124116000830185612037565b61241e6020830184612321565b9392505050565b600060208201905061243a6000830184612046565b92915050565b60006020820190506124556000830184612055565b92915050565b600060208201905081810360008301526124758184612064565b905092915050565b60006020820190508181036000830152612496816120ce565b9050919050565b600060208201905081810360008301526124b6816120f1565b9050919050565b600060208201905081810360008301526124d681612114565b9050919050565b600060208201905081810360008301526124f681612137565b9050919050565b600060208201905081810360008301526125168161215a565b9050919050565b600060208201905081810360008301526125368161217d565b9050919050565b60006020820190508181036000830152612556816121a0565b9050919050565b60006020820190508181036000830152612576816121c3565b9050919050565b60006020820190508181036000830152612596816121e6565b9050919050565b600060208201905081810360008301526125b681612209565b9050919050565b600060208201905081810360008301526125d68161222c565b9050919050565b600060208201905081810360008301526125f68161224f565b9050919050565b6000602082019050818103600083015261261681612272565b9050919050565b60006020820190508181036000830152612636816122db565b9050919050565b60006020820190508181036000830152612656816122fe565b9050919050565b60006020820190506126726000830184612321565b92915050565b6000612682612693565b905061268e82826128f4565b919050565b6000604051905090565b600067ffffffffffffffff8211156126b8576126b7612983565b5b6126c1826129b2565b9050602081019050919050565b600081519050919050565b600082825260208201905092915050565b600081905092915050565b60006127008261287e565b915061270b8361287e565b9250827fffffffffffffffffffffffffffffffffffffffffffffffffffffffffffffffff038211156127405761273f612925565b5b828201905092915050565b60006127568261287e565b91506127618361287e565b92508261277157612770612954565b5b828204905092915050565b60006127878261287e565b91506127928361287e565b9250817fffffffffffffffffffffffffffffffffffffffffffffffffffffffffffffffff04831182151516156127cb576127ca612925565b5b828202905092915050565b60006127e18261287e565b91506127ec8361287e565b9250828210156127ff576127fe612925565b5b828203905092915050565b60006128158261285e565b9050919050565b60008115159050919050565b6000819050919050565b60007fffffffff0000000000000000000000000000000000000000000000000000000082169050919050565b600073ffffffffffffffffffffffffffffffffffffffff82169050919050565b6000819050919050565b82818337600083830152505050565b60005b838110156128b557808201518184015260208101905061289a565b838111156128c4576000848401525b50505050565b60006128d58261287e565b915060008214156128e9576128e8612925565b5b600182039050919050565b6128fd826129b2565b810181811067ffffffffffffffff8211171561291c5761291b612983565b5b80604052505050565b7f4e487b7100000000000000000000000000000000000000000000000000000000600052601160045260246000fd5b7f4e487b7100000000000000000000000000000000000000000000000000000000600052601260045260246000fd5b7f4e487b7100000000000000000000000000000000000000000000000000000000600052604160045260246000fd5b6000601f19601f8301169050919050565b7f537472696e67733a20686578206c656e67746820696e73756666696369656e74600082015250565b7f62616c616e6365206e6f7420656e6f7567680000000000000000000000000000600082015250565b7f6d7573742068617665206d696e74657220726f6c650000000000000000000000600082015250565b7f4f776e61626c653a206e6577206f776e657220697320746865207a65726f206160008201527f6464726573730000000000000000000000000000000000000000000000000000602082015250565b7f746f75726e616d656e7420696e69746564000000000000000000000000000000600082015250565b7f7072697a65206d7573742062652067726561746572207468616e203000000000600082015250565b7f7061796d656e7420746f6b656e206164647265737320696e76616c6964000000600082015250565b7f616c6c6f77616e6365206973206e6f7420656e6f756768000000000000000000600082015250565b7f746f75726e616d656e74206e6f742076616c6964000000000000000000000000600082015250565b7f616d6f756e74206d7573742062652067726561746572207468616e2030000000600082015250565b7f4f776e61626c653a2063616c6c6572206973206e6f7420746865206f776e6572600082015250565b7f746f75726e616d656e7420756964206e6f742076616c69640000000000000000600082015250565b7f746f6b656e2062616c616e6365206973206e6f7420656e6f7567680000000000600082015250565b7f416363657373436f6e74726f6c3a206163636f756e7420000000000000000000600082015250565b7f206973206d697373696e6720726f6c6520000000000000000000000000000000600082015250565b7f616d6f756e74206e6f742076616c696400000000000000000000000000000000600082015250565b7f416363657373436f6e74726f6c3a2063616e206f6e6c792072656e6f756e636560008201527f20726f6c657320666f722073656c660000000000000000000000000000000000602082015250565b612cd18161280a565b8114612cdc57600080fd5b50565b612ce88161281c565b8114612cf357600080fd5b50565b612cff81612828565b8114612d0a57600080fd5b50565b612d1681612832565b8114612d2157600080fd5b50565b612d2d8161287e565b8114612d3857600080fd5b5056fea26469706673582212200b90898ce36621e2a412aef912d14411b1a7f1abc5c480edb34722174d8ff82964736f6c63430008010033",
  "linkReferences": {},
  "deployedLinkReferences": {}
}