{
  "_format": "hh-sol-artifact-1",
  "contractName": "LPrize",
  "sourceName": "contracts/LPrize.sol",
  "abi": [
    {
      "inputs": [
        {
          "internalType": "uint256",
          "name": "_lucisFee",
          "type": "uint256"
        },
        {
          "internalType": "uint256",
          "name": "_refereeFee",
          "type": "uint256"
        },
        {
          "internalType": "address",
          "name": "_feeWallet",
          "type": "address"
        }
      ],
      "stateMutability": "nonpayable",
      "type": "constructor"
    },
    {
      "anonymous": false,
      "inputs": [
        {
          "indexed": false,
          "internalType": "string",
          "name": "userId",
          "type": "string"
        },
        {
          "indexed": false,
          "internalType": "string",
          "name": "tournamentUid",
          "type": "string"
        },
        {
          "indexed": false,
          "internalType": "uint256",
          "name": "amount",
          "type": "uint256"
        }
      ],
      "name": "BecomeSponsor",
      "type": "event"
    },
    {
      "anonymous": false,
      "inputs": [
        {
          "indexed": false,
          "internalType": "address",
          "name": "receiver",
          "type": "address"
        },
        {
          "indexed": false,
          "internalType": "string",
          "name": "tournamentUid",
          "type": "string"
        },
        {
          "indexed": false,
          "internalType": "uint256",
          "name": "amount",
          "type": "uint256"
        }
      ],
      "name": "ClaimPrize",
      "type": "event"
    },
    {
      "anonymous": false,
      "inputs": [
        {
          "indexed": false,
          "internalType": "string",
          "name": "userId",
          "type": "string"
        },
        {
          "indexed": false,
          "internalType": "string",
          "name": "tournamentUid",
          "type": "string"
        },
        {
          "indexed": false,
          "internalType": "uint256",
          "name": "amount",
          "type": "uint256"
        }
      ],
      "name": "InitPool",
      "type": "event"
    },
    {
      "anonymous": false,
      "inputs": [
        {
          "indexed": true,
          "internalType": "address",
          "name": "previousOwner",
          "type": "address"
        },
        {
          "indexed": true,
          "internalType": "address",
          "name": "newOwner",
          "type": "address"
        }
      ],
      "name": "OwnershipTransferred",
      "type": "event"
    },
    {
      "anonymous": false,
      "inputs": [
        {
          "indexed": true,
          "internalType": "bytes32",
          "name": "role",
          "type": "bytes32"
        },
        {
          "indexed": true,
          "internalType": "bytes32",
          "name": "previousAdminRole",
          "type": "bytes32"
        },
        {
          "indexed": true,
          "internalType": "bytes32",
          "name": "newAdminRole",
          "type": "bytes32"
        }
      ],
      "name": "RoleAdminChanged",
      "type": "event"
    },
    {
      "anonymous": false,
      "inputs": [
        {
          "indexed": true,
          "internalType": "bytes32",
          "name": "role",
          "type": "bytes32"
        },
        {
          "indexed": true,
          "internalType": "address",
          "name": "account",
          "type": "address"
        },
        {
          "indexed": true,
          "internalType": "address",
          "name": "sender",
          "type": "address"
        }
      ],
      "name": "RoleGranted",
      "type": "event"
    },
    {
      "anonymous": false,
      "inputs": [
        {
          "indexed": true,
          "internalType": "bytes32",
          "name": "role",
          "type": "bytes32"
        },
        {
          "indexed": true,
          "internalType": "address",
          "name": "account",
          "type": "address"
        },
        {
          "indexed": true,
          "internalType": "address",
          "name": "sender",
          "type": "address"
        }
      ],
      "name": "RoleRevoked",
      "type": "event"
    },
    {
      "inputs": [],
      "name": "DEFAULT_ADMIN_ROLE",
      "outputs": [
        {
          "internalType": "bytes32",
          "name": "",
          "type": "bytes32"
        }
      ],
      "stateMutability": "view",
      "type": "function"
    },
    {
      "inputs": [],
      "name": "MINTER_ROLE",
      "outputs": [
        {
          "internalType": "bytes32",
          "name": "",
          "type": "bytes32"
        }
      ],
      "stateMutability": "view",
      "type": "function"
    },
    {
      "inputs": [
        {
          "internalType": "string",
          "name": "userId",
          "type": "string"
        },
        {
          "internalType": "string",
          "name": "tournamentUid",
          "type": "string"
        },
        {
          "internalType": "uint256",
          "name": "amount",
          "type": "uint256"
        },
        {
          "internalType": "address",
          "name": "_paymentToken",
          "type": "address"
        }
      ],
      "name": "becomeSponsor",
      "outputs": [],
      "stateMutability": "nonpayable",
      "type": "function"
    },
    {
      "inputs": [
        {
          "internalType": "string",
          "name": "tournamentUid",
          "type": "string"
        },
        {
          "internalType": "address",
          "name": "receiver",
          "type": "address"
        },
        {
          "internalType": "uint256",
          "name": "amount",
          "type": "uint256"
        },
        {
          "internalType": "address",
          "name": "_paymentToken",
          "type": "address"
        }
      ],
      "name": "claimPrize",
      "outputs": [],
      "stateMutability": "nonpayable",
      "type": "function"
    },
    {
      "inputs": [
        {
          "internalType": "string",
          "name": "tournamentUid",
          "type": "string"
        }
      ],
      "name": "getPoolSize",
      "outputs": [
        {
          "internalType": "uint256",
          "name": "",
          "type": "uint256"
        }
      ],
      "stateMutability": "view",
      "type": "function"
    },
    {
      "inputs": [
        {
          "internalType": "bytes32",
          "name": "role",
          "type": "bytes32"
        }
      ],
      "name": "getRoleAdmin",
      "outputs": [
        {
          "internalType": "bytes32",
          "name": "",
          "type": "bytes32"
        }
      ],
      "stateMutability": "view",
      "type": "function"
    },
    {
      "inputs": [
        {
          "internalType": "bytes32",
          "name": "role",
          "type": "bytes32"
        },
        {
          "internalType": "address",
          "name": "account",
          "type": "address"
        }
      ],
      "name": "grantRole",
      "outputs": [],
      "stateMutability": "nonpayable",
      "type": "function"
    },
    {
      "inputs": [
        {
          "internalType": "bytes32",
          "name": "role",
          "type": "bytes32"
        },
        {
          "internalType": "address",
          "name": "account",
          "type": "address"
        }
      ],
      "name": "hasRole",
      "outputs": [
        {
          "internalType": "bool",
          "name": "",
          "type": "bool"
        }
      ],
      "stateMutability": "view",
      "type": "function"
    },
    {
      "inputs": [
        {
          "internalType": "string",
          "name": "userId",
          "type": "string"
        },
        {
          "internalType": "string",
          "name": "tournamentUid",
          "type": "string"
        },
        {
          "internalType": "uint256",
          "name": "amount",
          "type": "uint256"
        },
        {
          "internalType": "address",
          "name": "_paymentToken",
          "type": "address"
        }
      ],
      "name": "initTournament",
      "outputs": [],
      "stateMutability": "nonpayable",
      "type": "function"
    },
    {
      "inputs": [],
      "name": "owner",
      "outputs": [
        {
          "internalType": "address",
          "name": "",
          "type": "address"
        }
      ],
      "stateMutability": "view",
      "type": "function"
    },
    {
      "inputs": [
        {
          "internalType": "address",
          "name": "receiver",
          "type": "address"
        },
        {
          "internalType": "uint256",
          "name": "amount",
          "type": "uint256"
        },
        {
          "internalType": "address",
          "name": "_paymentToken",
          "type": "address"
        }
      ],
      "name": "receiverClaim",
      "outputs": [],
      "stateMutability": "nonpayable",
      "type": "function"
    },
    {
      "inputs": [],
      "name": "renounceOwnership",
      "outputs": [],
      "stateMutability": "nonpayable",
      "type": "function"
    },
    {
      "inputs": [
        {
          "internalType": "bytes32",
          "name": "role",
          "type": "bytes32"
        },
        {
          "internalType": "address",
          "name": "account",
          "type": "address"
        }
      ],
      "name": "renounceRole",
      "outputs": [],
      "stateMutability": "nonpayable",
      "type": "function"
    },
    {
      "inputs": [
        {
          "internalType": "bytes32",
          "name": "role",
          "type": "bytes32"
        },
        {
          "internalType": "address",
          "name": "account",
          "type": "address"
        }
      ],
      "name": "revokeRole",
      "outputs": [],
      "stateMutability": "nonpayable",
      "type": "function"
    },
    {
      "inputs": [
        {
          "internalType": "address",
          "name": "account",
          "type": "address"
        },
        {
          "internalType": "bool",
          "name": "_enable",
          "type": "bool"
        }
      ],
      "name": "setupMinterRole",
      "outputs": [],
      "stateMutability": "nonpayable",
      "type": "function"
    },
    {
      "inputs": [
        {
          "internalType": "bytes4",
          "name": "interfaceId",
          "type": "bytes4"
        }
      ],
      "name": "supportsInterface",
      "outputs": [
        {
          "internalType": "bool",
          "name": "",
          "type": "bool"
        }
      ],
      "stateMutability": "view",
      "type": "function"
    },
    {
      "inputs": [
        {
          "internalType": "address",
          "name": "newOwner",
          "type": "address"
        }
      ],
      "name": "transferOwnership",
      "outputs": [],
      "stateMutability": "nonpayable",
      "type": "function"
    },
    {
      "inputs": [
        {
          "internalType": "uint256",
          "name": "_lucisFee",
          "type": "uint256"
        },
        {
          "internalType": "uint256",
          "name": "_refereeFee",
          "type": "uint256"
        }
      ],
      "name": "updateFee",
      "outputs": [],
      "stateMutability": "nonpayable",
      "type": "function"
    }
  ],
  "bytecode": "0x60806040523480156200001157600080fd5b5060405162003995380380620039958339818101604052810190620000379190620003d4565b620000576200004b6200016760201b60201c565b6200016f60201b60201c565b6200007b6000801b6200006f6200016760201b60201c565b6200023560201b60201c565b620000bc7f9f2df0fed2c77648de5860a4cc508cd0818c85b8b8a1ab4ceeef8d981c8956a6620000b06200016760201b60201c565b6200023560201b60201c565b60648284620000cc919062000484565b106200010f576040517f08c379a0000000000000000000000000000000000000000000000000000000008152600401620001069062000451565b60405180910390fd5b826007819055508160088190555080600960006101000a81548173ffffffffffffffffffffffffffffffffffffffff021916908373ffffffffffffffffffffffffffffffffffffffff160217905550505050620005ab565b600033905090565b6000600160009054906101000a900473ffffffffffffffffffffffffffffffffffffffff16905081600160006101000a81548173ffffffffffffffffffffffffffffffffffffffff021916908373ffffffffffffffffffffffffffffffffffffffff1602179055508173ffffffffffffffffffffffffffffffffffffffff168173ffffffffffffffffffffffffffffffffffffffff167f8be0079c531659141344cd1fd0a4f28419497f9722a3daafe3b4186f6b6457e060405160405180910390a35050565b6200024782826200024b60201b60201c565b5050565b6200025d82826200033c60201b60201c565b6200033857600160008084815260200190815260200160002060000160008373ffffffffffffffffffffffffffffffffffffffff1673ffffffffffffffffffffffffffffffffffffffff16815260200190815260200160002060006101000a81548160ff021916908315150217905550620002dd6200016760201b60201c565b73ffffffffffffffffffffffffffffffffffffffff168173ffffffffffffffffffffffffffffffffffffffff16837f2f8788117e7eff1d82e926ec794901d17c78024a50270940304540a733656f0d60405160405180910390a45b5050565b600080600084815260200190815260200160002060000160008373ffffffffffffffffffffffffffffffffffffffff1673ffffffffffffffffffffffffffffffffffffffff16815260200190815260200160002060009054906101000a900460ff16905092915050565b600081519050620003b78162000577565b92915050565b600081519050620003ce8162000591565b92915050565b600080600060608486031215620003ea57600080fd5b6000620003fa86828701620003bd565b93505060206200040d86828701620003bd565b92505060406200042086828701620003a6565b9150509250925092565b60006200043960148362000473565b915062000446826200054e565b602082019050919050565b600060208201905081810360008301526200046c816200042a565b9050919050565b600082825260208201905092915050565b6000620004918262000515565b91506200049e8362000515565b9250827fffffffffffffffffffffffffffffffffffffffffffffffffffffffffffffffff03821115620004d657620004d56200051f565b5b828201905092915050565b6000620004ee82620004f5565b9050919050565b600073ffffffffffffffffffffffffffffffffffffffff82169050919050565b6000819050919050565b7f4e487b7100000000000000000000000000000000000000000000000000000000600052601160045260246000fd5b7f46656520636f6e666967206e6f742076616c6964000000000000000000000000600082015250565b6200058281620004e1565b81146200058e57600080fd5b50565b6200059c8162000515565b8114620005a857600080fd5b50565b6133da80620005bb6000396000f3fe608060405234801561001057600080fd5b50600436106101165760003560e01c8063715018a6116100a2578063a543734011610071578063a5437340146102b5578063b7e20208146102d1578063d539139314610301578063d547741f1461031f578063f2fde38b1461033b57610116565b8063715018a61461023f5780638da5cb5b1461024957806391d1485414610267578063a217fddf1461029757610116565b80632592d9ef116100e95780632592d9ef146101b35780632740c197146101cf5780632f2ff15d146101eb57806336568abe146102075780635c05d35d1461022357610116565b806301fb7b741461011b57806301ffc9a7146101375780630ed53b7a14610167578063248a9ca314610183575b600080fd5b610135600480360381019061013091906121b3565b610357565b005b610151600480360381019061014c9190612290565b6105a3565b60405161015e9190612925565b60405180910390f35b610181600480360381019061017c91906122fa565b6105b5565b005b61019d6004803603810190610198919061222b565b610958565b6040516101aa9190612940565b60405180910390f35b6101cd60048036038101906101c89190612177565b610977565b005b6101e960048036038101906101e49190612431565b610a9e565b005b61020560048036038101906102009190612254565b610b03565b005b610221600480360381019061021c9190612254565b610b2c565b005b61023d60048036038101906102389190612375565b610baf565b005b6102476110ac565b005b610251611134565b60405161025e9190612843565b60405180910390f35b610281600480360381019061027c9190612254565b61115e565b60405161028e9190612925565b60405180910390f35b61029f6111c8565b6040516102ac9190612940565b60405180910390f35b6102cf60048036038101906102ca9190612375565b6111cf565b005b6102eb60048036038101906102e691906122b9565b611765565b6040516102f89190612c22565b60405180910390f35b6103096117f6565b6040516103169190612940565b60405180910390f35b61033960048036038101906103349190612254565b61181a565b005b6103556004803603810190610350919061214e565b611843565b005b600073ffffffffffffffffffffffffffffffffffffffff168373ffffffffffffffffffffffffffffffffffffffff1614156103c7576040517f08c379a00000000000000000000000000000000000000000000000000000000081526004016103be90612bc2565b60405180910390fd5b600073ffffffffffffffffffffffffffffffffffffffff168173ffffffffffffffffffffffffffffffffffffffff161415610437576040517f08c379a000000000000000000000000000000000000000000000000000000000815260040161042e90612bc2565b60405180910390fd5b600081905060008173ffffffffffffffffffffffffffffffffffffffff166370a08231306040518263ffffffff1660e01b81526004016104779190612843565b60206040518083038186803b15801561048f57600080fd5b505afa1580156104a3573d6000803e3d6000fd5b505050506040513d601f19601f820116820180604052508101906104c79190612408565b90508381101561050c576040517f08c379a0000000000000000000000000000000000000000000000000000000008152600401610503906129e2565b60405180910390fd5b8173ffffffffffffffffffffffffffffffffffffffff166323b872dd3087876040518463ffffffff1660e01b815260040161054993929190612887565b602060405180830381600087803b15801561056357600080fd5b505af1158015610577573d6000803e3d6000fd5b505050506040513d601f19601f8201168201806040525081019061059b9190612202565b505050505050565b60006105ae8261193b565b9050919050565b6105df7f9f2df0fed2c77648de5860a4cc508cd0818c85b8b8a1ab4ceeef8d981c8956a63361115e565b61061e576040517f08c379a000000000000000000000000000000000000000000000000000000000815260040161061590612a02565b60405180910390fd5b60008211610661576040517f08c379a000000000000000000000000000000000000000000000000000000000815260040161065890612be2565b60405180910390fd5b602d8451106106a5576040517f08c379a000000000000000000000000000000000000000000000000000000000815260040161069c90612b42565b60405180910390fd5b60006002856040516106b791906127f2565b90815260200160405180910390205490508281101561070b576040517f08c379a000000000000000000000000000000000000000000000000000000000815260040161070290612ac2565b60405180910390fd5b60008273ffffffffffffffffffffffffffffffffffffffff163b11610765576040517f08c379a000000000000000000000000000000000000000000000000000000000815260040161075c90612a82565b60405180910390fd5b600082905060008173ffffffffffffffffffffffffffffffffffffffff166370a08231306040518263ffffffff1660e01b81526004016107a59190612843565b60206040518083038186803b1580156107bd57600080fd5b505afa1580156107d1573d6000803e3d6000fd5b505050506040513d601f19601f820116820180604052508101906107f59190612408565b90508481101561083a576040517f08c379a000000000000000000000000000000000000000000000000000000000815260040161083190612b62565b60405180910390fd5b8173ffffffffffffffffffffffffffffffffffffffff1663a9059cbb87876040518363ffffffff1660e01b81526004016108759291906128fc565b602060405180830381600087803b15801561088f57600080fd5b505af11580156108a3573d6000803e3d6000fd5b505050506040513d601f19601f820116820180604052508101906108c79190612202565b50846002886040516108d991906127f2565b9081526020016040518091039020546108f29190612d9b565b60028860405161090291906127f2565b9081526020016040518091039020819055507f929657749431e11c18106618599c6b58321292d73a037a087dc805548bc1d617868887604051610947939291906128be565b60405180910390a150505050505050565b6000806000838152602001908152602001600020600101549050919050565b600073ffffffffffffffffffffffffffffffffffffffff168273ffffffffffffffffffffffffffffffffffffffff1614156109e7576040517f08c379a00000000000000000000000000000000000000000000000000000000081526004016109de90612b02565b60405180910390fd5b6109fb6000801b6109f66119b5565b61115e565b610a3a576040517f08c379a0000000000000000000000000000000000000000000000000000000008152600401610a3190612b82565b60405180910390fd5b8015610a6f57610a6a7f9f2df0fed2c77648de5860a4cc508cd0818c85b8b8a1ab4ceeef8d981c8956a6836119bd565b610a9a565b610a997f9f2df0fed2c77648de5860a4cc508cd0818c85b8b8a1ab4ceeef8d981c8956a6836119cb565b5b5050565b610ab26000801b610aad6119b5565b61115e565b610af1576040517f08c379a0000000000000000000000000000000000000000000000000000000008152600401610ae890612b82565b60405180910390fd5b81600781905550806008819055505050565b610b0c82610958565b610b1d81610b186119b5565b611aac565b610b278383611b49565b505050565b610b346119b5565b73ffffffffffffffffffffffffffffffffffffffff168173ffffffffffffffffffffffffffffffffffffffff1614610ba1576040517f08c379a0000000000000000000000000000000000000000000000000000000008152600401610b9890612c02565b60405180910390fd5b610bab82826119cb565b5050565b602d835110610bf3576040517f08c379a0000000000000000000000000000000000000000000000000000000008152600401610bea90612b42565b60405180910390fd5b6000600284604051610c0591906127f2565b90815260200160405180910390205414610c54576040517f08c379a0000000000000000000000000000000000000000000000000000000008152600401610c4b90612a42565b60405180910390fd5b60008211610c97576040517f08c379a0000000000000000000000000000000000000000000000000000000008152600401610c8e90612a62565b60405180910390fd5b60008173ffffffffffffffffffffffffffffffffffffffff163b11610cf1576040517f08c379a0000000000000000000000000000000000000000000000000000000008152600401610ce890612a82565b60405180910390fd5b600081905060008173ffffffffffffffffffffffffffffffffffffffff1663dd62ed3e33306040518363ffffffff1660e01b8152600401610d3392919061285e565b60206040518083038186803b158015610d4b57600080fd5b505afa158015610d5f573d6000803e3d6000fd5b505050506040513d601f19601f82011682018060405250810190610d839190612408565b90506000606485600754610d979190612d41565b610da19190612d10565b90506000606486600854610db59190612d41565b610dbf9190612d10565b90506000818388610dd09190612cba565b610dda9190612cba565b905080841015610e1f576040517f08c379a0000000000000000000000000000000000000000000000000000000008152600401610e1690612aa2565b60405180910390fd5b60008573ffffffffffffffffffffffffffffffffffffffff166370a08231336040518263ffffffff1660e01b8152600401610e5a9190612843565b60206040518083038186803b158015610e7257600080fd5b505afa158015610e86573d6000803e3d6000fd5b505050506040513d601f19601f82011682018060405250810190610eaa9190612408565b905081811015610eef576040517f08c379a0000000000000000000000000000000000000000000000000000000008152600401610ee690612b62565b60405180910390fd5b60008389610efd9190612cba565b90508673ffffffffffffffffffffffffffffffffffffffff166323b872dd3330846040518463ffffffff1660e01b8152600401610f3c93929190612887565b602060405180830381600087803b158015610f5657600080fd5b505af1158015610f6a573d6000803e3d6000fd5b505050506040513d601f19601f82011682018060405250810190610f8e9190612202565b508673ffffffffffffffffffffffffffffffffffffffff166323b872dd33600960009054906101000a900473ffffffffffffffffffffffffffffffffffffffff16886040518463ffffffff1660e01b8152600401610fee93929190612887565b602060405180830381600087803b15801561100857600080fd5b505af115801561101c573d6000803e3d6000fd5b505050506040513d601f19601f820116820180604052508101906110409190612202565b508060028b60405161105291906127f2565b9081526020016040518091039020819055507f9fe84b51e7406e0e949ed3f3c1b8af8496bc9ecc0185c5d12220eb8eed02e02a8b8b8b6040516110979392919061297d565b60405180910390a15050505050505050505050565b6110b46119b5565b73ffffffffffffffffffffffffffffffffffffffff166110d2611134565b73ffffffffffffffffffffffffffffffffffffffff1614611128576040517f08c379a000000000000000000000000000000000000000000000000000000000815260040161111f90612b22565b60405180910390fd5b6111326000611c29565b565b6000600160009054906101000a900473ffffffffffffffffffffffffffffffffffffffff16905090565b600080600084815260200190815260200160002060000160008373ffffffffffffffffffffffffffffffffffffffff1673ffffffffffffffffffffffffffffffffffffffff16815260200190815260200160002060009054906101000a900460ff16905092915050565b6000801b81565b602d835110611213576040517f08c379a000000000000000000000000000000000000000000000000000000000815260040161120a90612b42565b60405180910390fd5b600060028460405161122591906127f2565b90815260200160405180910390205411611274576040517f08c379a000000000000000000000000000000000000000000000000000000000815260040161126b90612ba2565b60405180910390fd5b600082116112b7576040517f08c379a00000000000000000000000000000000000000000000000000000000081526004016112ae90612ae2565b60405180910390fd5b600073ffffffffffffffffffffffffffffffffffffffff168173ffffffffffffffffffffffffffffffffffffffff161415611327576040517f08c379a000000000000000000000000000000000000000000000000000000000815260040161131e90612bc2565b60405180910390fd5b60008173ffffffffffffffffffffffffffffffffffffffff163b11611381576040517f08c379a000000000000000000000000000000000000000000000000000000000815260040161137890612a82565b60405180910390fd5b600081905060008173ffffffffffffffffffffffffffffffffffffffff1663dd62ed3e33306040518363ffffffff1660e01b81526004016113c392919061285e565b60206040518083038186803b1580156113db57600080fd5b505afa1580156113ef573d6000803e3d6000fd5b505050506040513d601f19601f820116820180604052508101906114139190612408565b905060006064856007546114279190612d41565b6114319190612d10565b905060006064866008546114459190612d41565b61144f9190612d10565b905060008183886114609190612cba565b61146a9190612cba565b9050808410156114af576040517f08c379a00000000000000000000000000000000000000000000000000000000081526004016114a690612aa2565b60405180910390fd5b60008573ffffffffffffffffffffffffffffffffffffffff166370a08231336040518263ffffffff1660e01b81526004016114ea9190612843565b60206040518083038186803b15801561150257600080fd5b505afa158015611516573d6000803e3d6000fd5b505050506040513d601f19601f8201168201806040525081019061153a9190612408565b90508181101561157f576040517f08c379a000000000000000000000000000000000000000000000000000000000815260040161157690612b62565b60405180910390fd5b6000838961158d9190612cba565b90508673ffffffffffffffffffffffffffffffffffffffff166323b872dd3330846040518463ffffffff1660e01b81526004016115cc93929190612887565b602060405180830381600087803b1580156115e657600080fd5b505af11580156115fa573d6000803e3d6000fd5b505050506040513d601f19601f8201168201806040525081019061161e9190612202565b508673ffffffffffffffffffffffffffffffffffffffff166323b872dd33600960009054906101000a900473ffffffffffffffffffffffffffffffffffffffff16886040518463ffffffff1660e01b815260040161167e93929190612887565b602060405180830381600087803b15801561169857600080fd5b505af11580156116ac573d6000803e3d6000fd5b505050506040513d601f19601f820116820180604052508101906116d09190612202565b508060028b6040516116e291906127f2565b9081526020016040518091039020546116fb9190612cba565b60028b60405161170b91906127f2565b9081526020016040518091039020819055507fb53563c8ca20182716a15b7c8e0e8e3cf62c61412d96a6e9290b47ac5ddf0c2c8b8b8b6040516117509392919061297d565b60405180910390a15050505050505050505050565b60006117917f9f2df0fed2c77648de5860a4cc508cd0818c85b8b8a1ab4ceeef8d981c8956a63361115e565b6117d0576040517f08c379a00000000000000000000000000000000000000000000000000000000081526004016117c790612a02565b60405180910390fd5b6002826040516117e091906127f2565b9081526020016040518091039020549050919050565b7f9f2df0fed2c77648de5860a4cc508cd0818c85b8b8a1ab4ceeef8d981c8956a681565b61182382610958565b6118348161182f6119b5565b611aac565b61183e83836119cb565b505050565b61184b6119b5565b73ffffffffffffffffffffffffffffffffffffffff16611869611134565b73ffffffffffffffffffffffffffffffffffffffff16146118bf576040517f08c379a00000000000000000000000000000000000000000000000000000000081526004016118b690612b22565b60405180910390fd5b600073ffffffffffffffffffffffffffffffffffffffff168173ffffffffffffffffffffffffffffffffffffffff16141561192f576040517f08c379a000000000000000000000000000000000000000000000000000000000815260040161192690612a22565b60405180910390fd5b61193881611c29565b50565b60007f7965db0b000000000000000000000000000000000000000000000000000000007bffffffffffffffffffffffffffffffffffffffffffffffffffffffff1916827bffffffffffffffffffffffffffffffffffffffffffffffffffffffff191614806119ae57506119ad82611cef565b5b9050919050565b600033905090565b6119c78282611b49565b5050565b6119d5828261115e565b15611aa857600080600084815260200190815260200160002060000160008373ffffffffffffffffffffffffffffffffffffffff1673ffffffffffffffffffffffffffffffffffffffff16815260200190815260200160002060006101000a81548160ff021916908315150217905550611a4d6119b5565b73ffffffffffffffffffffffffffffffffffffffff168173ffffffffffffffffffffffffffffffffffffffff16837ff6391f5c32d9c69d2a47ea670b442974b53935d1edc7fd64eb21e047a839171b60405160405180910390a45b5050565b611ab6828261115e565b611b4557611adb8173ffffffffffffffffffffffffffffffffffffffff166014611d59565b611ae98360001c6020611d59565b604051602001611afa929190612809565b6040516020818303038152906040526040517f08c379a0000000000000000000000000000000000000000000000000000000008152600401611b3c919061295b565b60405180910390fd5b5050565b611b53828261115e565b611c2557600160008084815260200190815260200160002060000160008373ffffffffffffffffffffffffffffffffffffffff1673ffffffffffffffffffffffffffffffffffffffff16815260200190815260200160002060006101000a81548160ff021916908315150217905550611bca6119b5565b73ffffffffffffffffffffffffffffffffffffffff168173ffffffffffffffffffffffffffffffffffffffff16837f2f8788117e7eff1d82e926ec794901d17c78024a50270940304540a733656f0d60405160405180910390a45b5050565b6000600160009054906101000a900473ffffffffffffffffffffffffffffffffffffffff16905081600160006101000a81548173ffffffffffffffffffffffffffffffffffffffff021916908373ffffffffffffffffffffffffffffffffffffffff1602179055508173ffffffffffffffffffffffffffffffffffffffff168173ffffffffffffffffffffffffffffffffffffffff167f8be0079c531659141344cd1fd0a4f28419497f9722a3daafe3b4186f6b6457e060405160405180910390a35050565b60007f01ffc9a7000000000000000000000000000000000000000000000000000000007bffffffffffffffffffffffffffffffffffffffffffffffffffffffff1916827bffffffffffffffffffffffffffffffffffffffffffffffffffffffff1916149050919050565b606060006002836002611d6c9190612d41565b611d769190612cba565b67ffffffffffffffff811115611db5577f4e487b7100000000000000000000000000000000000000000000000000000000600052604160045260246000fd5b6040519080825280601f01601f191660200182016040528015611de75781602001600182028036833780820191505090505b5090507f300000000000000000000000000000000000000000000000000000000000000081600081518110611e45577f4e487b7100000000000000000000000000000000000000000000000000000000600052603260045260246000fd5b60200101907effffffffffffffffffffffffffffffffffffffffffffffffffffffffffffff1916908160001a9053507f780000000000000000000000000000000000000000000000000000000000000081600181518110611ecf577f4e487b7100000000000000000000000000000000000000000000000000000000600052603260045260246000fd5b60200101907effffffffffffffffffffffffffffffffffffffffffffffffffffffffffffff1916908160001a90535060006001846002611f0f9190612d41565b611f199190612cba565b90505b6001811115612005577f3031323334353637383961626364656600000000000000000000000000000000600f861660108110611f81577f4e487b7100000000000000000000000000000000000000000000000000000000600052603260045260246000fd5b1a60f81b828281518110611fbe577f4e487b7100000000000000000000000000000000000000000000000000000000600052603260045260246000fd5b60200101907effffffffffffffffffffffffffffffffffffffffffffffffffffffffffffff1916908160001a905350600485901c945080611ffe90612e8f565b9050611f1c565b5060008414612049576040517f08c379a0000000000000000000000000000000000000000000000000000000008152600401612040906129c2565b60405180910390fd5b8091505092915050565b600061206661206184612c62565b612c3d565b90508281526020810184848401111561207e57600080fd5b612089848285612e4d565b509392505050565b6000813590506120a081613331565b92915050565b6000813590506120b581613348565b92915050565b6000815190506120ca81613348565b92915050565b6000813590506120df8161335f565b92915050565b6000813590506120f481613376565b92915050565b600082601f83011261210b57600080fd5b813561211b848260208601612053565b91505092915050565b6000813590506121338161338d565b92915050565b6000815190506121488161338d565b92915050565b60006020828403121561216057600080fd5b600061216e84828501612091565b91505092915050565b6000806040838503121561218a57600080fd5b600061219885828601612091565b92505060206121a9858286016120a6565b9150509250929050565b6000806000606084860312156121c857600080fd5b60006121d686828701612091565b93505060206121e786828701612124565b92505060406121f886828701612091565b9150509250925092565b60006020828403121561221457600080fd5b6000612222848285016120bb565b91505092915050565b60006020828403121561223d57600080fd5b600061224b848285016120d0565b91505092915050565b6000806040838503121561226757600080fd5b6000612275858286016120d0565b925050602061228685828601612091565b9150509250929050565b6000602082840312156122a257600080fd5b60006122b0848285016120e5565b91505092915050565b6000602082840312156122cb57600080fd5b600082013567ffffffffffffffff8111156122e557600080fd5b6122f1848285016120fa565b91505092915050565b6000806000806080858703121561231057600080fd5b600085013567ffffffffffffffff81111561232a57600080fd5b612336878288016120fa565b945050602061234787828801612091565b935050604061235887828801612124565b925050606061236987828801612091565b91505092959194509250565b6000806000806080858703121561238b57600080fd5b600085013567ffffffffffffffff8111156123a557600080fd5b6123b1878288016120fa565b945050602085013567ffffffffffffffff8111156123ce57600080fd5b6123da878288016120fa565b93505060406123eb87828801612124565b92505060606123fc87828801612091565b91505092959194509250565b60006020828403121561241a57600080fd5b600061242884828501612139565b91505092915050565b6000806040838503121561244457600080fd5b600061245285828601612124565b925050602061246385828601612124565b9150509250929050565b61247681612dcf565b82525050565b61248581612de1565b82525050565b61249481612ded565b82525050565b60006124a582612c93565b6124af8185612c9e565b93506124bf818560208601612e5c565b6124c881612f77565b840191505092915050565b60006124de82612c93565b6124e88185612caf565b93506124f8818560208601612e5c565b80840191505092915050565b6000612511602083612c9e565b915061251c82612f88565b602082019050919050565b6000612534601283612c9e565b915061253f82612fb1565b602082019050919050565b6000612557601583612c9e565b915061256282612fda565b602082019050919050565b600061257a602683612c9e565b915061258582613003565b604082019050919050565b600061259d601183612c9e565b91506125a882613052565b602082019050919050565b60006125c0601c83612c9e565b91506125cb8261307b565b602082019050919050565b60006125e3601d83612c9e565b91506125ee826130a4565b602082019050919050565b6000612606601783612c9e565b9150612611826130cd565b602082019050919050565b6000612629601483612c9e565b9150612634826130f6565b602082019050919050565b600061264c601d83612c9e565b91506126578261311f565b602082019050919050565b600061266f601283612c9e565b915061267a82613148565b602082019050919050565b6000612692602083612c9e565b915061269d82613171565b602082019050919050565b60006126b5601883612c9e565b91506126c08261319a565b602082019050919050565b60006126d8601b83612c9e565b91506126e3826131c3565b602082019050919050565b60006126fb601483612c9e565b9150612706826131ec565b602082019050919050565b600061271e601383612c9e565b915061272982613215565b602082019050919050565b6000612741601683612c9e565b915061274c8261323e565b602082019050919050565b6000612764601783612caf565b915061276f82613267565b601782019050919050565b6000612787601183612caf565b915061279282613290565b601182019050919050565b60006127aa601083612c9e565b91506127b5826132b9565b602082019050919050565b60006127cd602f83612c9e565b91506127d8826132e2565b604082019050919050565b6127ec81612e43565b82525050565b60006127fe82846124d3565b915081905092915050565b600061281482612757565b915061282082856124d3565b915061282b8261277a565b915061283782846124d3565b91508190509392505050565b6000602082019050612858600083018461246d565b92915050565b6000604082019050612873600083018561246d565b612880602083018461246d565b9392505050565b600060608201905061289c600083018661246d565b6128a9602083018561246d565b6128b660408301846127e3565b949350505050565b60006060820190506128d3600083018661246d565b81810360208301526128e5818561249a565b90506128f460408301846127e3565b949350505050565b6000604082019050612911600083018561246d565b61291e60208301846127e3565b9392505050565b600060208201905061293a600083018461247c565b92915050565b6000602082019050612955600083018461248b565b92915050565b60006020820190508181036000830152612975818461249a565b905092915050565b60006060820190508181036000830152612997818661249a565b905081810360208301526129ab818561249a565b90506129ba60408301846127e3565b949350505050565b600060208201905081810360008301526129db81612504565b9050919050565b600060208201905081810360008301526129fb81612527565b9050919050565b60006020820190508181036000830152612a1b8161254a565b9050919050565b60006020820190508181036000830152612a3b8161256d565b9050919050565b60006020820190508181036000830152612a5b81612590565b9050919050565b60006020820190508181036000830152612a7b816125b3565b9050919050565b60006020820190508181036000830152612a9b816125d6565b9050919050565b60006020820190508181036000830152612abb816125f9565b9050919050565b60006020820190508181036000830152612adb8161261c565b9050919050565b60006020820190508181036000830152612afb8161263f565b9050919050565b60006020820190508181036000830152612b1b81612662565b9050919050565b60006020820190508181036000830152612b3b81612685565b9050919050565b60006020820190508181036000830152612b5b816126a8565b9050919050565b60006020820190508181036000830152612b7b816126cb565b9050919050565b60006020820190508181036000830152612b9b816126ee565b9050919050565b60006020820190508181036000830152612bbb81612711565b9050919050565b60006020820190508181036000830152612bdb81612734565b9050919050565b60006020820190508181036000830152612bfb8161279d565b9050919050565b60006020820190508181036000830152612c1b816127c0565b9050919050565b6000602082019050612c3760008301846127e3565b92915050565b6000612c47612c58565b9050612c538282612eb9565b919050565b6000604051905090565b600067ffffffffffffffff821115612c7d57612c7c612f48565b5b612c8682612f77565b9050602081019050919050565b600081519050919050565b600082825260208201905092915050565b600081905092915050565b6000612cc582612e43565b9150612cd083612e43565b9250827fffffffffffffffffffffffffffffffffffffffffffffffffffffffffffffffff03821115612d0557612d04612eea565b5b828201905092915050565b6000612d1b82612e43565b9150612d2683612e43565b925082612d3657612d35612f19565b5b828204905092915050565b6000612d4c82612e43565b9150612d5783612e43565b9250817fffffffffffffffffffffffffffffffffffffffffffffffffffffffffffffffff0483118215151615612d9057612d8f612eea565b5b828202905092915050565b6000612da682612e43565b9150612db183612e43565b925082821015612dc457612dc3612eea565b5b828203905092915050565b6000612dda82612e23565b9050919050565b60008115159050919050565b6000819050919050565b60007fffffffff0000000000000000000000000000000000000000000000000000000082169050919050565b600073ffffffffffffffffffffffffffffffffffffffff82169050919050565b6000819050919050565b82818337600083830152505050565b60005b83811015612e7a578082015181840152602081019050612e5f565b83811115612e89576000848401525b50505050565b6000612e9a82612e43565b91506000821415612eae57612ead612eea565b5b600182039050919050565b612ec282612f77565b810181811067ffffffffffffffff82111715612ee157612ee0612f48565b5b80604052505050565b7f4e487b7100000000000000000000000000000000000000000000000000000000600052601160045260246000fd5b7f4e487b7100000000000000000000000000000000000000000000000000000000600052601260045260246000fd5b7f4e487b7100000000000000000000000000000000000000000000000000000000600052604160045260246000fd5b6000601f19601f8301169050919050565b7f537472696e67733a20686578206c656e67746820696e73756666696369656e74600082015250565b7f62616c616e6365206e6f7420656e6f7567680000000000000000000000000000600082015250565b7f6d7573742068617665206d696e74657220726f6c650000000000000000000000600082015250565b7f4f776e61626c653a206e6577206f776e657220697320746865207a65726f206160008201527f6464726573730000000000000000000000000000000000000000000000000000602082015250565b7f746f75726e616d656e7420696e69746564000000000000000000000000000000600082015250565b7f7072697a65206d7573742062652067726561746572207468616e203000000000600082015250565b7f7061796d656e7420746f6b656e206164647265737320696e76616c6964000000600082015250565b7f616c6c6f77616e6365206973206e6f7420656e6f756768000000000000000000600082015250565b7f746f75726e616d656e74206e6f742076616c6964000000000000000000000000600082015250565b7f616d6f756e74206d7573742062652067726561746572207468616e2030000000600082015250565b7f6163636f756e74206d75737420213d2030780000000000000000000000000000600082015250565b7f4f776e61626c653a2063616c6c6572206973206e6f7420746865206f776e6572600082015250565b7f746f75726e616d656e7420756964206e6f742076616c69640000000000000000600082015250565b7f746f6b656e2062616c616e6365206973206e6f7420656e6f7567680000000000600082015250565b7f6d75737420686176652061646d696e20726f6c65000000000000000000000000600082015250565b7f746f75726e616d656e74206e6f7420696e697400000000000000000000000000600082015250565b7f63616e277420757365207a65726f206164647265737300000000000000000000600082015250565b7f416363657373436f6e74726f6c3a206163636f756e7420000000000000000000600082015250565b7f206973206d697373696e6720726f6c6520000000000000000000000000000000600082015250565b7f616d6f756e74206e6f742076616c696400000000000000000000000000000000600082015250565b7f416363657373436f6e74726f6c3a2063616e206f6e6c792072656e6f756e636560008201527f20726f6c657320666f722073656c660000000000000000000000000000000000602082015250565b61333a81612dcf565b811461334557600080fd5b50565b61335181612de1565b811461335c57600080fd5b50565b61336881612ded565b811461337357600080fd5b50565b61337f81612df7565b811461338a57600080fd5b50565b61339681612e43565b81146133a157600080fd5b5056fea2646970667358221220a94ae3403d19605c7a6480e8a7b29d0d6fca261a93df3e71dd02a906043cb26164736f6c63430008010033",
  "linkReferences": {},
  "deployedLinkReferences": {}
}