{
  "_format": "hh-sol-artifact-1",
  "contractName": "LucisNFT",
  "sourceName": "contracts/LucisNFT.sol",
  "abi": [
    {
      "inputs": [],
      "stateMutability": "nonpayable",
      "type": "constructor"
    },
    {
      "anonymous": false,
      "inputs": [
        {
          "indexed": true,
          "internalType": "address",
          "name": "owner",
          "type": "address"
        },
        {
          "indexed": true,
          "internalType": "address",
          "name": "approved",
          "type": "address"
        },
        {
          "indexed": true,
          "internalType": "uint256",
          "name": "tokenId",
          "type": "uint256"
        }
      ],
      "name": "Approval",
      "type": "event"
    },
    {
      "anonymous": false,
      "inputs": [
        {
          "indexed": true,
          "internalType": "address",
          "name": "owner",
          "type": "address"
        },
        {
          "indexed": true,
          "internalType": "address",
          "name": "operator",
          "type": "address"
        },
        {
          "indexed": false,
          "internalType": "bool",
          "name": "approved",
          "type": "bool"
        }
      ],
      "name": "ApprovalForAll",
      "type": "event"
    },
    {
      "anonymous": false,
      "inputs": [
        {
          "indexed": false,
          "internalType": "uint256",
          "name": "tokenId",
          "type": "uint256"
        },
        {
          "indexed": false,
          "internalType": "uint256",
          "name": "character",
          "type": "uint256"
        },
        {
          "indexed": false,
          "internalType": "uint256",
          "name": "costume",
          "type": "uint256"
        },
        {
          "indexed": false,
          "internalType": "uint256",
          "name": "hat",
          "type": "uint256"
        },
        {
          "indexed": false,
          "internalType": "uint256",
          "name": "weapon",
          "type": "uint256"
        },
        {
          "indexed": false,
          "internalType": "uint256",
          "name": "glasses",
          "type": "uint256"
        },
        {
          "indexed": false,
          "internalType": "uint256",
          "name": "background",
          "type": "uint256"
        },
        {
          "indexed": false,
          "internalType": "uint256",
          "name": "level",
          "type": "uint256"
        },
        {
          "indexed": false,
          "internalType": "uint256",
          "name": "factor",
          "type": "uint256"
        },
        {
          "indexed": false,
          "internalType": "uint256",
          "name": "halo",
          "type": "uint256"
        }
      ],
      "name": "ItemMinted",
      "type": "event"
    },
    {
      "anonymous": false,
      "inputs": [
        {
          "indexed": false,
          "internalType": "address",
          "name": "account",
          "type": "address"
        }
      ],
      "name": "Paused",
      "type": "event"
    },
    {
      "anonymous": false,
      "inputs": [
        {
          "indexed": true,
          "internalType": "bytes32",
          "name": "role",
          "type": "bytes32"
        },
        {
          "indexed": true,
          "internalType": "bytes32",
          "name": "previousAdminRole",
          "type": "bytes32"
        },
        {
          "indexed": true,
          "internalType": "bytes32",
          "name": "newAdminRole",
          "type": "bytes32"
        }
      ],
      "name": "RoleAdminChanged",
      "type": "event"
    },
    {
      "anonymous": false,
      "inputs": [
        {
          "indexed": true,
          "internalType": "bytes32",
          "name": "role",
          "type": "bytes32"
        },
        {
          "indexed": true,
          "internalType": "address",
          "name": "account",
          "type": "address"
        },
        {
          "indexed": true,
          "internalType": "address",
          "name": "sender",
          "type": "address"
        }
      ],
      "name": "RoleGranted",
      "type": "event"
    },
    {
      "anonymous": false,
      "inputs": [
        {
          "indexed": true,
          "internalType": "bytes32",
          "name": "role",
          "type": "bytes32"
        },
        {
          "indexed": true,
          "internalType": "address",
          "name": "account",
          "type": "address"
        },
        {
          "indexed": true,
          "internalType": "address",
          "name": "sender",
          "type": "address"
        }
      ],
      "name": "RoleRevoked",
      "type": "event"
    },
    {
      "anonymous": false,
      "inputs": [
        {
          "indexed": true,
          "internalType": "address",
          "name": "from",
          "type": "address"
        },
        {
          "indexed": true,
          "internalType": "address",
          "name": "to",
          "type": "address"
        },
        {
          "indexed": true,
          "internalType": "uint256",
          "name": "tokenId",
          "type": "uint256"
        }
      ],
      "name": "Transfer",
      "type": "event"
    },
    {
      "anonymous": false,
      "inputs": [
        {
          "indexed": false,
          "internalType": "address",
          "name": "account",
          "type": "address"
        }
      ],
      "name": "Unpaused",
      "type": "event"
    },
    {
      "inputs": [],
      "name": "DEFAULT_ADMIN_ROLE",
      "outputs": [
        {
          "internalType": "bytes32",
          "name": "",
          "type": "bytes32"
        }
      ],
      "stateMutability": "view",
      "type": "function"
    },
    {
      "inputs": [],
      "name": "MINTER_ROLE",
      "outputs": [
        {
          "internalType": "bytes32",
          "name": "",
          "type": "bytes32"
        }
      ],
      "stateMutability": "view",
      "type": "function"
    },
    {
      "inputs": [
        {
          "internalType": "address",
          "name": "to",
          "type": "address"
        },
        {
          "internalType": "uint256",
          "name": "tokenId",
          "type": "uint256"
        }
      ],
      "name": "approve",
      "outputs": [],
      "stateMutability": "nonpayable",
      "type": "function"
    },
    {
      "inputs": [
        {
          "internalType": "address",
          "name": "owner",
          "type": "address"
        }
      ],
      "name": "balanceOf",
      "outputs": [
        {
          "internalType": "uint256",
          "name": "",
          "type": "uint256"
        }
      ],
      "stateMutability": "view",
      "type": "function"
    },
    {
      "inputs": [
        {
          "internalType": "uint256",
          "name": "tokenId",
          "type": "uint256"
        }
      ],
      "name": "burn",
      "outputs": [],
      "stateMutability": "nonpayable",
      "type": "function"
    },
    {
      "inputs": [
        {
          "internalType": "uint256",
          "name": "tokenId",
          "type": "uint256"
        }
      ],
      "name": "getApproved",
      "outputs": [
        {
          "internalType": "address",
          "name": "",
          "type": "address"
        }
      ],
      "stateMutability": "view",
      "type": "function"
    },
    {
      "inputs": [
        {
          "internalType": "bytes32",
          "name": "role",
          "type": "bytes32"
        }
      ],
      "name": "getRoleAdmin",
      "outputs": [
        {
          "internalType": "bytes32",
          "name": "",
          "type": "bytes32"
        }
      ],
      "stateMutability": "view",
      "type": "function"
    },
    {
      "inputs": [
        {
          "internalType": "bytes32",
          "name": "role",
          "type": "bytes32"
        },
        {
          "internalType": "address",
          "name": "account",
          "type": "address"
        }
      ],
      "name": "grantRole",
      "outputs": [],
      "stateMutability": "nonpayable",
      "type": "function"
    },
    {
      "inputs": [
        {
          "internalType": "bytes32",
          "name": "role",
          "type": "bytes32"
        },
        {
          "internalType": "address",
          "name": "account",
          "type": "address"
        }
      ],
      "name": "hasRole",
      "outputs": [
        {
          "internalType": "bool",
          "name": "",
          "type": "bool"
        }
      ],
      "stateMutability": "view",
      "type": "function"
    },
    {
      "inputs": [
        {
          "internalType": "address",
          "name": "owner",
          "type": "address"
        },
        {
          "internalType": "address",
          "name": "operator",
          "type": "address"
        }
      ],
      "name": "isApprovedForAll",
      "outputs": [
        {
          "internalType": "bool",
          "name": "",
          "type": "bool"
        }
      ],
      "stateMutability": "view",
      "type": "function"
    },
    {
      "inputs": [
        {
          "internalType": "address",
          "name": "toAddress",
          "type": "address"
        },
        {
          "internalType": "uint256",
          "name": "character",
          "type": "uint256"
        },
        {
          "internalType": "uint256",
          "name": "costume",
          "type": "uint256"
        },
        {
          "internalType": "uint256",
          "name": "hat",
          "type": "uint256"
        },
        {
          "internalType": "uint256",
          "name": "weapon",
          "type": "uint256"
        },
        {
          "internalType": "uint256",
          "name": "glasses",
          "type": "uint256"
        },
        {
          "internalType": "uint256",
          "name": "background",
          "type": "uint256"
        },
        {
          "internalType": "uint256",
          "name": "level",
          "type": "uint256"
        },
        {
          "internalType": "uint256",
          "name": "factor",
          "type": "uint256"
        },
        {
          "internalType": "uint256",
          "name": "halo",
          "type": "uint256"
        }
      ],
      "name": "mintToken",
      "outputs": [
        {
          "internalType": "uint256",
          "name": "",
          "type": "uint256"
        }
      ],
      "stateMutability": "nonpayable",
      "type": "function"
    },
    {
      "inputs": [],
      "name": "name",
      "outputs": [
        {
          "internalType": "string",
          "name": "",
          "type": "string"
        }
      ],
      "stateMutability": "view",
      "type": "function"
    },
    {
      "inputs": [
        {
          "internalType": "uint256",
          "name": "tokenId",
          "type": "uint256"
        }
      ],
      "name": "ownerOf",
      "outputs": [
        {
          "internalType": "address",
          "name": "",
          "type": "address"
        }
      ],
      "stateMutability": "view",
      "type": "function"
    },
    {
      "inputs": [],
      "name": "paused",
      "outputs": [
        {
          "internalType": "bool",
          "name": "",
          "type": "bool"
        }
      ],
      "stateMutability": "view",
      "type": "function"
    },
    {
      "inputs": [
        {
          "internalType": "bytes32",
          "name": "role",
          "type": "bytes32"
        },
        {
          "internalType": "address",
          "name": "account",
          "type": "address"
        }
      ],
      "name": "renounceRole",
      "outputs": [],
      "stateMutability": "nonpayable",
      "type": "function"
    },
    {
      "inputs": [
        {
          "internalType": "bytes32",
          "name": "role",
          "type": "bytes32"
        },
        {
          "internalType": "address",
          "name": "account",
          "type": "address"
        }
      ],
      "name": "revokeRole",
      "outputs": [],
      "stateMutability": "nonpayable",
      "type": "function"
    },
    {
      "inputs": [
        {
          "internalType": "address",
          "name": "from",
          "type": "address"
        },
        {
          "internalType": "address",
          "name": "to",
          "type": "address"
        },
        {
          "internalType": "uint256",
          "name": "tokenId",
          "type": "uint256"
        }
      ],
      "name": "safeTransferFrom",
      "outputs": [],
      "stateMutability": "nonpayable",
      "type": "function"
    },
    {
      "inputs": [
        {
          "internalType": "address",
          "name": "from",
          "type": "address"
        },
        {
          "internalType": "address",
          "name": "to",
          "type": "address"
        },
        {
          "internalType": "uint256",
          "name": "tokenId",
          "type": "uint256"
        },
        {
          "internalType": "bytes",
          "name": "_data",
          "type": "bytes"
        }
      ],
      "name": "safeTransferFrom",
      "outputs": [],
      "stateMutability": "nonpayable",
      "type": "function"
    },
    {
      "inputs": [
        {
          "internalType": "address",
          "name": "operator",
          "type": "address"
        },
        {
          "internalType": "bool",
          "name": "approved",
          "type": "bool"
        }
      ],
      "name": "setApprovalForAll",
      "outputs": [],
      "stateMutability": "nonpayable",
      "type": "function"
    },
    {
      "inputs": [
        {
          "internalType": "string",
          "name": "baseTokenURI",
          "type": "string"
        }
      ],
      "name": "setBaseURI",
      "outputs": [],
      "stateMutability": "nonpayable",
      "type": "function"
    },
    {
      "inputs": [
        {
          "internalType": "address",
          "name": "account",
          "type": "address"
        },
        {
          "internalType": "bool",
          "name": "_enable",
          "type": "bool"
        }
      ],
      "name": "setupMinterRole",
      "outputs": [],
      "stateMutability": "nonpayable",
      "type": "function"
    },
    {
      "inputs": [
        {
          "internalType": "bytes4",
          "name": "interfaceId",
          "type": "bytes4"
        }
      ],
      "name": "supportsInterface",
      "outputs": [
        {
          "internalType": "bool",
          "name": "",
          "type": "bool"
        }
      ],
      "stateMutability": "view",
      "type": "function"
    },
    {
      "inputs": [],
      "name": "symbol",
      "outputs": [
        {
          "internalType": "string",
          "name": "",
          "type": "string"
        }
      ],
      "stateMutability": "view",
      "type": "function"
    },
    {
      "inputs": [
        {
          "internalType": "uint256",
          "name": "index",
          "type": "uint256"
        }
      ],
      "name": "tokenByIndex",
      "outputs": [
        {
          "internalType": "uint256",
          "name": "",
          "type": "uint256"
        }
      ],
      "stateMutability": "view",
      "type": "function"
    },
    {
      "inputs": [
        {
          "internalType": "uint256",
          "name": "tokenId",
          "type": "uint256"
        }
      ],
      "name": "tokenDetail",
      "outputs": [
        {
          "components": [
            {
              "internalType": "uint256",
              "name": "character",
              "type": "uint256"
            },
            {
              "internalType": "uint256",
              "name": "costume",
              "type": "uint256"
            },
            {
              "internalType": "uint256",
              "name": "hat",
              "type": "uint256"
            },
            {
              "internalType": "uint256",
              "name": "weapon",
              "type": "uint256"
            },
            {
              "internalType": "uint256",
              "name": "glasses",
              "type": "uint256"
            },
            {
              "internalType": "uint256",
              "name": "background",
              "type": "uint256"
            },
            {
              "internalType": "uint256",
              "name": "level",
              "type": "uint256"
            },
            {
              "internalType": "uint256",
              "name": "factor",
              "type": "uint256"
            },
            {
              "internalType": "uint256",
              "name": "halo",
              "type": "uint256"
            }
          ],
          "internalType": "struct LucisNFT.Item",
          "name": "",
          "type": "tuple"
        }
      ],
      "stateMutability": "view",
      "type": "function"
    },
    {
      "inputs": [
        {
          "internalType": "address",
          "name": "owner",
          "type": "address"
        },
        {
          "internalType": "uint256",
          "name": "index",
          "type": "uint256"
        }
      ],
      "name": "tokenOfOwnerByIndex",
      "outputs": [
        {
          "internalType": "uint256",
          "name": "",
          "type": "uint256"
        }
      ],
      "stateMutability": "view",
      "type": "function"
    },
    {
      "inputs": [
        {
          "internalType": "uint256",
          "name": "tokenId",
          "type": "uint256"
        }
      ],
      "name": "tokenURI",
      "outputs": [
        {
          "internalType": "string",
          "name": "",
          "type": "string"
        }
      ],
      "stateMutability": "view",
      "type": "function"
    },
    {
      "inputs": [],
      "name": "totalSupply",
      "outputs": [
        {
          "internalType": "uint256",
          "name": "",
          "type": "uint256"
        }
      ],
      "stateMutability": "view",
      "type": "function"
    },
    {
      "inputs": [
        {
          "internalType": "address",
          "name": "from",
          "type": "address"
        },
        {
          "internalType": "address",
          "name": "to",
          "type": "address"
        },
        {
          "internalType": "uint256",
          "name": "tokenId",
          "type": "uint256"
        }
      ],
      "name": "transferFrom",
      "outputs": [],
      "stateMutability": "nonpayable",
      "type": "function"
    }
  ],
  "bytecode": "0x608060405260405180602001604052806000815250600e90805190602001906200002b92919062000306565b503480156200003957600080fd5b506040518060400160405280600981526020017f4c75636973204e465400000000000000000000000000000000000000000000008152506040518060400160405280600381526020017f4c434e00000000000000000000000000000000000000000000000000000000008152508160019080519060200190620000be92919062000306565b508060029080519060200190620000d792919062000306565b5050506000600b60006101000a81548160ff021916908315150217905550620001196000801b6200010d6200017760201b60201c565b6200017f60201b60201c565b6200015a7f9f2df0fed2c77648de5860a4cc508cd0818c85b8b8a1ab4ceeef8d981c8956a66200014e6200017760201b60201c565b6200017f60201b60201c565b62000171600c6200019560201b620016551760201c565b6200041b565b600033905090565b620001918282620001ab60201b60201c565b5050565b6001816000016000828254019250508190555050565b620001bd82826200029c60201b60201c565b6200029857600160008084815260200190815260200160002060000160008373ffffffffffffffffffffffffffffffffffffffff1673ffffffffffffffffffffffffffffffffffffffff16815260200190815260200160002060006101000a81548160ff0219169083151502179055506200023d6200017760201b60201c565b73ffffffffffffffffffffffffffffffffffffffff168173ffffffffffffffffffffffffffffffffffffffff16837f2f8788117e7eff1d82e926ec794901d17c78024a50270940304540a733656f0d60405160405180910390a45b5050565b600080600084815260200190815260200160002060000160008373ffffffffffffffffffffffffffffffffffffffff1673ffffffffffffffffffffffffffffffffffffffff16815260200190815260200160002060009054906101000a900460ff16905092915050565b8280546200031490620003b6565b90600052602060002090601f01602090048101928262000338576000855562000384565b82601f106200035357805160ff191683800117855562000384565b8280016001018555821562000384579182015b828111156200038357825182559160200191906001019062000366565b5b50905062000393919062000397565b5090565b5b80821115620003b257600081600090555060010162000398565b5090565b60006002820490506001821680620003cf57607f821691505b60208210811415620003e657620003e5620003ec565b5b50919050565b7f4e487b7100000000000000000000000000000000000000000000000000000000600052602260045260246000fd5b614fbc806200042b6000396000f3fe608060405234801561001057600080fd5b50600436106101cf5760003560e01c80634836ba551161010457806395d89b41116100a2578063c87b56dd11610071578063c87b56dd14610562578063d539139314610592578063d547741f146105b0578063e985e9c5146105cc576101cf565b806395d89b41146104ee578063a217fddf1461050c578063a22cb4651461052a578063b88d4fde14610546576101cf565b80635c975abb116100de5780635c975abb146104405780636352211e1461045e57806370a082311461048e57806391d14854146104be576101cf565b80634836ba55146103c45780634f6ccce7146103f457806355f804b314610424576101cf565b80632592d9ef1161017157806336568abe1161014b57806336568abe146103405780633dc60c3b1461035c57806342842e0e1461038c57806342966c68146103a8576101cf565b80632592d9ef146102d85780632f2ff15d146102f45780632f745c5914610310576101cf565b8063095ea7b3116101ad578063095ea7b31461025257806318160ddd1461026e57806323b872dd1461028c578063248a9ca3146102a8576101cf565b806301ffc9a7146101d457806306fdde0314610204578063081812fc14610222575b600080fd5b6101ee60048036038101906101e99190613580565b6105fc565b6040516101fb9190613d7a565b60405180910390f35b61020c61060e565b6040516102199190613db0565b60405180910390f35b61023c60048036038101906102379190613613565b6106a0565b6040516102499190613d13565b60405180910390f35b61026c60048036038101906102679190613404565b610725565b005b61027661083d565b60405161028391906141ee565b60405180910390f35b6102a660048036038101906102a191906132fe565b61084a565b005b6102c260048036038101906102bd919061351b565b6108aa565b6040516102cf9190613d95565b60405180910390f35b6102f260048036038101906102ed91906133c8565b6108c9565b005b61030e60048036038101906103099190613544565b6109f0565b005b61032a60048036038101906103259190613404565b610a11565b60405161033791906141ee565b60405180910390f35b61035a60048036038101906103559190613544565b610ab6565b005b61037660048036038101906103719190613613565b610b39565b60405161038391906141d2565b60405180910390f35b6103a660048036038101906103a191906132fe565b610bc1565b005b6103c260048036038101906103bd9190613613565b610be1565b005b6103de60048036038101906103d99190613440565b610c3d565b6040516103eb91906141ee565b60405180910390f35b61040e60048036038101906104099190613613565b61111d565b60405161041b91906141ee565b60405180910390f35b61043e600480360381019061043991906135d2565b6111b4565b005b610448611221565b6040516104559190613d7a565b60405180910390f35b61047860048036038101906104739190613613565b611238565b6040516104859190613d13565b60405180910390f35b6104a860048036038101906104a39190613299565b6112ea565b6040516104b591906141ee565b60405180910390f35b6104d860048036038101906104d39190613544565b6113a2565b6040516104e59190613d7a565b60405180910390f35b6104f661140c565b6040516105039190613db0565b60405180910390f35b61051461149e565b6040516105219190613d95565b60405180910390f35b610544600480360381019061053f91906133c8565b6114a5565b005b610560600480360381019061055b919061334d565b6114bb565b005b61057c60048036038101906105779190613613565b61151d565b6040516105899190613db0565b60405180910390f35b61059a61157c565b6040516105a79190613d95565b60405180910390f35b6105ca60048036038101906105c59190613544565b6115a0565b005b6105e660048036038101906105e191906132c2565b6115c1565b6040516105f39190613d7a565b60405180910390f35b60006106078261166b565b9050919050565b60606001805461061d9061456e565b80601f01602080910402602001604051908101604052809291908181526020018280546106499061456e565b80156106965780601f1061066b57610100808354040283529160200191610696565b820191906000526020600020905b81548152906001019060200180831161067957829003601f168201915b5050505050905090565b60006106ab826116e5565b6106ea576040517f08c379a00000000000000000000000000000000000000000000000000000000081526004016106e190614052565b60405180910390fd5b6005600083815260200190815260200160002060009054906101000a900473ffffffffffffffffffffffffffffffffffffffff169050919050565b600061073082611238565b90508073ffffffffffffffffffffffffffffffffffffffff168373ffffffffffffffffffffffffffffffffffffffff1614156107a1576040517f08c379a000000000000000000000000000000000000000000000000000000000815260040161079890614092565b60405180910390fd5b8073ffffffffffffffffffffffffffffffffffffffff166107c0611751565b73ffffffffffffffffffffffffffffffffffffffff1614806107ef57506107ee816107e9611751565b6115c1565b5b61082e576040517f08c379a000000000000000000000000000000000000000000000000000000000815260040161082590613f72565b60405180910390fd5b6108388383611759565b505050565b6000600980549050905090565b61085b610855611751565b82611812565b61089a576040517f08c379a0000000000000000000000000000000000000000000000000000000008152600401610891906140b2565b60405180910390fd5b6108a58383836118f0565b505050565b6000806000838152602001908152602001600020600101549050919050565b600073ffffffffffffffffffffffffffffffffffffffff168273ffffffffffffffffffffffffffffffffffffffff161415610939576040517f08c379a0000000000000000000000000000000000000000000000000000000008152600401610930906140f2565b60405180910390fd5b61094d6000801b610948611751565b6113a2565b61098c576040517f08c379a000000000000000000000000000000000000000000000000000000000815260040161098390614072565b60405180910390fd5b80156109c1576109bc7f9f2df0fed2c77648de5860a4cc508cd0818c85b8b8a1ab4ceeef8d981c8956a683611b57565b6109ec565b6109eb7f9f2df0fed2c77648de5860a4cc508cd0818c85b8b8a1ab4ceeef8d981c8956a683611b65565b5b5050565b6109f9826108aa565b610a0281611c46565b610a0c8383611c5a565b505050565b6000610a1c836112ea565b8210610a5d576040517f08c379a0000000000000000000000000000000000000000000000000000000008152600401610a5490613e32565b60405180910390fd5b600760008473ffffffffffffffffffffffffffffffffffffffff1673ffffffffffffffffffffffffffffffffffffffff168152602001908152602001600020600083815260200190815260200160002054905092915050565b610abe611751565b73ffffffffffffffffffffffffffffffffffffffff168173ffffffffffffffffffffffffffffffffffffffff1614610b2b576040517f08c379a0000000000000000000000000000000000000000000000000000000008152600401610b22906141b2565b60405180910390fd5b610b358282611b65565b5050565b610b4161305c565b600d60008381526020019081526020016000206040518061012001604052908160008201548152602001600182015481526020016002820154815260200160038201548152602001600482015481526020016005820154815260200160068201548152602001600782015481526020016008820154815250509050919050565b610bdc838383604051806020016040528060008152506114bb565b505050565b610bf2610bec611751565b82611812565b610c31576040517f08c379a0000000000000000000000000000000000000000000000000000000008152600401610c2890614172565b60405180910390fd5b610c3a81611d3a565b50565b6000610c707f9f2df0fed2c77648de5860a4cc508cd0818c85b8b8a1ab4ceeef8d981c8956a6610c6b611751565b6113a2565b610caf576040517f08c379a0000000000000000000000000000000000000000000000000000000008152600401610ca690614192565b60405180910390fd5b600073ffffffffffffffffffffffffffffffffffffffff168b73ffffffffffffffffffffffffffffffffffffffff161415610d1f576040517f08c379a0000000000000000000000000000000000000000000000000000000008152600401610d1690613f92565b60405180910390fd5b60008a10158015610d305750600c8a105b610d6f576040517f08c379a0000000000000000000000000000000000000000000000000000000008152600401610d6690613f32565b60405180910390fd5b60008910158015610d805750600c89105b610dbf576040517f08c379a0000000000000000000000000000000000000000000000000000000008152600401610db690614132565b60405180910390fd5b60008810158015610dd05750600c88105b610e0f576040517f08c379a0000000000000000000000000000000000000000000000000000000008152600401610e0690613ed2565b60405180910390fd5b60008710158015610e205750600c87105b610e5f576040517f08c379a0000000000000000000000000000000000000000000000000000000008152600401610e56906140d2565b60405180910390fd5b60008610158015610e705750600686105b610eaf576040517f08c379a0000000000000000000000000000000000000000000000000000000008152600401610ea690613e72565b60405180910390fd5b60008510158015610ec05750600785105b610eff576040517f08c379a0000000000000000000000000000000000000000000000000000000008152600401610ef690613df2565b60405180910390fd5b60008410158015610f105750600684105b610f4f576040517f08c379a0000000000000000000000000000000000000000000000000000000008152600401610f4690613ff2565b60405180910390fd5b60008310158015610f605750600683105b610f9f576040517f08c379a0000000000000000000000000000000000000000000000000000000008152600401610f9690614012565b60405180910390fd5b60008210158015610fb05750600482105b610fef576040517f08c379a0000000000000000000000000000000000000000000000000000000008152600401610fe690614152565b60405180910390fd5b6000610ffb600c611e57565b90506110078c82611e65565b611011600c611655565b6040518061012001604052808c81526020018b81526020018a815260200189815260200188815260200187815260200186815260200185815260200184815250600d6000838152602001908152602001600020600082015181600001556020820151816001015560408201518160020155606082015181600301556080820151816004015560a0820151816005015560c0820151816006015560e0820151816007015561010082015181600801559050507f36d8fbb5a95eed647c0b435dcb9046ab21a7ea3a562e67b9ded728099b5a5e19818c8c8c8c8c8c8c8c8c6040516111039a99989796959493929190614209565b60405180910390a1809150509a9950505050505050505050565b600061112761083d565b8210611168576040517f08c379a000000000000000000000000000000000000000000000000000000000815260040161115f90614112565b60405180910390fd5b600982815481106111a2577f4e487b7100000000000000000000000000000000000000000000000000000000600052603260045260246000fd5b90600052602060002001549050919050565b6111c86000801b6111c3611751565b6113a2565b611207576040517f08c379a00000000000000000000000000000000000000000000000000000000081526004016111fe90614072565b60405180910390fd5b80600e908051906020019061121d9291906130a8565b5050565b6000600b60009054906101000a900460ff16905090565b6000806003600084815260200190815260200160002060009054906101000a900473ffffffffffffffffffffffffffffffffffffffff169050600073ffffffffffffffffffffffffffffffffffffffff168173ffffffffffffffffffffffffffffffffffffffff1614156112e1576040517f08c379a00000000000000000000000000000000000000000000000000000000081526004016112d890613fd2565b60405180910390fd5b80915050919050565b60008073ffffffffffffffffffffffffffffffffffffffff168273ffffffffffffffffffffffffffffffffffffffff16141561135b576040517f08c379a000000000000000000000000000000000000000000000000000000000815260040161135290613fb2565b60405180910390fd5b600460008373ffffffffffffffffffffffffffffffffffffffff1673ffffffffffffffffffffffffffffffffffffffff168152602001908152602001600020549050919050565b600080600084815260200190815260200160002060000160008373ffffffffffffffffffffffffffffffffffffffff1673ffffffffffffffffffffffffffffffffffffffff16815260200190815260200160002060009054906101000a900460ff16905092915050565b60606002805461141b9061456e565b80601f01602080910402602001604051908101604052809291908181526020018280546114479061456e565b80156114945780601f1061146957610100808354040283529160200191611494565b820191906000526020600020905b81548152906001019060200180831161147757829003601f168201915b5050505050905090565b6000801b81565b6114b76114b0611751565b838361203f565b5050565b6114cc6114c6611751565b83611812565b61150b576040517f08c379a0000000000000000000000000000000000000000000000000000000008152600401611502906140b2565b60405180910390fd5b611517848484846121ac565b50505050565b60606000611529612208565b905060008151116115495760405180602001604052806000815250611574565b806115538461229a565b604051602001611564929190613caa565b6040516020818303038152906040525b915050919050565b7f9f2df0fed2c77648de5860a4cc508cd0818c85b8b8a1ab4ceeef8d981c8956a681565b6115a9826108aa565b6115b281611c46565b6115bc8383611b65565b505050565b6000600660008473ffffffffffffffffffffffffffffffffffffffff1673ffffffffffffffffffffffffffffffffffffffff16815260200190815260200160002060008373ffffffffffffffffffffffffffffffffffffffff1673ffffffffffffffffffffffffffffffffffffffff16815260200190815260200160002060009054906101000a900460ff16905092915050565b6001816000016000828254019250508190555050565b60007f780e9d63000000000000000000000000000000000000000000000000000000007bffffffffffffffffffffffffffffffffffffffffffffffffffffffff1916827bffffffffffffffffffffffffffffffffffffffffffffffffffffffff191614806116de57506116dd82612447565b5b9050919050565b60008073ffffffffffffffffffffffffffffffffffffffff166003600084815260200190815260200160002060009054906101000a900473ffffffffffffffffffffffffffffffffffffffff1673ffffffffffffffffffffffffffffffffffffffff1614159050919050565b600033905090565b816005600083815260200190815260200160002060006101000a81548173ffffffffffffffffffffffffffffffffffffffff021916908373ffffffffffffffffffffffffffffffffffffffff160217905550808273ffffffffffffffffffffffffffffffffffffffff166117cc83611238565b73ffffffffffffffffffffffffffffffffffffffff167f8c5be1e5ebec7d5bd14f71427d1e84f3dd0314c0f7b2291e5b200ac8c7c3b92560405160405180910390a45050565b600061181d826116e5565b61185c576040517f08c379a000000000000000000000000000000000000000000000000000000000815260040161185390613f52565b60405180910390fd5b600061186783611238565b90508073ffffffffffffffffffffffffffffffffffffffff168473ffffffffffffffffffffffffffffffffffffffff1614806118a957506118a881856115c1565b5b806118e757508373ffffffffffffffffffffffffffffffffffffffff166118cf846106a0565b73ffffffffffffffffffffffffffffffffffffffff16145b91505092915050565b8273ffffffffffffffffffffffffffffffffffffffff1661191082611238565b73ffffffffffffffffffffffffffffffffffffffff1614611966576040517f08c379a000000000000000000000000000000000000000000000000000000000815260040161195d90613e92565b60405180910390fd5b600073ffffffffffffffffffffffffffffffffffffffff168273ffffffffffffffffffffffffffffffffffffffff1614156119d6576040517f08c379a00000000000000000000000000000000000000000000000000000000081526004016119cd90613ef2565b60405180910390fd5b6119e1838383612529565b6119ec600082611759565b6001600460008573ffffffffffffffffffffffffffffffffffffffff1673ffffffffffffffffffffffffffffffffffffffff1681526020019081526020016000206000828254611a3c9190614450565b925050819055506001600460008473ffffffffffffffffffffffffffffffffffffffff1673ffffffffffffffffffffffffffffffffffffffff1681526020019081526020016000206000828254611a93919061436f565b92505081905550816003600083815260200190815260200160002060006101000a81548173ffffffffffffffffffffffffffffffffffffffff021916908373ffffffffffffffffffffffffffffffffffffffff160217905550808273ffffffffffffffffffffffffffffffffffffffff168473ffffffffffffffffffffffffffffffffffffffff167fddf252ad1be2c89b69c2b068fc378daa952ba7f163c4a11628f55a4df523b3ef60405160405180910390a4611b52838383612539565b505050565b611b618282611c5a565b5050565b611b6f82826113a2565b15611c4257600080600084815260200190815260200160002060000160008373ffffffffffffffffffffffffffffffffffffffff1673ffffffffffffffffffffffffffffffffffffffff16815260200190815260200160002060006101000a81548160ff021916908315150217905550611be7611751565b73ffffffffffffffffffffffffffffffffffffffff168173ffffffffffffffffffffffffffffffffffffffff16837ff6391f5c32d9c69d2a47ea670b442974b53935d1edc7fd64eb21e047a839171b60405160405180910390a45b5050565b611c5781611c52611751565b61253e565b50565b611c6482826113a2565b611d3657600160008084815260200190815260200160002060000160008373ffffffffffffffffffffffffffffffffffffffff1673ffffffffffffffffffffffffffffffffffffffff16815260200190815260200160002060006101000a81548160ff021916908315150217905550611cdb611751565b73ffffffffffffffffffffffffffffffffffffffff168173ffffffffffffffffffffffffffffffffffffffff16837f2f8788117e7eff1d82e926ec794901d17c78024a50270940304540a733656f0d60405160405180910390a45b5050565b6000611d4582611238565b9050611d5381600084612529565b611d5e600083611759565b6001600460008373ffffffffffffffffffffffffffffffffffffffff1673ffffffffffffffffffffffffffffffffffffffff1681526020019081526020016000206000828254611dae9190614450565b925050819055506003600083815260200190815260200160002060006101000a81549073ffffffffffffffffffffffffffffffffffffffff021916905581600073ffffffffffffffffffffffffffffffffffffffff168273ffffffffffffffffffffffffffffffffffffffff167fddf252ad1be2c89b69c2b068fc378daa952ba7f163c4a11628f55a4df523b3ef60405160405180910390a4611e5381600084612539565b5050565b600081600001549050919050565b600073ffffffffffffffffffffffffffffffffffffffff168273ffffffffffffffffffffffffffffffffffffffff161415611ed5576040517f08c379a0000000000000000000000000000000000000000000000000000000008152600401611ecc90614032565b60405180910390fd5b611ede816116e5565b15611f1e576040517f08c379a0000000000000000000000000000000000000000000000000000000008152600401611f1590613eb2565b60405180910390fd5b611f2a60008383612529565b6001600460008473ffffffffffffffffffffffffffffffffffffffff1673ffffffffffffffffffffffffffffffffffffffff1681526020019081526020016000206000828254611f7a919061436f565b92505081905550816003600083815260200190815260200160002060006101000a81548173ffffffffffffffffffffffffffffffffffffffff021916908373ffffffffffffffffffffffffffffffffffffffff160217905550808273ffffffffffffffffffffffffffffffffffffffff16600073ffffffffffffffffffffffffffffffffffffffff167fddf252ad1be2c89b69c2b068fc378daa952ba7f163c4a11628f55a4df523b3ef60405160405180910390a461203b60008383612539565b5050565b8173ffffffffffffffffffffffffffffffffffffffff168373ffffffffffffffffffffffffffffffffffffffff1614156120ae576040517f08c379a00000000000000000000000000000000000000000000000000000000081526004016120a590613f12565b60405180910390fd5b80600660008573ffffffffffffffffffffffffffffffffffffffff1673ffffffffffffffffffffffffffffffffffffffff16815260200190815260200160002060008473ffffffffffffffffffffffffffffffffffffffff1673ffffffffffffffffffffffffffffffffffffffff16815260200190815260200160002060006101000a81548160ff0219169083151502179055508173ffffffffffffffffffffffffffffffffffffffff168373ffffffffffffffffffffffffffffffffffffffff167f17307eab39ab6107e8899845ad3d59bd9653f200f220920489ca2b5937696c318360405161219f9190613d7a565b60405180910390a3505050565b6121b78484846118f0565b6121c3848484846125db565b612202576040517f08c379a00000000000000000000000000000000000000000000000000000000081526004016121f990613e52565b60405180910390fd5b50505050565b6060600e80546122179061456e565b80601f01602080910402602001604051908101604052809291908181526020018280546122439061456e565b80156122905780601f1061226557610100808354040283529160200191612290565b820191906000526020600020905b81548152906001019060200180831161227357829003601f168201915b5050505050905090565b606060008214156122e2576040518060400160405280600181526020017f30000000000000000000000000000000000000000000000000000000000000008152509050612442565b600082905060005b600082146123145780806122fd906145d1565b915050600a8261230d91906143c5565b91506122ea565b60008167ffffffffffffffff811115612356577f4e487b7100000000000000000000000000000000000000000000000000000000600052604160045260246000fd5b6040519080825280601f01601f1916602001820160405280156123885781602001600182028036833780820191505090505b5090505b6000851461243b576001826123a19190614450565b9150600a856123b0919061461a565b60306123bc919061436f565b60f81b8183815181106123f8577f4e487b7100000000000000000000000000000000000000000000000000000000600052603260045260246000fd5b60200101907effffffffffffffffffffffffffffffffffffffffffffffffffffffffffffff1916908160001a905350600a8561243491906143c5565b945061238c565b8093505050505b919050565b60007f80ac58cd000000000000000000000000000000000000000000000000000000007bffffffffffffffffffffffffffffffffffffffffffffffffffffffff1916827bffffffffffffffffffffffffffffffffffffffffffffffffffffffff1916148061251257507f5b5e139f000000000000000000000000000000000000000000000000000000007bffffffffffffffffffffffffffffffffffffffffffffffffffffffff1916827bffffffffffffffffffffffffffffffffffffffffffffffffffffffff1916145b80612522575061252182612772565b5b9050919050565b6125348383836127ec565b505050565b505050565b61254882826113a2565b6125d75761256d8173ffffffffffffffffffffffffffffffffffffffff166014612844565b61257b8360001c6020612844565b60405160200161258c929190613cd9565b6040516020818303038152906040526040517f08c379a00000000000000000000000000000000000000000000000000000000081526004016125ce9190613db0565b60405180910390fd5b5050565b60006125fc8473ffffffffffffffffffffffffffffffffffffffff16612b3e565b15612765578373ffffffffffffffffffffffffffffffffffffffff1663150b7a02612625611751565b8786866040518563ffffffff1660e01b81526004016126479493929190613d2e565b602060405180830381600087803b15801561266157600080fd5b505af192505050801561269257506040513d601f19601f8201168201806040525081019061268f91906135a9565b60015b612715573d80600081146126c2576040519150601f19603f3d011682016040523d82523d6000602084013e6126c7565b606091505b5060008151141561270d576040517f08c379a000000000000000000000000000000000000000000000000000000000815260040161270490613e52565b60405180910390fd5b805181602001fd5b63150b7a0260e01b7bffffffffffffffffffffffffffffffffffffffffffffffffffffffff1916817bffffffffffffffffffffffffffffffffffffffffffffffffffffffff19161491505061276a565b600190505b949350505050565b60007f7965db0b000000000000000000000000000000000000000000000000000000007bffffffffffffffffffffffffffffffffffffffffffffffffffffffff1916827bffffffffffffffffffffffffffffffffffffffffffffffffffffffff191614806127e557506127e482612b61565b5b9050919050565b6127f7838383612bcb565b6127ff611221565b1561283f576040517f08c379a000000000000000000000000000000000000000000000000000000000815260040161283690613e12565b60405180910390fd5b505050565b60606000600283600261285791906143f6565b612861919061436f565b67ffffffffffffffff8111156128a0577f4e487b7100000000000000000000000000000000000000000000000000000000600052604160045260246000fd5b6040519080825280601f01601f1916602001820160405280156128d25781602001600182028036833780820191505090505b5090507f300000000000000000000000000000000000000000000000000000000000000081600081518110612930577f4e487b7100000000000000000000000000000000000000000000000000000000600052603260045260246000fd5b60200101907effffffffffffffffffffffffffffffffffffffffffffffffffffffffffffff1916908160001a9053507f7800000000000000000000000000000000000000000000000000000000000000816001815181106129ba577f4e487b7100000000000000000000000000000000000000000000000000000000600052603260045260246000fd5b60200101907effffffffffffffffffffffffffffffffffffffffffffffffffffffffffffff1916908160001a905350600060018460026129fa91906143f6565b612a04919061436f565b90505b6001811115612af0577f3031323334353637383961626364656600000000000000000000000000000000600f861660108110612a6c577f4e487b7100000000000000000000000000000000000000000000000000000000600052603260045260246000fd5b1a60f81b828281518110612aa9577f4e487b7100000000000000000000000000000000000000000000000000000000600052603260045260246000fd5b60200101907effffffffffffffffffffffffffffffffffffffffffffffffffffffffffffff1916908160001a905350600485901c945080612ae990614544565b9050612a07565b5060008414612b34576040517f08c379a0000000000000000000000000000000000000000000000000000000008152600401612b2b90613dd2565b60405180910390fd5b8091505092915050565b6000808273ffffffffffffffffffffffffffffffffffffffff163b119050919050565b60007f01ffc9a7000000000000000000000000000000000000000000000000000000007bffffffffffffffffffffffffffffffffffffffffffffffffffffffff1916827bffffffffffffffffffffffffffffffffffffffffffffffffffffffff1916149050919050565b612bd6838383612cdf565b600073ffffffffffffffffffffffffffffffffffffffff168373ffffffffffffffffffffffffffffffffffffffff161415612c1957612c1481612ce4565b612c58565b8173ffffffffffffffffffffffffffffffffffffffff168373ffffffffffffffffffffffffffffffffffffffff1614612c5757612c568382612d2d565b5b5b600073ffffffffffffffffffffffffffffffffffffffff168273ffffffffffffffffffffffffffffffffffffffff161415612c9b57612c9681612e9a565b612cda565b8273ffffffffffffffffffffffffffffffffffffffff168273ffffffffffffffffffffffffffffffffffffffff1614612cd957612cd88282612fdd565b5b5b505050565b505050565b600980549050600a600083815260200190815260200160002081905550600981908060018154018082558091505060019003906000526020600020016000909190919091505550565b60006001612d3a846112ea565b612d449190614450565b9050600060086000848152602001908152602001600020549050818114612e29576000600760008673ffffffffffffffffffffffffffffffffffffffff1673ffffffffffffffffffffffffffffffffffffffff168152602001908152602001600020600084815260200190815260200160002054905080600760008773ffffffffffffffffffffffffffffffffffffffff1673ffffffffffffffffffffffffffffffffffffffff168152602001908152602001600020600084815260200190815260200160002081905550816008600083815260200190815260200160002081905550505b6008600084815260200190815260200160002060009055600760008573ffffffffffffffffffffffffffffffffffffffff1673ffffffffffffffffffffffffffffffffffffffff16815260200190815260200160002060008381526020019081526020016000206000905550505050565b60006001600980549050612eae9190614450565b90506000600a6000848152602001908152602001600020549050600060098381548110612f04577f4e487b7100000000000000000000000000000000000000000000000000000000600052603260045260246000fd5b906000526020600020015490508060098381548110612f4c577f4e487b7100000000000000000000000000000000000000000000000000000000600052603260045260246000fd5b906000526020600020018190555081600a600083815260200190815260200160002081905550600a6000858152602001908152602001600020600090556009805480612fc1577f4e487b7100000000000000000000000000000000000000000000000000000000600052603160045260246000fd5b6001900381819060005260206000200160009055905550505050565b6000612fe8836112ea565b905081600760008573ffffffffffffffffffffffffffffffffffffffff1673ffffffffffffffffffffffffffffffffffffffff168152602001908152602001600020600083815260200190815260200160002081905550806008600084815260200190815260200160002081905550505050565b6040518061012001604052806000815260200160008152602001600081526020016000815260200160008152602001600081526020016000815260200160008152602001600081525090565b8280546130b49061456e565b90600052602060002090601f0160209004810192826130d6576000855561311d565b82601f106130ef57805160ff191683800117855561311d565b8280016001018555821561311d579182015b8281111561311c578251825591602001919060010190613101565b5b50905061312a919061312e565b5090565b5b8082111561314757600081600090555060010161312f565b5090565b600061315e613159846142ca565b6142a5565b90508281526020810184848401111561317657600080fd5b613181848285614502565b509392505050565b600061319c613197846142fb565b6142a5565b9050828152602081018484840111156131b457600080fd5b6131bf848285614502565b509392505050565b6000813590506131d681614f13565b92915050565b6000813590506131eb81614f2a565b92915050565b60008135905061320081614f41565b92915050565b60008135905061321581614f58565b92915050565b60008151905061322a81614f58565b92915050565b600082601f83011261324157600080fd5b813561325184826020860161314b565b91505092915050565b600082601f83011261326b57600080fd5b813561327b848260208601613189565b91505092915050565b60008135905061329381614f6f565b92915050565b6000602082840312156132ab57600080fd5b60006132b9848285016131c7565b91505092915050565b600080604083850312156132d557600080fd5b60006132e3858286016131c7565b92505060206132f4858286016131c7565b9150509250929050565b60008060006060848603121561331357600080fd5b6000613321868287016131c7565b9350506020613332868287016131c7565b925050604061334386828701613284565b9150509250925092565b6000806000806080858703121561336357600080fd5b6000613371878288016131c7565b9450506020613382878288016131c7565b935050604061339387828801613284565b925050606085013567ffffffffffffffff8111156133b057600080fd5b6133bc87828801613230565b91505092959194509250565b600080604083850312156133db57600080fd5b60006133e9858286016131c7565b92505060206133fa858286016131dc565b9150509250929050565b6000806040838503121561341757600080fd5b6000613425858286016131c7565b925050602061343685828601613284565b9150509250929050565b6000806000806000806000806000806101408b8d03121561346057600080fd5b600061346e8d828e016131c7565b9a5050602061347f8d828e01613284565b99505060406134908d828e01613284565b98505060606134a18d828e01613284565b97505060806134b28d828e01613284565b96505060a06134c38d828e01613284565b95505060c06134d48d828e01613284565b94505060e06134e58d828e01613284565b9350506101006134f78d828e01613284565b9250506101206135098d828e01613284565b9150509295989b9194979a5092959850565b60006020828403121561352d57600080fd5b600061353b848285016131f1565b91505092915050565b6000806040838503121561355757600080fd5b6000613565858286016131f1565b9250506020613576858286016131c7565b9150509250929050565b60006020828403121561359257600080fd5b60006135a084828501613206565b91505092915050565b6000602082840312156135bb57600080fd5b60006135c98482850161321b565b91505092915050565b6000602082840312156135e457600080fd5b600082013567ffffffffffffffff8111156135fe57600080fd5b61360a8482850161325a565b91505092915050565b60006020828403121561362557600080fd5b600061363384828501613284565b91505092915050565b61364581614484565b82525050565b61365481614496565b82525050565b613663816144a2565b82525050565b60006136748261432c565b61367e8185614342565b935061368e818560208601614511565b61369781614707565b840191505092915050565b60006136ad82614337565b6136b78185614353565b93506136c7818560208601614511565b6136d081614707565b840191505092915050565b60006136e682614337565b6136f08185614364565b9350613700818560208601614511565b80840191505092915050565b6000613719602083614353565b915061372482614718565b602082019050919050565b600061373c601283614353565b915061374782614741565b602082019050919050565b600061375f602b83614353565b915061376a8261476a565b604082019050919050565b6000613782602b83614353565b915061378d826147b9565b604082019050919050565b60006137a5603283614353565b91506137b082614808565b604082019050919050565b60006137c8600f83614353565b91506137d382614857565b602082019050919050565b60006137eb602583614353565b91506137f682614880565b604082019050919050565b600061380e601c83614353565b9150613819826148cf565b602082019050919050565b6000613831600b83614353565b915061383c826148f8565b602082019050919050565b6000613854602483614353565b915061385f82614921565b604082019050919050565b6000613877601983614353565b915061388282614970565b602082019050919050565b600061389a601183614353565b91506138a582614999565b602082019050919050565b60006138bd602c83614353565b91506138c8826149c2565b604082019050919050565b60006138e0603883614353565b91506138eb82614a11565b604082019050919050565b6000613903600c83614353565b915061390e82614a60565b602082019050919050565b6000613926602a83614353565b915061393182614a89565b604082019050919050565b6000613949602983614353565b915061395482614ad8565b604082019050919050565b600061396c600d83614353565b915061397782614b27565b602082019050919050565b600061398f600e83614353565b915061399a82614b50565b602082019050919050565b60006139b2602083614353565b91506139bd82614b79565b602082019050919050565b60006139d5602c83614353565b91506139e082614ba2565b604082019050919050565b60006139f8600583614364565b9150613a0382614bf1565b600582019050919050565b6000613a1b601483614353565b9150613a2682614c1a565b602082019050919050565b6000613a3e602183614353565b9150613a4982614c43565b604082019050919050565b6000613a61603183614353565b9150613a6c82614c92565b604082019050919050565b6000613a84600e83614353565b9150613a8f82614ce1565b602082019050919050565b6000613aa7602483614353565b9150613ab282614d0a565b604082019050919050565b6000613aca602c83614353565b9150613ad582614d59565b604082019050919050565b6000613aed600f83614353565b9150613af882614da8565b602082019050919050565b6000613b10601783614364565b9150613b1b82614dd1565b601782019050919050565b6000613b33600c83614353565b9150613b3e82614dfa565b602082019050919050565b6000613b56603083614353565b9150613b6182614e23565b604082019050919050565b6000613b79601083614353565b9150613b8482614e72565b602082019050919050565b6000613b9c601183614364565b9150613ba782614e9b565b601182019050919050565b6000613bbf602f83614353565b9150613bca82614ec4565b604082019050919050565b61012082016000820151613bec6000850182613c8c565b506020820151613bff6020850182613c8c565b506040820151613c126040850182613c8c565b506060820151613c256060850182613c8c565b506080820151613c386080850182613c8c565b5060a0820151613c4b60a0850182613c8c565b5060c0820151613c5e60c0850182613c8c565b5060e0820151613c7160e0850182613c8c565b50610100820151613c86610100850182613c8c565b50505050565b613c95816144f8565b82525050565b613ca4816144f8565b82525050565b6000613cb682856136db565b9150613cc282846136db565b9150613ccd826139eb565b91508190509392505050565b6000613ce482613b03565b9150613cf082856136db565b9150613cfb82613b8f565b9150613d0782846136db565b91508190509392505050565b6000602082019050613d28600083018461363c565b92915050565b6000608082019050613d43600083018761363c565b613d50602083018661363c565b613d5d6040830185613c9b565b8181036060830152613d6f8184613669565b905095945050505050565b6000602082019050613d8f600083018461364b565b92915050565b6000602082019050613daa600083018461365a565b92915050565b60006020820190508181036000830152613dca81846136a2565b905092915050565b60006020820190508181036000830152613deb8161370c565b9050919050565b60006020820190508181036000830152613e0b8161372f565b9050919050565b60006020820190508181036000830152613e2b81613752565b9050919050565b60006020820190508181036000830152613e4b81613775565b9050919050565b60006020820190508181036000830152613e6b81613798565b9050919050565b60006020820190508181036000830152613e8b816137bb565b9050919050565b60006020820190508181036000830152613eab816137de565b9050919050565b60006020820190508181036000830152613ecb81613801565b9050919050565b60006020820190508181036000830152613eeb81613824565b9050919050565b60006020820190508181036000830152613f0b81613847565b9050919050565b60006020820190508181036000830152613f2b8161386a565b9050919050565b60006020820190508181036000830152613f4b8161388d565b9050919050565b60006020820190508181036000830152613f6b816138b0565b9050919050565b60006020820190508181036000830152613f8b816138d3565b9050919050565b60006020820190508181036000830152613fab816138f6565b9050919050565b60006020820190508181036000830152613fcb81613919565b9050919050565b60006020820190508181036000830152613feb8161393c565b9050919050565b6000602082019050818103600083015261400b8161395f565b9050919050565b6000602082019050818103600083015261402b81613982565b9050919050565b6000602082019050818103600083015261404b816139a5565b9050919050565b6000602082019050818103600083015261406b816139c8565b9050919050565b6000602082019050818103600083015261408b81613a0e565b9050919050565b600060208201905081810360008301526140ab81613a31565b9050919050565b600060208201905081810360008301526140cb81613a54565b9050919050565b600060208201905081810360008301526140eb81613a77565b9050919050565b6000602082019050818103600083015261410b81613a9a565b9050919050565b6000602082019050818103600083015261412b81613abd565b9050919050565b6000602082019050818103600083015261414b81613ae0565b9050919050565b6000602082019050818103600083015261416b81613b26565b9050919050565b6000602082019050818103600083015261418b81613b49565b9050919050565b600060208201905081810360008301526141ab81613b6c565b9050919050565b600060208201905081810360008301526141cb81613bb2565b9050919050565b6000610120820190506141e86000830184613bd5565b92915050565b60006020820190506142036000830184613c9b565b92915050565b60006101408201905061421f600083018d613c9b565b61422c602083018c613c9b565b614239604083018b613c9b565b614246606083018a613c9b565b6142536080830189613c9b565b61426060a0830188613c9b565b61426d60c0830187613c9b565b61427a60e0830186613c9b565b614288610100830185613c9b565b614296610120830184613c9b565b9b9a5050505050505050505050565b60006142af6142c0565b90506142bb82826145a0565b919050565b6000604051905090565b600067ffffffffffffffff8211156142e5576142e46146d8565b5b6142ee82614707565b9050602081019050919050565b600067ffffffffffffffff821115614316576143156146d8565b5b61431f82614707565b9050602081019050919050565b600081519050919050565b600081519050919050565b600082825260208201905092915050565b600082825260208201905092915050565b600081905092915050565b600061437a826144f8565b9150614385836144f8565b9250827fffffffffffffffffffffffffffffffffffffffffffffffffffffffffffffffff038211156143ba576143b961464b565b5b828201905092915050565b60006143d0826144f8565b91506143db836144f8565b9250826143eb576143ea61467a565b5b828204905092915050565b6000614401826144f8565b915061440c836144f8565b9250817fffffffffffffffffffffffffffffffffffffffffffffffffffffffffffffffff04831182151516156144455761444461464b565b5b828202905092915050565b600061445b826144f8565b9150614466836144f8565b9250828210156144795761447861464b565b5b828203905092915050565b600061448f826144d8565b9050919050565b60008115159050919050565b6000819050919050565b60007fffffffff0000000000000000000000000000000000000000000000000000000082169050919050565b600073ffffffffffffffffffffffffffffffffffffffff82169050919050565b6000819050919050565b82818337600083830152505050565b60005b8381101561452f578082015181840152602081019050614514565b8381111561453e576000848401525b50505050565b600061454f826144f8565b915060008214156145635761456261464b565b5b600182039050919050565b6000600282049050600182168061458657607f821691505b6020821081141561459a576145996146a9565b5b50919050565b6145a982614707565b810181811067ffffffffffffffff821117156145c8576145c76146d8565b5b80604052505050565b60006145dc826144f8565b91507fffffffffffffffffffffffffffffffffffffffffffffffffffffffffffffffff82141561460f5761460e61464b565b5b600182019050919050565b6000614625826144f8565b9150614630836144f8565b9250826146405761463f61467a565b5b828206905092915050565b7f4e487b7100000000000000000000000000000000000000000000000000000000600052601160045260246000fd5b7f4e487b7100000000000000000000000000000000000000000000000000000000600052601260045260246000fd5b7f4e487b7100000000000000000000000000000000000000000000000000000000600052602260045260246000fd5b7f4e487b7100000000000000000000000000000000000000000000000000000000600052604160045260246000fd5b6000601f19601f8301169050919050565b7f537472696e67733a20686578206c656e67746820696e73756666696369656e74600082015250565b7f4241434b47524f554e445f494e56414c49440000000000000000000000000000600082015250565b7f4552433732315061757361626c653a20746f6b656e207472616e73666572207760008201527f68696c6520706175736564000000000000000000000000000000000000000000602082015250565b7f455243373231456e756d657261626c653a206f776e657220696e646578206f7560008201527f74206f6620626f756e6473000000000000000000000000000000000000000000602082015250565b7f4552433732313a207472616e7366657220746f206e6f6e20455243373231526560008201527f63656976657220696d706c656d656e7465720000000000000000000000000000602082015250565b7f474c41535345535f494e56414c49440000000000000000000000000000000000600082015250565b7f4552433732313a207472616e736665722066726f6d20696e636f72726563742060008201527f6f776e6572000000000000000000000000000000000000000000000000000000602082015250565b7f4552433732313a20746f6b656e20616c7265616479206d696e74656400000000600082015250565b7f4841545f494e56414c4944000000000000000000000000000000000000000000600082015250565b7f4552433732313a207472616e7366657220746f20746865207a65726f2061646460008201527f7265737300000000000000000000000000000000000000000000000000000000602082015250565b7f4552433732313a20617070726f766520746f2063616c6c657200000000000000600082015250565b7f4348415241435445525f494e56414c4944000000000000000000000000000000600082015250565b7f4552433732313a206f70657261746f7220717565727920666f72206e6f6e657860008201527f697374656e7420746f6b656e0000000000000000000000000000000000000000602082015250565b7f4552433732313a20617070726f76652063616c6c6572206973206e6f74206f7760008201527f6e6572206e6f7220617070726f76656420666f7220616c6c0000000000000000602082015250565b7f5a45524f5f414444524553530000000000000000000000000000000000000000600082015250565b7f4552433732313a2062616c616e636520717565727920666f7220746865207a6560008201527f726f206164647265737300000000000000000000000000000000000000000000602082015250565b7f4552433732313a206f776e657220717565727920666f72206e6f6e657869737460008201527f656e7420746f6b656e0000000000000000000000000000000000000000000000602082015250565b7f4c4556454c5f494e56414c494400000000000000000000000000000000000000600082015250565b7f464143544f525f494e56414c4944000000000000000000000000000000000000600082015250565b7f4552433732313a206d696e7420746f20746865207a65726f2061646472657373600082015250565b7f4552433732313a20617070726f76656420717565727920666f72206e6f6e657860008201527f697374656e7420746f6b656e0000000000000000000000000000000000000000602082015250565b7f2e6a736f6e000000000000000000000000000000000000000000000000000000600082015250565b7f6d75737420686176652061646d696e20726f6c65000000000000000000000000600082015250565b7f4552433732313a20617070726f76616c20746f2063757272656e74206f776e6560008201527f7200000000000000000000000000000000000000000000000000000000000000602082015250565b7f4552433732313a207472616e736665722063616c6c6572206973206e6f74206f60008201527f776e6572206e6f7220617070726f766564000000000000000000000000000000602082015250565b7f574541504f4e5f494e56414c4944000000000000000000000000000000000000600082015250565b7f6163636f756e74206d757374206265206e6f7420657175616c2061646472657360008201527f7320307800000000000000000000000000000000000000000000000000000000602082015250565b7f455243373231456e756d657261626c653a20676c6f62616c20696e646578206f60008201527f7574206f6620626f756e64730000000000000000000000000000000000000000602082015250565b7f434f5354554d455f494e56414c49440000000000000000000000000000000000600082015250565b7f416363657373436f6e74726f6c3a206163636f756e7420000000000000000000600082015250565b7f48414c4f5f494e56414c49440000000000000000000000000000000000000000600082015250565b7f4552433732314275726e61626c653a2063616c6c6572206973206e6f74206f7760008201527f6e6572206e6f7220617070726f76656400000000000000000000000000000000602082015250565b7f4e4545445f4d494e5445525f524f4c4500000000000000000000000000000000600082015250565b7f206973206d697373696e6720726f6c6520000000000000000000000000000000600082015250565b7f416363657373436f6e74726f6c3a2063616e206f6e6c792072656e6f756e636560008201527f20726f6c657320666f722073656c660000000000000000000000000000000000602082015250565b614f1c81614484565b8114614f2757600080fd5b50565b614f3381614496565b8114614f3e57600080fd5b50565b614f4a816144a2565b8114614f5557600080fd5b50565b614f61816144ac565b8114614f6c57600080fd5b50565b614f78816144f8565b8114614f8357600080fd5b5056fea264697066735822122045ecef5c50c3ec59cf446adc07e03ecfbf88d297c9875a48484689d16a1e054964736f6c63430008040033",
  "linkReferences": {},
  "deployedLinkReferences": {}
}