{
  "_format": "hh-sol-artifact-1",
  "contractName": "NFTManager",
  "sourceName": "contracts/NFTManager.sol",
  "abi": [
    {
      "inputs": [
        {
          "internalType": "address",
          "name": "_nftContract",
          "type": "address"
        }
      ],
      "stateMutability": "nonpayable",
      "type": "constructor"
    },
    {
      "anonymous": false,
      "inputs": [
        {
          "indexed": true,
          "internalType": "address",
          "name": "owner",
          "type": "address"
        },
        {
          "indexed": false,
          "internalType": "uint256",
          "name": "preTokenId",
          "type": "uint256"
        },
        {
          "indexed": false,
          "internalType": "uint256",
          "name": "nextTokenId",
          "type": "uint256"
        }
      ],
      "name": "ChangeNFT",
      "type": "event"
    },
    {
      "anonymous": false,
      "inputs": [
        {
          "indexed": true,
          "internalType": "address",
          "name": "owner",
          "type": "address"
        },
        {
          "indexed": false,
          "internalType": "uint256",
          "name": "tokenId",
          "type": "uint256"
        }
      ],
      "name": "EquipNFT",
      "type": "event"
    },
    {
      "anonymous": false,
      "inputs": [
        {
          "indexed": true,
          "internalType": "address",
          "name": "previousOwner",
          "type": "address"
        },
        {
          "indexed": true,
          "internalType": "address",
          "name": "newOwner",
          "type": "address"
        }
      ],
      "name": "OwnershipTransferred",
      "type": "event"
    },
    {
      "anonymous": false,
      "inputs": [
        {
          "indexed": true,
          "internalType": "bytes32",
          "name": "role",
          "type": "bytes32"
        },
        {
          "indexed": true,
          "internalType": "bytes32",
          "name": "previousAdminRole",
          "type": "bytes32"
        },
        {
          "indexed": true,
          "internalType": "bytes32",
          "name": "newAdminRole",
          "type": "bytes32"
        }
      ],
      "name": "RoleAdminChanged",
      "type": "event"
    },
    {
      "anonymous": false,
      "inputs": [
        {
          "indexed": true,
          "internalType": "bytes32",
          "name": "role",
          "type": "bytes32"
        },
        {
          "indexed": true,
          "internalType": "address",
          "name": "account",
          "type": "address"
        },
        {
          "indexed": true,
          "internalType": "address",
          "name": "sender",
          "type": "address"
        }
      ],
      "name": "RoleGranted",
      "type": "event"
    },
    {
      "anonymous": false,
      "inputs": [
        {
          "indexed": true,
          "internalType": "bytes32",
          "name": "role",
          "type": "bytes32"
        },
        {
          "indexed": true,
          "internalType": "address",
          "name": "account",
          "type": "address"
        },
        {
          "indexed": true,
          "internalType": "address",
          "name": "sender",
          "type": "address"
        }
      ],
      "name": "RoleRevoked",
      "type": "event"
    },
    {
      "anonymous": false,
      "inputs": [
        {
          "indexed": true,
          "internalType": "address",
          "name": "owner",
          "type": "address"
        },
        {
          "indexed": false,
          "internalType": "uint256",
          "name": "tokenId",
          "type": "uint256"
        }
      ],
      "name": "WithdrawNFT",
      "type": "event"
    },
    {
      "inputs": [],
      "name": "DEFAULT_ADMIN_ROLE",
      "outputs": [
        {
          "internalType": "bytes32",
          "name": "",
          "type": "bytes32"
        }
      ],
      "stateMutability": "view",
      "type": "function"
    },
    {
      "inputs": [],
      "name": "MINTER_ROLE",
      "outputs": [
        {
          "internalType": "bytes32",
          "name": "",
          "type": "bytes32"
        }
      ],
      "stateMutability": "view",
      "type": "function"
    },
    {
      "inputs": [
        {
          "internalType": "uint256",
          "name": "preTokenId",
          "type": "uint256"
        },
        {
          "internalType": "uint256",
          "name": "nextTokenId",
          "type": "uint256"
        }
      ],
      "name": "changeNFT",
      "outputs": [],
      "stateMutability": "nonpayable",
      "type": "function"
    },
    {
      "inputs": [
        {
          "internalType": "uint256",
          "name": "tokenId",
          "type": "uint256"
        }
      ],
      "name": "equipNFT",
      "outputs": [],
      "stateMutability": "nonpayable",
      "type": "function"
    },
    {
      "inputs": [
        {
          "internalType": "address",
          "name": "user",
          "type": "address"
        }
      ],
      "name": "getAllNFT",
      "outputs": [
        {
          "internalType": "uint256[]",
          "name": "list",
          "type": "uint256[]"
        }
      ],
      "stateMutability": "view",
      "type": "function"
    },
    {
      "inputs": [
        {
          "internalType": "bytes32",
          "name": "role",
          "type": "bytes32"
        }
      ],
      "name": "getRoleAdmin",
      "outputs": [
        {
          "internalType": "bytes32",
          "name": "",
          "type": "bytes32"
        }
      ],
      "stateMutability": "view",
      "type": "function"
    },
    {
      "inputs": [
        {
          "internalType": "bytes32",
          "name": "role",
          "type": "bytes32"
        },
        {
          "internalType": "address",
          "name": "account",
          "type": "address"
        }
      ],
      "name": "grantRole",
      "outputs": [],
      "stateMutability": "nonpayable",
      "type": "function"
    },
    {
      "inputs": [
        {
          "internalType": "bytes32",
          "name": "role",
          "type": "bytes32"
        },
        {
          "internalType": "address",
          "name": "account",
          "type": "address"
        }
      ],
      "name": "hasRole",
      "outputs": [
        {
          "internalType": "bool",
          "name": "",
          "type": "bool"
        }
      ],
      "stateMutability": "view",
      "type": "function"
    },
    {
      "inputs": [],
      "name": "owner",
      "outputs": [
        {
          "internalType": "address",
          "name": "",
          "type": "address"
        }
      ],
      "stateMutability": "view",
      "type": "function"
    },
    {
      "inputs": [
        {
          "internalType": "address",
          "name": "",
          "type": "address"
        },
        {
          "internalType": "uint256",
          "name": "",
          "type": "uint256"
        }
      ],
      "name": "pools",
      "outputs": [
        {
          "internalType": "uint256",
          "name": "",
          "type": "uint256"
        }
      ],
      "stateMutability": "view",
      "type": "function"
    },
    {
      "inputs": [],
      "name": "renounceOwnership",
      "outputs": [],
      "stateMutability": "nonpayable",
      "type": "function"
    },
    {
      "inputs": [
        {
          "internalType": "bytes32",
          "name": "role",
          "type": "bytes32"
        },
        {
          "internalType": "address",
          "name": "account",
          "type": "address"
        }
      ],
      "name": "renounceRole",
      "outputs": [],
      "stateMutability": "nonpayable",
      "type": "function"
    },
    {
      "inputs": [
        {
          "internalType": "bytes32",
          "name": "role",
          "type": "bytes32"
        },
        {
          "internalType": "address",
          "name": "account",
          "type": "address"
        }
      ],
      "name": "revokeRole",
      "outputs": [],
      "stateMutability": "nonpayable",
      "type": "function"
    },
    {
      "inputs": [
        {
          "internalType": "address",
          "name": "account",
          "type": "address"
        },
        {
          "internalType": "bool",
          "name": "_enable",
          "type": "bool"
        }
      ],
      "name": "setupMinterRole",
      "outputs": [],
      "stateMutability": "nonpayable",
      "type": "function"
    },
    {
      "inputs": [
        {
          "internalType": "bytes4",
          "name": "interfaceId",
          "type": "bytes4"
        }
      ],
      "name": "supportsInterface",
      "outputs": [
        {
          "internalType": "bool",
          "name": "",
          "type": "bool"
        }
      ],
      "stateMutability": "view",
      "type": "function"
    },
    {
      "inputs": [
        {
          "internalType": "address",
          "name": "newOwner",
          "type": "address"
        }
      ],
      "name": "transferOwnership",
      "outputs": [],
      "stateMutability": "nonpayable",
      "type": "function"
    },
    {
      "inputs": [
        {
          "internalType": "uint256",
          "name": "tokenId",
          "type": "uint256"
        }
      ],
      "name": "withdrawNFT",
      "outputs": [],
      "stateMutability": "nonpayable",
      "type": "function"
    }
  ],
  "bytecode": "0x60806040523480156200001157600080fd5b50604051620026fb380380620026fb83398181016040528101906200003791906200035a565b620000576200004b6200010460201b60201c565b6200010c60201b60201c565b6200007b6000801b6200006f6200010460201b60201c565b620001d260201b60201c565b620000bc7f9f2df0fed2c77648de5860a4cc508cd0818c85b8b8a1ab4ceeef8d981c8956a6620000b06200010460201b60201c565b620001d260201b60201c565b80600260006101000a81548173ffffffffffffffffffffffffffffffffffffffff021916908373ffffffffffffffffffffffffffffffffffffffff16021790555050620003d4565b600033905090565b6000600160009054906101000a900473ffffffffffffffffffffffffffffffffffffffff16905081600160006101000a81548173ffffffffffffffffffffffffffffffffffffffff021916908373ffffffffffffffffffffffffffffffffffffffff1602179055508173ffffffffffffffffffffffffffffffffffffffff168173ffffffffffffffffffffffffffffffffffffffff167f8be0079c531659141344cd1fd0a4f28419497f9722a3daafe3b4186f6b6457e060405160405180910390a35050565b620001e48282620001e860201b60201c565b5050565b620001fa8282620002d960201b60201c565b620002d557600160008084815260200190815260200160002060000160008373ffffffffffffffffffffffffffffffffffffffff1673ffffffffffffffffffffffffffffffffffffffff16815260200190815260200160002060006101000a81548160ff0219169083151502179055506200027a6200010460201b60201c565b73ffffffffffffffffffffffffffffffffffffffff168173ffffffffffffffffffffffffffffffffffffffff16837f2f8788117e7eff1d82e926ec794901d17c78024a50270940304540a733656f0d60405160405180910390a45b5050565b600080600084815260200190815260200160002060000160008373ffffffffffffffffffffffffffffffffffffffff1673ffffffffffffffffffffffffffffffffffffffff16815260200190815260200160002060009054906101000a900460ff16905092915050565b6000815190506200035481620003ba565b92915050565b6000602082840312156200036d57600080fd5b60006200037d8482850162000343565b91505092915050565b600062000393826200039a565b9050919050565b600073ffffffffffffffffffffffffffffffffffffffff82169050919050565b620003c58162000386565b8114620003d157600080fd5b50565b61231780620003e46000396000f3fe608060405234801561001057600080fd5b506004361061010b5760003560e01c8063715018a6116100a2578063a217fddf11610071578063a217fddf146102b4578063ca3a3f8a146102d2578063d5391393146102ee578063d547741f1461030c578063f2fde38b146103285761010b565b8063715018a61461022c5780638da5cb5b146102365780638f38a5551461025457806391d14854146102845761010b565b80632592d9ef116100de5780632592d9ef146101bc5780632f2ff15d146101d857806336568abe146101f45780636451a896146102105761010b565b806301ffc9a714610110578063023245d7146101405780631b8df0ee1461015c578063248a9ca31461018c575b600080fd5b61012a6004803603810190610125919061188d565b610344565b6040516101379190611c52565b60405180910390f35b61015a600480360381019061015591906118b6565b6103be565b005b61017660048036038101906101719190611787565b6105c2565b6040516101839190611c30565b60405180910390f35b6101a660048036038101906101a19190611828565b610659565b6040516101b39190611c6d565b60405180910390f35b6101d660048036038101906101d191906117b0565b610678565b005b6101f260048036038101906101ed9190611851565b61079f565b005b61020e60048036038101906102099190611851565b6107c0565b005b61022a600480360381019061022591906118df565b610843565b005b610234610b41565b005b61023e610bc9565b60405161024b9190611bde565b60405180910390f35b61026e600480360381019061026991906117ec565b610bf3565b60405161027b9190611daa565b60405180910390f35b61029e60048036038101906102999190611851565b610c24565b6040516102ab9190611c52565b60405180910390f35b6102bc610c8e565b6040516102c99190611c6d565b60405180910390f35b6102ec60048036038101906102e791906118b6565b610c95565b005b6102f6610e27565b6040516103039190611c6d565b60405180910390f35b61032660048036038101906103219190611851565b610e4b565b005b610342600480360381019061033d9190611787565b610e6c565b005b60007f7965db0b000000000000000000000000000000000000000000000000000000007bffffffffffffffffffffffffffffffffffffffffffffffffffffffff1916827bffffffffffffffffffffffffffffffffffffffffffffffffffffffff191614806103b757506103b682610f64565b5b9050919050565b60003390506000821415610407576040517f08c379a00000000000000000000000000000000000000000000000000000000081526004016103fe90611d2a565b60405180910390fd5b6000806104148385610fce565b9150915081610458576040517f08c379a000000000000000000000000000000000000000000000000000000000815260040161044f90611cea565b60405180910390fd5b600260009054906101000a900473ffffffffffffffffffffffffffffffffffffffff1673ffffffffffffffffffffffffffffffffffffffff166323b872dd3085876040518463ffffffff1660e01b81526004016104b793929190611bf9565b600060405180830381600087803b1580156104d157600080fd5b505af11580156104e5573d6000803e3d6000fd5b50505050600360008473ffffffffffffffffffffffffffffffffffffffff1673ffffffffffffffffffffffffffffffffffffffff1681526020019081526020016000208181548110610560577f4e487b7100000000000000000000000000000000000000000000000000000000600052603260045260246000fd5b90600052602060002001600090558273ffffffffffffffffffffffffffffffffffffffff167f3a1474f7e987c73586ba37f580025eac82a1456e87b9eace40768b8518a4b375856040516105b49190611daa565b60405180910390a250505050565b6060600360008373ffffffffffffffffffffffffffffffffffffffff1673ffffffffffffffffffffffffffffffffffffffff16815260200190815260200160002080548060200260200160405190810160405280929190818152602001828054801561064d57602002820191906000526020600020905b815481526020019060010190808311610639575b50505050509050919050565b6000806000838152602001908152602001600020600101549050919050565b600073ffffffffffffffffffffffffffffffffffffffff168273ffffffffffffffffffffffffffffffffffffffff1614156106e8576040517f08c379a00000000000000000000000000000000000000000000000000000000081526004016106df90611d4a565b60405180910390fd5b6106fc6000801b6106f76110d6565b610c24565b61073b576040517f08c379a000000000000000000000000000000000000000000000000000000000815260040161073290611d6a565b60405180910390fd5b80156107705761076b7f9f2df0fed2c77648de5860a4cc508cd0818c85b8b8a1ab4ceeef8d981c8956a6836110de565b61079b565b61079a7f9f2df0fed2c77648de5860a4cc508cd0818c85b8b8a1ab4ceeef8d981c8956a6836110ec565b5b5050565b6107a882610659565b6107b1816111cd565b6107bb83836111e1565b505050565b6107c86110d6565b73ffffffffffffffffffffffffffffffffffffffff168173ffffffffffffffffffffffffffffffffffffffff1614610835576040517f08c379a000000000000000000000000000000000000000000000000000000000815260040161082c90611d8a565b60405180910390fd5b61083f82826110ec565b5050565b6000339050600083141561088c576040517f08c379a000000000000000000000000000000000000000000000000000000000815260040161088390611d2a565b60405180910390fd5b6000806108998386610fce565b91509150816108dd576040517f08c379a00000000000000000000000000000000000000000000000000000000081526004016108d490611cea565b60405180910390fd5b600260009054906101000a900473ffffffffffffffffffffffffffffffffffffffff1673ffffffffffffffffffffffffffffffffffffffff166323b872dd3085886040518463ffffffff1660e01b815260040161093c93929190611bf9565b600060405180830381600087803b15801561095657600080fd5b505af115801561096a573d6000803e3d6000fd5b50505050600260009054906101000a900473ffffffffffffffffffffffffffffffffffffffff1673ffffffffffffffffffffffffffffffffffffffff166323b872dd8430876040518463ffffffff1660e01b81526004016109cd93929190611bf9565b600060405180830381600087803b1580156109e757600080fd5b505af11580156109fb573d6000803e3d6000fd5b50505050600360008473ffffffffffffffffffffffffffffffffffffffff1673ffffffffffffffffffffffffffffffffffffffff1681526020019081526020016000208181548110610a76577f4e487b7100000000000000000000000000000000000000000000000000000000600052603260045260246000fd5b9060005260206000200160009055600360008473ffffffffffffffffffffffffffffffffffffffff1673ffffffffffffffffffffffffffffffffffffffff1681526020019081526020016000208490806001815401808255809150506001900390600052602060002001600090919091909150558273ffffffffffffffffffffffffffffffffffffffff167f91a7796f8225a7c5bfadeb902335b24ffcae1bafda4b6ea7a8508fded5ee976c8686604051610b32929190611dc5565b60405180910390a25050505050565b610b496110d6565b73ffffffffffffffffffffffffffffffffffffffff16610b67610bc9565b73ffffffffffffffffffffffffffffffffffffffff1614610bbd576040517f08c379a0000000000000000000000000000000000000000000000000000000008152600401610bb490611d0a565b60405180910390fd5b610bc760006112c1565b565b6000600160009054906101000a900473ffffffffffffffffffffffffffffffffffffffff16905090565b60036020528160005260406000208181548110610c0f57600080fd5b90600052602060002001600091509150505481565b600080600084815260200190815260200160002060000160008373ffffffffffffffffffffffffffffffffffffffff1673ffffffffffffffffffffffffffffffffffffffff16815260200190815260200160002060009054906101000a900460ff16905092915050565b6000801b81565b60003390506000821415610cde576040517f08c379a0000000000000000000000000000000000000000000000000000000008152600401610cd590611d2a565b60405180910390fd5b600260009054906101000a900473ffffffffffffffffffffffffffffffffffffffff1673ffffffffffffffffffffffffffffffffffffffff166323b872dd8230856040518463ffffffff1660e01b8152600401610d3d93929190611bf9565b600060405180830381600087803b158015610d5757600080fd5b505af1158015610d6b573d6000803e3d6000fd5b50505050600360008273ffffffffffffffffffffffffffffffffffffffff1673ffffffffffffffffffffffffffffffffffffffff1681526020019081526020016000208290806001815401808255809150506001900390600052602060002001600090919091909150558073ffffffffffffffffffffffffffffffffffffffff167f7c54aaa13b5db00eb90276e27a068397b69caf885c560b831a0d0bafa03d202683604051610e1b9190611daa565b60405180910390a25050565b7f9f2df0fed2c77648de5860a4cc508cd0818c85b8b8a1ab4ceeef8d981c8956a681565b610e5482610659565b610e5d816111cd565b610e6783836110ec565b505050565b610e746110d6565b73ffffffffffffffffffffffffffffffffffffffff16610e92610bc9565b73ffffffffffffffffffffffffffffffffffffffff1614610ee8576040517f08c379a0000000000000000000000000000000000000000000000000000000008152600401610edf90611d0a565b60405180910390fd5b600073ffffffffffffffffffffffffffffffffffffffff168173ffffffffffffffffffffffffffffffffffffffff161415610f58576040517f08c379a0000000000000000000000000000000000000000000000000000000008152600401610f4f90611cca565b60405180910390fd5b610f61816112c1565b50565b60007f01ffc9a7000000000000000000000000000000000000000000000000000000007bffffffffffffffffffffffffffffffffffffffffffffffffffffffff1916827bffffffffffffffffffffffffffffffffffffffffffffffffffffffff1916149050919050565b600080600091506000905060005b600360008673ffffffffffffffffffffffffffffffffffffffff1673ffffffffffffffffffffffffffffffffffffffff168152602001908152602001600020805490508110156110ce57600360008673ffffffffffffffffffffffffffffffffffffffff1673ffffffffffffffffffffffffffffffffffffffff168152602001908152602001600020818154811061109d577f4e487b7100000000000000000000000000000000000000000000000000000000600052603260045260246000fd5b90600052602060002001548414156110bb57600192508091506110ce565b80806110c690611fd9565b915050610fdc565b509250929050565b600033905090565b6110e882826111e1565b5050565b6110f68282610c24565b156111c957600080600084815260200190815260200160002060000160008373ffffffffffffffffffffffffffffffffffffffff1673ffffffffffffffffffffffffffffffffffffffff16815260200190815260200160002060006101000a81548160ff02191690831515021790555061116e6110d6565b73ffffffffffffffffffffffffffffffffffffffff168173ffffffffffffffffffffffffffffffffffffffff16837ff6391f5c32d9c69d2a47ea670b442974b53935d1edc7fd64eb21e047a839171b60405160405180910390a45b5050565b6111de816111d96110d6565b611387565b50565b6111eb8282610c24565b6112bd57600160008084815260200190815260200160002060000160008373ffffffffffffffffffffffffffffffffffffffff1673ffffffffffffffffffffffffffffffffffffffff16815260200190815260200160002060006101000a81548160ff0219169083151502179055506112626110d6565b73ffffffffffffffffffffffffffffffffffffffff168173ffffffffffffffffffffffffffffffffffffffff16837f2f8788117e7eff1d82e926ec794901d17c78024a50270940304540a733656f0d60405160405180910390a45b5050565b6000600160009054906101000a900473ffffffffffffffffffffffffffffffffffffffff16905081600160006101000a81548173ffffffffffffffffffffffffffffffffffffffff021916908373ffffffffffffffffffffffffffffffffffffffff1602179055508173ffffffffffffffffffffffffffffffffffffffff168173ffffffffffffffffffffffffffffffffffffffff167f8be0079c531659141344cd1fd0a4f28419497f9722a3daafe3b4186f6b6457e060405160405180910390a35050565b6113918282610c24565b611420576113b68173ffffffffffffffffffffffffffffffffffffffff166014611424565b6113c48360001c6020611424565b6040516020016113d5929190611ba4565b6040516020818303038152906040526040517f08c379a00000000000000000000000000000000000000000000000000000000081526004016114179190611c88565b60405180910390fd5b5050565b6060600060028360026114379190611ea4565b6114419190611e4e565b67ffffffffffffffff811115611480577f4e487b7100000000000000000000000000000000000000000000000000000000600052604160045260246000fd5b6040519080825280601f01601f1916602001820160405280156114b25781602001600182028036833780820191505090505b5090507f300000000000000000000000000000000000000000000000000000000000000081600081518110611510577f4e487b7100000000000000000000000000000000000000000000000000000000600052603260045260246000fd5b60200101907effffffffffffffffffffffffffffffffffffffffffffffffffffffffffffff1916908160001a9053507f78000000000000000000000000000000000000000000000000000000000000008160018151811061159a577f4e487b7100000000000000000000000000000000000000000000000000000000600052603260045260246000fd5b60200101907effffffffffffffffffffffffffffffffffffffffffffffffffffffffffffff1916908160001a905350600060018460026115da9190611ea4565b6115e49190611e4e565b90505b60018111156116d0577f3031323334353637383961626364656600000000000000000000000000000000600f86166010811061164c577f4e487b7100000000000000000000000000000000000000000000000000000000600052603260045260246000fd5b1a60f81b828281518110611689577f4e487b7100000000000000000000000000000000000000000000000000000000600052603260045260246000fd5b60200101907effffffffffffffffffffffffffffffffffffffffffffffffffffffffffffff1916908160001a905350600485901c9450806116c990611faf565b90506115e7565b5060008414611714576040517f08c379a000000000000000000000000000000000000000000000000000000000815260040161170b90611caa565b60405180910390fd5b8091505092915050565b60008135905061172d8161226e565b92915050565b60008135905061174281612285565b92915050565b6000813590506117578161229c565b92915050565b60008135905061176c816122b3565b92915050565b600081359050611781816122ca565b92915050565b60006020828403121561179957600080fd5b60006117a78482850161171e565b91505092915050565b600080604083850312156117c357600080fd5b60006117d18582860161171e565b92505060206117e285828601611733565b9150509250929050565b600080604083850312156117ff57600080fd5b600061180d8582860161171e565b925050602061181e85828601611772565b9150509250929050565b60006020828403121561183a57600080fd5b600061184884828501611748565b91505092915050565b6000806040838503121561186457600080fd5b600061187285828601611748565b92505060206118838582860161171e565b9150509250929050565b60006020828403121561189f57600080fd5b60006118ad8482850161175d565b91505092915050565b6000602082840312156118c857600080fd5b60006118d684828501611772565b91505092915050565b600080604083850312156118f257600080fd5b600061190085828601611772565b925050602061191185828601611772565b9150509250929050565b60006119278383611b86565b60208301905092915050565b61193c81611efe565b82525050565b600061194d82611dfe565b6119578185611e21565b935061196283611dee565b8060005b8381101561199357815161197a888261191b565b975061198583611e14565b925050600181019050611966565b5085935050505092915050565b6119a981611f10565b82525050565b6119b881611f1c565b82525050565b60006119c982611e09565b6119d38185611e32565b93506119e3818560208601611f7c565b6119ec81612051565b840191505092915050565b6000611a0282611e09565b611a0c8185611e43565b9350611a1c818560208601611f7c565b80840191505092915050565b6000611a35602083611e32565b9150611a4082612062565b602082019050919050565b6000611a58602683611e32565b9150611a638261208b565b604082019050919050565b6000611a7b602183611e32565b9150611a86826120da565b604082019050919050565b6000611a9e602083611e32565b9150611aa982612129565b602082019050919050565b6000611ac1601a83611e32565b9150611acc82612152565b602082019050919050565b6000611ae4600f83611e32565b9150611aef8261217b565b602082019050919050565b6000611b07601783611e43565b9150611b12826121a4565b601782019050919050565b6000611b2a600e83611e32565b9150611b35826121cd565b602082019050919050565b6000611b4d601183611e43565b9150611b58826121f6565b601182019050919050565b6000611b70602f83611e32565b9150611b7b8261221f565b604082019050919050565b611b8f81611f72565b82525050565b611b9e81611f72565b82525050565b6000611baf82611afa565b9150611bbb82856119f7565b9150611bc682611b40565b9150611bd282846119f7565b91508190509392505050565b6000602082019050611bf36000830184611933565b92915050565b6000606082019050611c0e6000830186611933565b611c1b6020830185611933565b611c286040830184611b95565b949350505050565b60006020820190508181036000830152611c4a8184611942565b905092915050565b6000602082019050611c6760008301846119a0565b92915050565b6000602082019050611c8260008301846119af565b92915050565b60006020820190508181036000830152611ca281846119be565b905092915050565b60006020820190508181036000830152611cc381611a28565b9050919050565b60006020820190508181036000830152611ce381611a4b565b9050919050565b60006020820190508181036000830152611d0381611a6e565b9050919050565b60006020820190508181036000830152611d2381611a91565b9050919050565b60006020820190508181036000830152611d4381611ab4565b9050919050565b60006020820190508181036000830152611d6381611ad7565b9050919050565b60006020820190508181036000830152611d8381611b1d565b9050919050565b60006020820190508181036000830152611da381611b63565b9050919050565b6000602082019050611dbf6000830184611b95565b92915050565b6000604082019050611dda6000830185611b95565b611de76020830184611b95565b9392505050565b6000819050602082019050919050565b600081519050919050565b600081519050919050565b6000602082019050919050565b600082825260208201905092915050565b600082825260208201905092915050565b600081905092915050565b6000611e5982611f72565b9150611e6483611f72565b9250827fffffffffffffffffffffffffffffffffffffffffffffffffffffffffffffffff03821115611e9957611e98612022565b5b828201905092915050565b6000611eaf82611f72565b9150611eba83611f72565b9250817fffffffffffffffffffffffffffffffffffffffffffffffffffffffffffffffff0483118215151615611ef357611ef2612022565b5b828202905092915050565b6000611f0982611f52565b9050919050565b60008115159050919050565b6000819050919050565b60007fffffffff0000000000000000000000000000000000000000000000000000000082169050919050565b600073ffffffffffffffffffffffffffffffffffffffff82169050919050565b6000819050919050565b60005b83811015611f9a578082015181840152602081019050611f7f565b83811115611fa9576000848401525b50505050565b6000611fba82611f72565b91506000821415611fce57611fcd612022565b5b600182039050919050565b6000611fe482611f72565b91507fffffffffffffffffffffffffffffffffffffffffffffffffffffffffffffffff82141561201757612016612022565b5b600182019050919050565b7f4e487b7100000000000000000000000000000000000000000000000000000000600052601160045260246000fd5b6000601f19601f8301169050919050565b7f537472696e67733a20686578206c656e67746820696e73756666696369656e74600082015250565b7f4f776e61626c653a206e6577206f776e657220697320746865207a65726f206160008201527f6464726573730000000000000000000000000000000000000000000000000000602082015250565b7f4d616e6167654e46543a20746f6b656e4964206973206e6f7420696e20706f6f60008201527f6c00000000000000000000000000000000000000000000000000000000000000602082015250565b7f4f776e61626c653a2063616c6c6572206973206e6f7420746865206f776e6572600082015250565b7f4d616e6167654e46543a20746f6b656e4964206973207a65726f000000000000600082015250565b7f414444524553535f494e56414c49440000000000000000000000000000000000600082015250565b7f416363657373436f6e74726f6c3a206163636f756e7420000000000000000000600082015250565b7f4e4f545f5045524d495353494f4e000000000000000000000000000000000000600082015250565b7f206973206d697373696e6720726f6c6520000000000000000000000000000000600082015250565b7f416363657373436f6e74726f6c3a2063616e206f6e6c792072656e6f756e636560008201527f20726f6c657320666f722073656c660000000000000000000000000000000000602082015250565b61227781611efe565b811461228257600080fd5b50565b61228e81611f10565b811461229957600080fd5b50565b6122a581611f1c565b81146122b057600080fd5b50565b6122bc81611f26565b81146122c757600080fd5b50565b6122d381611f72565b81146122de57600080fd5b5056fea2646970667358221220da3e84eb3f0a8c5028af51ede22ed6d2b8a61f175273987cca834c386121024e64736f6c63430008040033",
  "linkReferences": {},
  "deployedLinkReferences": {}
}